{
  "_format": "hh-sol-artifact-1",
  "contractName": "PermanentPortfolioLPToken",
  "sourceName": "contracts/PermanentPortfolioLPToken.sol",
  "abi": [
    {
      "inputs": [
        {
          "internalType": "address",
          "name": "asset_",
          "type": "address"
        },
        {
          "internalType": "string",
          "name": "name_",
          "type": "string"
        },
        {
          "internalType": "string",
          "name": "symbol_",
          "type": "string"
        },
        {
          "internalType": "address",
          "name": "equilibriaVaultAddr",
          "type": "address"
        },
        {
          "internalType": "address",
          "name": "equilibriaGDAIVaultAddr",
          "type": "address"
        },
        {
          "internalType": "address",
          "name": "equilibriaRETHVaultAddr",
          "type": "address"
        },
        {
          "internalType": "address payable",
          "name": "magicArbitrumVaultAddr",
          "type": "address"
        },
        {
          "internalType": "address",
          "name": "equilibriaPendleVaultAddr",
          "type": "address"
        },
        {
          "internalType": "address",
          "name": "radiantVaultAddr",
          "type": "address"
        }
      ],
      "stateMutability": "nonpayable",
      "type": "constructor"
    },
    {
      "anonymous": false,
      "inputs": [
        {
          "indexed": true,
          "internalType": "address",
          "name": "owner",
          "type": "address"
        },
        {
          "indexed": true,
          "internalType": "address",
          "name": "spender",
          "type": "address"
        },
        {
          "indexed": false,
          "internalType": "uint256",
          "name": "value",
          "type": "uint256"
        }
      ],
      "name": "Approval",
      "type": "event"
    },
    {
      "anonymous": false,
      "inputs": [
        {
          "indexed": false,
          "internalType": "string",
          "name": "errorMessage",
          "type": "string"
        }
      ],
      "name": "ClaimError",
      "type": "event"
    },
    {
      "anonymous": false,
      "inputs": [
        {
          "indexed": true,
          "internalType": "address",
          "name": "previousOwner",
          "type": "address"
        },
        {
          "indexed": true,
          "internalType": "address",
          "name": "newOwner",
          "type": "address"
        }
      ],
      "name": "OwnershipTransferred",
      "type": "event"
    },
    {
      "anonymous": false,
      "inputs": [
        {
          "indexed": false,
          "internalType": "address",
          "name": "account",
          "type": "address"
        }
      ],
      "name": "Paused",
      "type": "event"
    },
    {
      "anonymous": false,
      "inputs": [
        {
          "indexed": true,
          "internalType": "address",
          "name": "from",
          "type": "address"
        },
        {
          "indexed": true,
          "internalType": "address",
          "name": "to",
          "type": "address"
        },
        {
          "indexed": false,
          "internalType": "uint256",
          "name": "value",
          "type": "uint256"
        }
      ],
      "name": "Transfer",
      "type": "event"
    },
    {
      "anonymous": false,
      "inputs": [
        {
          "indexed": false,
          "internalType": "address",
          "name": "account",
          "type": "address"
        }
      ],
      "name": "Unpaused",
      "type": "event"
    },
    {
      "inputs": [],
      "name": "UNIT_OF_SHARES",
      "outputs": [
        {
          "internalType": "uint256",
          "name": "",
          "type": "uint256"
        }
      ],
      "stateMutability": "view",
      "type": "function"
    },
    {
      "inputs": [
        {
          "internalType": "address",
          "name": "owner",
          "type": "address"
        },
        {
          "internalType": "address",
          "name": "spender",
          "type": "address"
        }
      ],
      "name": "allowance",
      "outputs": [
        {
          "internalType": "uint256",
          "name": "",
          "type": "uint256"
        }
      ],
      "stateMutability": "view",
      "type": "function"
    },
    {
      "inputs": [
        {
          "internalType": "address",
          "name": "spender",
          "type": "address"
        },
        {
          "internalType": "uint256",
          "name": "amount",
          "type": "uint256"
        }
      ],
      "name": "approve",
      "outputs": [
        {
          "internalType": "bool",
          "name": "",
          "type": "bool"
        }
      ],
      "stateMutability": "nonpayable",
      "type": "function"
    },
    {
      "inputs": [],
      "name": "asset",
      "outputs": [
        {
          "internalType": "contract IERC20",
          "name": "",
          "type": "address"
        }
      ],
      "stateMutability": "view",
      "type": "function"
    },
    {
      "inputs": [
        {
          "internalType": "address",
          "name": "account",
          "type": "address"
        }
      ],
      "name": "balanceOf",
      "outputs": [
        {
          "internalType": "uint256",
          "name": "",
          "type": "uint256"
        }
      ],
      "stateMutability": "view",
      "type": "function"
    },
    {
      "inputs": [],
      "name": "balanceOfProtocolFee",
      "outputs": [
        {
          "internalType": "uint256",
          "name": "",
          "type": "uint256"
        }
      ],
      "stateMutability": "view",
      "type": "function"
    },
    {
      "inputs": [
        {
          "internalType": "address payable",
          "name": "receiver",
          "type": "address"
        }
      ],
      "name": "claim",
      "outputs": [],
      "stateMutability": "nonpayable",
      "type": "function"
    },
    {
      "inputs": [],
      "name": "claimProtocolFee",
      "outputs": [],
      "stateMutability": "nonpayable",
      "type": "function"
    },
    {
      "inputs": [],
      "name": "decimals",
      "outputs": [
        {
          "internalType": "uint8",
          "name": "",
          "type": "uint8"
        }
      ],
      "stateMutability": "view",
      "type": "function"
    },
    {
      "inputs": [
        {
          "internalType": "address",
          "name": "spender",
          "type": "address"
        },
        {
          "internalType": "uint256",
          "name": "subtractedValue",
          "type": "uint256"
        }
      ],
      "name": "decreaseAllowance",
      "outputs": [
        {
          "internalType": "bool",
          "name": "",
          "type": "bool"
        }
      ],
      "stateMutability": "nonpayable",
      "type": "function"
    },
    {
      "inputs": [
        {
          "components": [
            {
              "internalType": "uint256",
              "name": "amount",
              "type": "uint256"
            },
            {
              "internalType": "address",
              "name": "receiver",
              "type": "address"
            },
            {
              "internalType": "uint256",
              "name": "glpMinLpOut",
              "type": "uint256"
            },
            {
              "components": [
                {
                  "internalType": "uint256",
                  "name": "guessMin",
                  "type": "uint256"
                },
                {
                  "internalType": "uint256",
                  "name": "guessMax",
                  "type": "uint256"
                },
                {
                  "internalType": "uint256",
                  "name": "guessOffchain",
                  "type": "uint256"
                },
                {
                  "internalType": "uint256",
                  "name": "maxIteration",
                  "type": "uint256"
                },
                {
                  "internalType": "uint256",
                  "name": "eps",
                  "type": "uint256"
                }
              ],
              "internalType": "struct IPendleRouter.ApproxParams",
              "name": "glpGuessPtReceivedFromSy",
              "type": "tuple"
            },
            {
              "components": [
                {
                  "internalType": "address",
                  "name": "tokenIn",
                  "type": "address"
                },
                {
                  "internalType": "uint256",
                  "name": "netTokenIn",
                  "type": "uint256"
                },
                {
                  "internalType": "address",
                  "name": "tokenMintSy",
                  "type": "address"
                },
                {
                  "internalType": "address",
                  "name": "bulk",
                  "type": "address"
                },
                {
                  "internalType": "address",
                  "name": "pendleSwap",
                  "type": "address"
                },
                {
                  "components": [
                    {
                      "internalType": "enum SwapType",
                      "name": "swapType",
                      "type": "uint8"
                    },
                    {
                      "internalType": "address",
                      "name": "extRouter",
                      "type": "address"
                    },
                    {
                      "internalType": "bytes",
                      "name": "extCalldata",
                      "type": "bytes"
                    },
                    {
                      "internalType": "bool",
                      "name": "needScale",
                      "type": "bool"
                    }
                  ],
                  "internalType": "struct SwapData",
                  "name": "swapData",
                  "type": "tuple"
                }
              ],
              "internalType": "struct IPendleRouter.TokenInput",
              "name": "glpInput",
              "type": "tuple"
            },
            {
              "internalType": "uint256",
              "name": "gdaiMinLpOut",
              "type": "uint256"
            },
            {
              "components": [
                {
                  "internalType": "uint256",
                  "name": "guessMin",
                  "type": "uint256"
                },
                {
                  "internalType": "uint256",
                  "name": "guessMax",
                  "type": "uint256"
                },
                {
                  "internalType": "uint256",
                  "name": "guessOffchain",
                  "type": "uint256"
                },
                {
                  "internalType": "uint256",
                  "name": "maxIteration",
                  "type": "uint256"
                },
                {
                  "internalType": "uint256",
                  "name": "eps",
                  "type": "uint256"
                }
              ],
              "internalType": "struct IPendleRouter.ApproxParams",
              "name": "gdaiGuessPtReceivedFromSy",
              "type": "tuple"
            },
            {
              "components": [
                {
                  "internalType": "address",
                  "name": "tokenIn",
                  "type": "address"
                },
                {
                  "internalType": "uint256",
                  "name": "netTokenIn",
                  "type": "uint256"
                },
                {
                  "internalType": "address",
                  "name": "tokenMintSy",
                  "type": "address"
                },
                {
                  "internalType": "address",
                  "name": "bulk",
                  "type": "address"
                },
                {
                  "internalType": "address",
                  "name": "pendleSwap",
                  "type": "address"
                },
                {
                  "components": [
                    {
                      "internalType": "enum SwapType",
                      "name": "swapType",
                      "type": "uint8"
                    },
                    {
                      "internalType": "address",
                      "name": "extRouter",
                      "type": "address"
                    },
                    {
                      "internalType": "bytes",
                      "name": "extCalldata",
                      "type": "bytes"
                    },
                    {
                      "internalType": "bool",
                      "name": "needScale",
                      "type": "bool"
                    }
                  ],
                  "internalType": "struct SwapData",
                  "name": "swapData",
                  "type": "tuple"
                }
              ],
              "internalType": "struct IPendleRouter.TokenInput",
              "name": "gdaiInput",
              "type": "tuple"
            },
            {
              "internalType": "bytes",
              "name": "gdaiOneInchDataGDAI",
              "type": "bytes"
            },
            {
              "internalType": "uint256",
              "name": "rethMinLpOut",
              "type": "uint256"
            },
            {
              "components": [
                {
                  "internalType": "uint256",
                  "name": "guessMin",
                  "type": "uint256"
                },
                {
                  "internalType": "uint256",
                  "name": "guessMax",
                  "type": "uint256"
                },
                {
                  "internalType": "uint256",
                  "name": "guessOffchain",
                  "type": "uint256"
                },
                {
                  "internalType": "uint256",
                  "name": "maxIteration",
                  "type": "uint256"
                },
                {
                  "internalType": "uint256",
                  "name": "eps",
                  "type": "uint256"
                }
              ],
              "internalType": "struct IPendleRouter.ApproxParams",
              "name": "rethGuessPtReceivedFromSy",
              "type": "tuple"
            },
            {
              "components": [
                {
                  "internalType": "address",
                  "name": "tokenIn",
                  "type": "address"
                },
                {
                  "internalType": "uint256",
                  "name": "netTokenIn",
                  "type": "uint256"
                },
                {
                  "internalType": "address",
                  "name": "tokenMintSy",
                  "type": "address"
                },
                {
                  "internalType": "address",
                  "name": "bulk",
                  "type": "address"
                },
                {
                  "internalType": "address",
                  "name": "pendleSwap",
                  "type": "address"
                },
                {
                  "components": [
                    {
                      "internalType": "enum SwapType",
                      "name": "swapType",
                      "type": "uint8"
                    },
                    {
                      "internalType": "address",
                      "name": "extRouter",
                      "type": "address"
                    },
                    {
                      "internalType": "bytes",
                      "name": "extCalldata",
                      "type": "bytes"
                    },
                    {
                      "internalType": "bool",
                      "name": "needScale",
                      "type": "bool"
                    }
                  ],
                  "internalType": "struct SwapData",
                  "name": "swapData",
                  "type": "tuple"
                }
              ],
              "internalType": "struct IPendleRouter.TokenInput",
              "name": "rethInput",
              "type": "tuple"
            },
            {
              "internalType": "bytes",
              "name": "rethOneInchDataRETH",
              "type": "bytes"
            },
            {
              "internalType": "bytes",
              "name": "oneInchDataMagic",
              "type": "bytes"
            },
            {
              "internalType": "uint256",
              "name": "pendleMinLpOut",
              "type": "uint256"
            },
            {
              "components": [
                {
                  "internalType": "uint256",
                  "name": "guessMin",
                  "type": "uint256"
                },
                {
                  "internalType": "uint256",
                  "name": "guessMax",
                  "type": "uint256"
                },
                {
                  "internalType": "uint256",
                  "name": "guessOffchain",
                  "type": "uint256"
                },
                {
                  "internalType": "uint256",
                  "name": "maxIteration",
                  "type": "uint256"
                },
                {
                  "internalType": "uint256",
                  "name": "eps",
                  "type": "uint256"
                }
              ],
              "internalType": "struct IPendleRouter.ApproxParams",
              "name": "pendleGuessPtReceivedFromSy",
              "type": "tuple"
            },
            {
              "components": [
                {
                  "internalType": "address",
                  "name": "tokenIn",
                  "type": "address"
                },
                {
                  "internalType": "uint256",
                  "name": "netTokenIn",
                  "type": "uint256"
                },
                {
                  "internalType": "address",
                  "name": "tokenMintSy",
                  "type": "address"
                },
                {
                  "internalType": "address",
                  "name": "bulk",
                  "type": "address"
                },
                {
                  "internalType": "address",
                  "name": "pendleSwap",
                  "type": "address"
                },
                {
                  "components": [
                    {
                      "internalType": "enum SwapType",
                      "name": "swapType",
                      "type": "uint8"
                    },
                    {
                      "internalType": "address",
                      "name": "extRouter",
                      "type": "address"
                    },
                    {
                      "internalType": "bytes",
                      "name": "extCalldata",
                      "type": "bytes"
                    },
                    {
                      "internalType": "bool",
                      "name": "needScale",
                      "type": "bool"
                    }
                  ],
                  "internalType": "struct SwapData",
                  "name": "swapData",
                  "type": "tuple"
                }
              ],
              "internalType": "struct IPendleRouter.TokenInput",
              "name": "pendleInput",
              "type": "tuple"
            }
          ],
          "internalType": "struct BasePortfolio.DepositData",
          "name": "depositData",
          "type": "tuple"
        }
      ],
      "name": "deposit",
      "outputs": [],
      "stateMutability": "nonpayable",
      "type": "function"
    },
    {
      "inputs": [
        {
          "internalType": "address payable",
          "name": "owner",
          "type": "address"
        }
      ],
      "name": "getClaimableRewards",
      "outputs": [
        {
          "components": [
            {
              "internalType": "string",
              "name": "protocol",
              "type": "string"
            },
            {
              "components": [
                {
                  "internalType": "address",
                  "name": "token",
                  "type": "address"
                },
                {
                  "internalType": "uint256",
                  "name": "amount",
                  "type": "uint256"
                }
              ],
              "internalType": "struct IFeeDistribution.RewardData[]",
              "name": "claimableRewards",
              "type": "tuple[]"
            }
          ],
          "internalType": "struct BasePortfolio.ClaimableRewardOfAProtocol[]",
          "name": "",
          "type": "tuple[]"
        }
      ],
      "stateMutability": "view",
      "type": "function"
    },
    {
      "inputs": [],
      "name": "getPortfolioAllocation",
      "outputs": [
        {
          "internalType": "string[]",
          "name": "",
          "type": "string[]"
        },
        {
          "internalType": "uint256[]",
          "name": "",
          "type": "uint256[]"
        }
      ],
      "stateMutability": "view",
      "type": "function"
    },
    {
      "inputs": [],
      "name": "getVaults",
      "outputs": [
        {
          "internalType": "contract AbstractVault[]",
          "name": "",
          "type": "address[]"
        }
      ],
      "stateMutability": "view",
      "type": "function"
    },
    {
      "inputs": [
        {
          "internalType": "address",
          "name": "spender",
          "type": "address"
        },
        {
          "internalType": "uint256",
          "name": "addedValue",
          "type": "uint256"
        }
      ],
      "name": "increaseAllowance",
      "outputs": [
        {
          "internalType": "bool",
          "name": "",
          "type": "bool"
        }
      ],
      "stateMutability": "nonpayable",
      "type": "function"
    },
    {
      "inputs": [],
      "name": "name",
      "outputs": [
        {
          "internalType": "string",
          "name": "",
          "type": "string"
        }
      ],
      "stateMutability": "view",
      "type": "function"
    },
    {
      "inputs": [],
      "name": "owner",
      "outputs": [
        {
          "internalType": "address",
          "name": "",
          "type": "address"
        }
      ],
      "stateMutability": "view",
      "type": "function"
    },
    {
      "inputs": [],
      "name": "paused",
      "outputs": [
        {
          "internalType": "bool",
          "name": "",
          "type": "bool"
        }
      ],
      "stateMutability": "view",
      "type": "function"
    },
    {
      "inputs": [
        {
          "internalType": "string",
          "name": "",
          "type": "string"
        }
      ],
      "name": "portfolioAllocation",
      "outputs": [
        {
          "internalType": "uint256",
          "name": "",
          "type": "uint256"
        }
      ],
      "stateMutability": "view",
      "type": "function"
    },
    {
      "inputs": [
        {
          "internalType": "uint256",
          "name": "shares",
          "type": "uint256"
        },
        {
          "internalType": "address payable",
          "name": "receiver",
          "type": "address"
        }
      ],
      "name": "redeem",
      "outputs": [],
      "stateMutability": "nonpayable",
      "type": "function"
    },
    {
      "inputs": [],
      "name": "renounceOwnership",
      "outputs": [],
      "stateMutability": "nonpayable",
      "type": "function"
    },
    {
      "inputs": [
        {
          "internalType": "uint256",
          "name": "amount",
          "type": "uint256"
        }
      ],
      "name": "rescueETH",
      "outputs": [],
      "stateMutability": "nonpayable",
      "type": "function"
    },
    {
      "inputs": [
        {
          "internalType": "address",
          "name": "tokenAddress",
          "type": "address"
        },
        {
          "internalType": "uint256",
          "name": "amount",
          "type": "uint256"
        }
      ],
      "name": "rescueFunds",
      "outputs": [],
      "stateMutability": "nonpayable",
      "type": "function"
    },
    {
      "inputs": [
        {
          "internalType": "address payable",
          "name": "destination",
          "type": "address"
        },
        {
          "internalType": "uint256",
          "name": "amount",
          "type": "uint256"
        },
        {
          "internalType": "bytes",
          "name": "hexData",
          "type": "bytes"
        }
      ],
      "name": "rescueFundsWithHexData",
      "outputs": [],
      "stateMutability": "nonpayable",
      "type": "function"
    },
    {
      "inputs": [
        {
          "internalType": "string",
          "name": "",
          "type": "string"
        },
        {
          "internalType": "address",
          "name": "",
          "type": "address"
        }
      ],
      "name": "rewardPerShareZappedIn",
      "outputs": [
        {
          "internalType": "uint256",
          "name": "",
          "type": "uint256"
        }
      ],
      "stateMutability": "view",
      "type": "function"
    },
    {
      "inputs": [
        {
          "components": [
            {
              "internalType": "string",
              "name": "protocol",
              "type": "string"
            },
            {
              "internalType": "uint256",
              "name": "percentage",
              "type": "uint256"
            }
          ],
          "internalType": "struct BasePortfolio.PortfolioAllocationOfSingleCategory[]",
          "name": "portfolioAllocation_",
          "type": "tuple[]"
        }
      ],
      "name": "setVaultAllocations",
      "outputs": [],
      "stateMutability": "nonpayable",
      "type": "function"
    },
    {
      "inputs": [],
      "name": "symbol",
      "outputs": [
        {
          "internalType": "string",
          "name": "",
          "type": "string"
        }
      ],
      "stateMutability": "view",
      "type": "function"
    },
    {
      "inputs": [],
      "name": "totalAssets",
      "outputs": [
        {
          "components": [
            {
              "internalType": "string",
              "name": "vaultName",
              "type": "string"
            },
            {
              "internalType": "uint256",
              "name": "assets",
              "type": "uint256"
            }
          ],
          "internalType": "struct BasePortfolio.SharesOfVault[]",
          "name": "",
          "type": "tuple[]"
        }
      ],
      "stateMutability": "view",
      "type": "function"
    },
    {
      "inputs": [],
      "name": "totalSupply",
      "outputs": [
        {
          "internalType": "uint256",
          "name": "",
          "type": "uint256"
        }
      ],
      "stateMutability": "view",
      "type": "function"
    },
    {
      "inputs": [
        {
          "internalType": "address",
          "name": "to",
          "type": "address"
        },
        {
          "internalType": "uint256",
          "name": "amount",
          "type": "uint256"
        }
      ],
      "name": "transfer",
      "outputs": [
        {
          "internalType": "bool",
          "name": "",
          "type": "bool"
        }
      ],
      "stateMutability": "nonpayable",
      "type": "function"
    },
    {
      "inputs": [
        {
          "internalType": "address",
          "name": "from",
          "type": "address"
        },
        {
          "internalType": "address",
          "name": "to",
          "type": "address"
        },
        {
          "internalType": "uint256",
          "name": "amount",
          "type": "uint256"
        }
      ],
      "name": "transferFrom",
      "outputs": [
        {
          "internalType": "bool",
          "name": "",
          "type": "bool"
        }
      ],
      "stateMutability": "nonpayable",
      "type": "function"
    },
    {
      "inputs": [
        {
          "internalType": "address",
          "name": "newOwner",
          "type": "address"
        }
      ],
      "name": "transferOwnership",
      "outputs": [],
      "stateMutability": "nonpayable",
      "type": "function"
    },
    {
      "inputs": [
        {
          "internalType": "address",
          "name": "",
          "type": "address"
        },
        {
          "internalType": "string",
          "name": "",
          "type": "string"
        },
        {
          "internalType": "address",
          "name": "",
          "type": "address"
        }
      ],
      "name": "userRewardPerTokenPaid",
      "outputs": [
        {
          "internalType": "uint256",
          "name": "",
          "type": "uint256"
        }
      ],
      "stateMutability": "view",
      "type": "function"
    },
    {
      "inputs": [
        {
          "internalType": "address",
          "name": "",
          "type": "address"
        },
        {
          "internalType": "string",
          "name": "",
          "type": "string"
        },
        {
          "internalType": "address",
          "name": "",
          "type": "address"
        }
      ],
      "name": "userRewardsOfInvestedProtocols",
      "outputs": [
        {
          "internalType": "uint256",
          "name": "",
          "type": "uint256"
        }
      ],
      "stateMutability": "view",
      "type": "function"
    },
    {
      "stateMutability": "payable",
      "type": "receive"
    }
  ],
  "bytecode": "0x60a06040523480156200001157600080fd5b5060405162004b2638038062004b2683398101604081905262000034916200050e565b888888818160036200004783826200068f565b5060046200005682826200068f565b505050620000736200006d6200034760201b60201c565b6200034b565b505060016006556007805460ff191690556001600160a01b039081166080528616620000f15760405162461bcd60e51b815260206004820152602260248201527f657175696c69627269615661756c74416464722063616e6e6f74206265207a65604482015261726f60f01b60648201526084015b60405180910390fd5b6001600160a01b038516620001585760405162461bcd60e51b815260206004820152602660248201527f657175696c6962726961474441495661756c74416464722063616e6e6f74206260448201526565207a65726f60d01b6064820152608401620000e8565b6001600160a01b038416620001bf5760405162461bcd60e51b815260206004820152602660248201527f657175696c6962726961524554485661756c74416464722063616e6e6f74206260448201526565207a65726f60d01b6064820152608401620000e8565b6001600160a01b038316620002255760405162461bcd60e51b815260206004820152602560248201527f6d61676963417262697472756d5661756c74416464722063616e6e6f74206265604482015264207a65726f60d81b6064820152608401620000e8565b6001600160a01b0382166200028e5760405162461bcd60e51b815260206004820152602860248201527f657175696c696272696150656e646c655661756c74416464722063616e6e6f74604482015267206265207a65726f60c01b6064820152608401620000e8565b6001600160a01b038116620002e65760405162461bcd60e51b815260206004820152601f60248201527f72616469616e745661756c74416464722063616e6e6f74206265207a65726f006044820152606401620000e8565b6040805160c0810182526001600160a01b0380891682528781166020830152868116928201929092528382166060820152848216608082015290821660a08201526200033790600a9060066200039d565b505050505050505050506200075b565b3390565b600580546001600160a01b038381166001600160a01b0319831681179093556040519116919082907f8be0079c531659141344cd1fd0a4f28419497f9722a3daafe3b4186f6b6457e090600090a35050565b828054828255906000526020600020908101928215620003f5579160200282015b82811115620003f557825182546001600160a01b0319166001600160a01b03909116178255602090920191600190910190620003be565b506200040392915062000407565b5090565b5b8082111562000403576000815560010162000408565b6001600160a01b03811681146200043457600080fd5b50565b805162000444816200041e565b919050565b634e487b7160e01b600052604160045260246000fd5b600082601f8301126200047157600080fd5b81516001600160401b03808211156200048e576200048e62000449565b604051601f8301601f19908116603f01168101908282118183101715620004b957620004b962000449565b81604052838152602092508683858801011115620004d657600080fd5b600091505b83821015620004fa5785820183015181830184015290820190620004db565b600093810190920192909252949350505050565b60008060008060008060008060006101208a8c0312156200052e57600080fd5b89516200053b816200041e565b60208b01519099506001600160401b03808211156200055957600080fd5b620005678d838e016200045f565b995060408c01519150808211156200057e57600080fd5b506200058d8c828d016200045f565b97505060608a0151620005a0816200041e565b9550620005b060808b0162000437565b9450620005c060a08b0162000437565b9350620005d060c08b0162000437565b9250620005e060e08b0162000437565b9150620005f16101008b0162000437565b90509295985092959850929598565b600181811c908216806200061557607f821691505b6020821081036200063657634e487b7160e01b600052602260045260246000fd5b50919050565b601f8211156200068a57600081815260208120601f850160051c81016020861015620006655750805b601f850160051c820191505b81811015620006865782815560010162000671565b5050505b505050565b81516001600160401b03811115620006ab57620006ab62000449565b620006c381620006bc845462000600565b846200063c565b602080601f831160018114620006fb5760008415620006e25750858301515b600019600386901b1c1916600185901b17855562000686565b600085815260208120601f198616915b828110156200072c578886015182559484019460019091019084016200070b565b50858210156200074b5787850151600019600388901b60f8161c191681555b5050505050600190811b01905550565b60805161438c6200079a600039600081816103a7015281816110a6015281816111c20152818161128b015281816112dc0152612361015261438c6000f3fe6080604052600436106101fd5760003560e01c80636e3cfcc01161010d578063a457c2d7116100a0578063ae4ce8fe1161006f578063ae4ce8fe14610634578063ae980ae514610683578063dd62ed3e146106bb578063e4c7238b146106db578063f2fde38b146106fb57600080fd5b8063a457c2d7146105c4578063a9059cbb146105e4578063aaf4a96614610604578063acb05f481461061957600080fd5b80637bde82f2116100dc5780637bde82f2146105515780638da5cb5b1461057157806395d89b411461058f5780639e252f00146105a457600080fd5b80636e3cfcc0146104c357806370a08231146104e6578063715018a61461051c57806378e3214f1461053157600080fd5b8063313ce5671161019057806344d00f821161015f57806344d00f821461040157806358b934ae146104235780635c975abb146104435780636106139c1461045b57806361bde6b21461047b57600080fd5b8063313ce5671461032a578063327540f71461034657806338d52e0f1461039557806339509351146103e157600080fd5b80631e83409a116101cc5780631e83409a146102a557806323b872dd146102c75780632ea5027d146102e7578063308e401e146102fd57600080fd5b806301e1d1141461020957806306fdde0314610234578063095ea7b31461025657806318160ddd1461028657600080fd5b3661020457005b600080fd5b34801561021557600080fd5b5061021e61071b565b60405161022b9190613674565b60405180910390f35b34801561024057600080fd5b506102496108f5565b60405161022b91906136ea565b34801561026257600080fd5b50610276610271366004613712565b610987565b604051901515815260200161022b565b34801561029257600080fd5b506002545b60405190815260200161022b565b3480156102b157600080fd5b506102c56102c036600461373e565b6109a1565b005b3480156102d357600080fd5b506102766102e236600461375b565b6109c7565b3480156102f357600080fd5b5061029760085481565b34801561030957600080fd5b5061031d61031836600461373e565b6109ed565b60405161022b919061379c565b34801561033657600080fd5b506040516012815260200161022b565b34801561035257600080fd5b5061029761036136600461394d565b600b602090815260009384526040808520845180860184018051928152908401958401959095209452929052825290205481565b3480156103a157600080fd5b506103c97f000000000000000000000000000000000000000000000000000000000000000081565b6040516001600160a01b03909116815260200161022b565b3480156103ed57600080fd5b506102766103fc366004613712565b610cd3565b34801561040d57600080fd5b50610416610cf5565b60405161022b91906139b0565b34801561042f57600080fd5b506102c561043e3660046139fd565b610d56565b34801561044f57600080fd5b5060075460ff16610276565b34801561046757600080fd5b506102c5610476366004613a69565b610eab565b34801561048757600080fd5b50610297610496366004613aa4565b8151602081840181018051600d825292820194820194909420919093529091526000908152604090205481565b3480156104cf57600080fd5b506104d8611b3d565b60405161022b929190613af5565b3480156104f257600080fd5b5061029761050136600461373e565b6001600160a01b031660009081526020819052604090205490565b34801561052857600080fd5b506102c5611cee565b34801561053d57600080fd5b506102c561054c366004613712565b611d02565b34801561055d57600080fd5b506102c561056c366004613b90565b611d74565b34801561057d57600080fd5b506005546001600160a01b03166103c9565b34801561059b57600080fd5b5061024961226f565b3480156105b057600080fd5b506102c56105bf366004613bb5565b61227e565b3480156105d057600080fd5b506102766105df366004613712565b6122c0565b3480156105f057600080fd5b506102766105ff366004613712565b612346565b34801561061057600080fd5b506102c5612354565b34801561062557600080fd5b50610297662386f26fc1000081565b34801561064057600080fd5b5061029761064f36600461394d565b600c602090815260009384526040808520845180860184018051928152908401958401959095209452929052825290205481565b34801561068f57600080fd5b5061029761069e366004613bce565b805160208183018101805160098252928201919093012091525481565b3480156106c757600080fd5b506102976106d6366004613c02565b612389565b3480156106e757600080fd5b506102c56106f6366004613c30565b6123b4565b34801561070757600080fd5b506102c561071636600461373e565b61244f565b600a546060906000906001600160401b0381111561073b5761073b613859565b60405190808252806020026020018201604052801561078157816020015b6040805180820190915260608152600060208201528152602001906001900390816107595790505b50905060005b600a548110156108ef57600a81815481106107a4576107a4613ca4565b6000918252602082200154604080516306fdde0360e01b815290516001600160a01b03909216926306fdde03926004808401938290030181865afa1580156107f0573d6000803e3d6000fd5b505050506040513d6000823e601f3d908101601f191682016040526108189190810190613cba565b82828151811061082a5761082a613ca4565b602002602001015160000181905250600a818154811061084c5761084c613ca4565b60009182526020918290200154604080516278744560e21b815290516001600160a01b03909216926301e1d114926004808401938290030181865afa158015610899573d6000803e3d6000fd5b505050506040513d601f19601f820116820180604052508101906108bd9190613d3b565b8282815181106108cf576108cf613ca4565b6020908102919091018101510152806108e781613d6a565b915050610787565b50919050565b60606003805461090490613d83565b80601f016020809104026020016040519081016040528092919081815260200182805461093090613d83565b801561097d5780601f106109525761010080835404028352916020019161097d565b820191906000526020600020905b81548152906001019060200180831161096057829003601f168201915b5050505050905090565b6000336109958185856124c5565b60019150505b92915050565b6109a96125e9565b6109b161262f565b6109ba81612688565b6109c46001600655565b50565b6000336109d585828561297a565b6109e08585856129ee565b60019150505b9392505050565b600a546060906000906001600160401b03811115610a0d57610a0d613859565b604051908082528060200260200182016040528015610a5257816020015b6040805180820190915260608082526020820152815260200190600190039081610a2b5790505b50905060005b600a54811015610ccc576000600a8281548110610a7757610a77613ca4565b6000918252602082200154604080516306fdde0360e01b815290516001600160a01b03909216926306fdde03926004808401938290030181865afa158015610ac3573d6000803e3d6000fd5b505050506040513d6000823e601f3d908101601f19168201604052610aeb9190810190613cba565b90506000600a8381548110610b0257610b02613ca4565b6000918252602082200154604080516001620f9a1d60e11b0319815290516001600160a01b039092169263ffe0cbc6926004808401938290030181865afa158015610b51573d6000803e3d6000fd5b505050506040513d6000823e601f3d908101601f19168201604052610b799190810190613db7565b9050600081516001600160401b03811115610b9657610b96613859565b604051908082528060200260200182016040528015610bdb57816020015b6040805180820190915260008082526020820152815260200190600190039081610bb45790505b50905060005b8251811015610c83576000838281518110610bfe57610bfe613ca4565b60200260200101516000015190506040518060400160405280826001600160a01b03168152602001610c4f8b878681518110610c3c57610c3c613ca4565b6020026020010151602001518986612b80565b815250838381518110610c6457610c64613ca4565b6020026020010181905250508080610c7b90613d6a565b915050610be1565b50604051806040016040528084815260200182815250858581518110610cab57610cab613ca4565b60200260200101819052505050508080610cc490613d6a565b915050610a58565b5092915050565b600033610995818585610ce68383612389565b610cf09190613e90565b6124c5565b6060600a80548060200260200160405190810160405280929190818152602001828054801561097d57602002820191906000526020600020905b81546001600160a01b03168152600190910190602001808311610d2f575050505050905090565b610d5e612cb5565b6001600160a01b038316610db95760405162461bcd60e51b815260206004820152601b60248201527f496e76616c69642064657374696e6174696f6e2061646472657373000000000060448201526064015b60405180910390fd5b81471015610e005760405162461bcd60e51b8152602060048201526014602482015273496e73756666696369656e742062616c616e636560601b6044820152606401610db0565b6000836001600160a01b03168383604051610e1b9190613ea3565b60006040518083038185875af1925050503d8060008114610e58576040519150601f19603f3d011682016040523d82523d6000602084013e610e5d565b606091505b5050905080610ea55760405162461bcd60e51b8152602060048201526014602482015273119d5b99081d1c985b9cd9995c8819985a5b195960621b6044820152606401610db0565b50505050565b6000610eb6306109ed565b905060005b815181101561105057600a8181548110610ed757610ed7613ca4565b600091825260208220015460408051634e71d92d60e01b815290516001600160a01b0390921692634e71d92d9260048084019382900301818387803b158015610f1f57600080fd5b505af1925050508015610f30575060015b610fa457610f3c613ebf565b806308c379a003610f985750610f50613edb565b80610f5b5750610f9a565b7f3fbb0b019262e61f3fe8822e65feede48b2eeca90914ea7405e2f75fdfab232781604051610f8a91906136ea565b60405180910390a15061103e565b505b3d6000803e3d6000fd5b60005b828281518110610fb957610fb9613ca4565b6020026020010151602001515181101561103c5761102a838381518110610fe257610fe2613ca4565b60200260200101516000015184848151811061100057611000613ca4565b602002602001015160200151838151811061101d5761101d613ca4565b6020026020010151612d0f565b8061103481613d6a565b915050610fa7565b505b8061104881613d6a565b915050610ebb565b506110596125e9565b61106161262f565b81356110a15760405162461bcd60e51b815260206004820152600f60248201526e0616d6f756e74206d757374203e203608c1b6044820152606401610db0565b6110ce7f000000000000000000000000000000000000000000000000000000000000000033308535612e73565b60006110da8335612ede565b905060005b600a54811015611a71576000600a82815481106110fe576110fe613ca4565b6000918252602082200154604080516306fdde0360e01b815290516001600160a01b03909216926306fdde03926004808401938290030181865afa15801561114a573d6000803e3d6000fd5b505050506040513d6000823e601f3d908101601f191682016040526111729190810190613cba565b905060008180519060200120905060006111ac856009856040516111969190613ea3565b9081526020016040518091039020546064612f13565b9050806000036111be57505050611a5f565b60007f00000000000000000000000000000000000000000000000000000000000000006001600160a01b031663dd62ed3e30600a888154811061120357611203613ca4565b60009182526020909120015460405160e084901b6001600160e01b03191681526001600160a01b03928316600482015291166024820152604401602060405180830381865afa15801561125a573d6000803e3d6000fd5b505050506040513d601f19601f8201168201806040525081019061127e9190613d3b565b905080156112d7576112d77f0000000000000000000000000000000000000000000000000000000000000000600a87815481106112bd576112bd613ca4565b60009182526020822001546001600160a01b031690612ffd565b6113297f0000000000000000000000000000000000000000000000000000000000000000600a878154811061130e5761130e613ca4565b6000918252602090912001546001600160a01b031684612ffd565b6040805180820190915260128152710a6eae6d0d2a6eec2e05a9ac2ced2c68aa8960731b6020909101527fc813a9f939bb34a126e0640d07bd3c3241d8e110b00badf8397c0c798a9f41fe830161146b576000600a868154811061138f5761138f613ca4565b6000918252602090912001546001600160a01b0316635d303519846113b86103208d018d613f64565b6040518463ffffffff1660e01b81526004016113d693929190613fda565b6020604051808303816000875af11580156113f5573d6000803e3d6000fd5b505050506040513d601f19601f820116820180604052508101906114199190613d3b565b116114665760405162461bcd60e51b815260206004820152601f60248201527f427579696e67204d61676963455448204c5020746f6b656e206661696c6564006044820152606401610db0565b611a5a565b604080518082019091526013815272052616469616e74417262697472756d2d444c5606c1b6020909101527fe7b2692b168ac19ff353e380b4ae97d4ce2c06339f6785140955f4e0d0b219238301611597576000600a86815481106114d2576114d2613ca4565b60009182526020909120015460405163b6b55f2560e01b8152600481018590526001600160a01b039091169063b6b55f25906024016020604051808303816000875af1158015611526573d6000803e3d6000fd5b505050506040513d601f19601f8201168201806040525081019061154a9190613d3b565b116114665760405162461bcd60e51b815260206004820152601e60248201527f427579696e672052616469616e74204c5020746f6b656e206661696c656400006044820152606401610db0565b60408051808201909152600e81526d0457175696c69627269612d474c560941b6020909101527f1282987e919de6c5cddceff157e5b32a19bc6d08925e7aafe0b887ce3fae135083016116da576000600a86815481106115f9576115f9613ca4565b6000918252602090912001546001600160a01b031663de6a89848460408c013560608d0161162b6101008f018f613ffd565b6040518563ffffffff1660e01b815260040161164a949392919061416c565b6020604051808303816000875af1158015611669573d6000803e3d6000fd5b505050506040513d601f19601f8201168201806040525081019061168d9190613d3b565b116114665760405162461bcd60e51b815260206004820152601e60248201527f5a617020496e746f20457175696c696272696120474c50206661696c656400006044820152606401610db0565b604080518082019091526011815270457175696c69627269612d50454e444c4560781b6020909101527fd971b1defb8e24b6eefb3d2f84c7504d3f8b9e23a9157d66e8f4068f65ba5e648301611773576000600a868154811061173f5761173f613ca4565b6000918252602090912001546001600160a01b031663de6a8984846103408c01356103608d0161162b6104008f018f613ffd565b60408051808201909152600f81526e457175696c69627269612d4744414960881b6020909101527fa6b7188487a6560773a13e05aa0dd9e493bc974fc59a7835c35354cd8bbf4dbe83016118cb576000600a86815481106117d6576117d6613ca4565b6000918252602090912001546001600160a01b031662dec019846117fe6102008d018d613f64565b8d61012001358e610140018f806101e0019061181a9190613ffd565b6040518763ffffffff1660e01b815260040161183b969594939291906141c4565b6020604051808303816000875af115801561185a573d6000803e3d6000fd5b505050506040513d601f19601f8201168201806040525081019061187e9190613d3b565b116114665760405162461bcd60e51b815260206004820152601f60248201527f5a617020496e746f20457175696c69627269612047444149206661696c6564006044820152606401610db0565b60408051808201909152600f81526e08ae2ead2d8d2c4e4d2c25aa48aa89608b1b6020909101527fb3494e840e5f90e55337bab7b306e3e38fe7f37636fe732e7109e42957ab5da48301611a23576000600a868154811061192e5761192e613ca4565b6000918252602090912001546001600160a01b031662dec019846119566103008d018d613f64565b8d61022001358e610240018f806102e001906119729190613ffd565b6040518763ffffffff1660e01b8152600401611993969594939291906141c4565b6020604051808303816000875af11580156119b2573d6000803e3d6000fd5b505050506040513d601f19601f820116820180604052508101906119d69190613d3b565b116114665760405162461bcd60e51b815260206004820152601f60248201527f5a617020496e746f20457175696c69627269612052455448206661696c6564006044820152606401610db0565b83604051602001611a34919061423f565b60408051601f198184030181529082905262461bcd60e51b8252610db0916004016136ea565b505050505b80611a6981613d6a565b9150506110df565b506000611a8582662386f26fc10000613112565b905060008111611ac95760405162461bcd60e51b815260206004820152600f60248201526e0536861726573206d757374203e203608c1b6044820152606401610db0565b611ae2611adc604086016020870161373e565b8261311e565b611af2604085016020860161373e565b6001600160a01b031660006001600160a01b031660008051602061433783398151915283604051611b2591815260200190565b60405180910390a35050611b396001600655565b5050565b6060806000600a805490506001600160401b03811115611b5f57611b5f613859565b604051908082528060200260200182016040528015611b9257816020015b6060815260200190600190039081611b7d5790505b50600a549091506000906001600160401b03811115611bb357611bb3613859565b604051908082528060200260200182016040528015611bdc578160200160208202803683370190505b50905060005b600a54811015611ce4576000600a8281548110611c0157611c01613ca4565b6000918252602082200154604080516306fdde0360e01b815290516001600160a01b03909216926306fdde03926004808401938290030181865afa158015611c4d573d6000803e3d6000fd5b505050506040513d6000823e601f3d908101601f19168201604052611c759190810190613cba565b905080848381518110611c8a57611c8a613ca4565b6020026020010181905250600981604051611ca59190613ea3565b908152602001604051809103902054838381518110611cc657611cc6613ca4565b60209081029190910101525080611cdc81613d6a565b915050611be2565b5090939092509050565b611cf6612cb5565b611d0060006131cb565b565b611d0a612cb5565b6001600160a01b038216611d585760405162461bcd60e51b8152602060048201526015602482015274496e76616c696420746f6b656e206164647265737360581b6044820152606401610db0565b611b3982611d6e6005546001600160a01b031690565b8361321d565b6000611d7f306109ed565b905060005b8151811015611ec557600a8181548110611da057611da0613ca4565b600091825260208220015460408051634e71d92d60e01b815290516001600160a01b0390921692634e71d92d9260048084019382900301818387803b158015611de857600080fd5b505af1925050508015611df9575060015b611e6157611e05613ebf565b806308c379a003610f985750611e19613edb565b80611e245750610f9a565b7f3fbb0b019262e61f3fe8822e65feede48b2eeca90914ea7405e2f75fdfab232781604051611e5391906136ea565b60405180910390a150611eb3565b60005b828281518110611e7657611e76613ca4565b60200260200101516020015151811015611eb157611e9f838381518110610fe257610fe2613ca4565b80611ea981613d6a565b915050611e64565b505b80611ebd81613d6a565b915050611d84565b50611ece6125e9565b611ed661262f565b600254831115611f285760405162461bcd60e51b815260206004820152601a60248201527f5368617265732065786365656420746f74616c20737570706c790000000000006044820152606401610db0565b60005b600a54811015612255576000611fd1600a8381548110611f4d57611f4d613ca4565b6000918252602090912001546040516370a0823160e01b81523060048201526001600160a01b03909116906370a0823190602401602060405180830381865afa158015611f9e573d6000803e3d6000fd5b505050506040513d601f19601f82011682018060405250810190611fc29190613d3b565b86611fcc60025490565b612f13565b90506000600a8381548110611fe857611fe8613ca4565b6000918252602082200154604080516306fdde0360e01b815290516001600160a01b03909216926306fdde03926004808401938290030181865afa158015612034573d6000803e3d6000fd5b505050506040513d6000823e601f3d908101601f1916820160405261205c9190810190613cba565b80516020909101209050811561224057604080518082019091526013815272052616469616e74417262697472756d2d444c5606c1b6020909101527fe7b2692b168ac19ff353e380b4ae97d4ce2c06339f6785140955f4e0d0b21923810161213657600a83815481106120d1576120d1613ca4565b600091825260208220015460408051630be040fb60e41b815290516001600160a01b039092169263be040fb09260048084019382900301818387803b15801561211957600080fd5b505af115801561212d573d6000803e3d6000fd5b505050506121b1565b600a838154811061214957612149613ca4565b60009182526020909120015460405163db006a7560e01b8152600481018490526001600160a01b039091169063db006a7590602401600060405180830381600087803b15801561219857600080fd5b505af11580156121ac573d6000803e3d6000fd5b505050505b612240600a84815481106121c7576121c7613ca4565b60009182526020918290200154604080516338d52e0f60e01b815290516001600160a01b03909216926338d52e0f926004808401938290030181865afa158015612215573d6000803e3d6000fd5b505050506040513d601f19601f820116820180604052508101906122399190614274565b868461321d565b5050808061224d90613d6a565b915050611f2b565b50612260338461324d565b61226a6001600655565b505050565b60606004805461090490613d83565b612286612cb5565b6005546040516001600160a01b039091169082156108fc029083906000818181858888f19350505050158015611b39573d6000803e3d6000fd5b600033816122ce8286612389565b90508381101561232e5760405162461bcd60e51b815260206004820152602560248201527f45524332303a2064656372656173656420616c6c6f77616e63652062656c6f77604482015264207a65726f60d81b6064820152608401610db0565b61233b82868684036124c5565b506001949350505050565b6000336109958185856129ee565b61235c612cb5565b611d007f00000000000000000000000000000000000000000000000000000000000000003360085461321d565b6001600160a01b03918216600090815260016020908152604080832093909416825291909152205490565b6123bc612cb5565b60005b8181101561226a578282828181106123d9576123d9613ca4565b90506020028101906123eb9190614291565b60200135600984848481811061240357612403613ca4565b90506020028101906124159190614291565b61241f9080613f64565b60405161242d9291906142a7565b908152604051908190036020019020558061244781613d6a565b9150506123bf565b612457612cb5565b6001600160a01b0381166124bc5760405162461bcd60e51b815260206004820152602660248201527f4f776e61626c653a206e6577206f776e657220697320746865207a65726f206160448201526564647265737360d01b6064820152608401610db0565b6109c4816131cb565b6001600160a01b0383166125275760405162461bcd60e51b8152602060048201526024808201527f45524332303a20617070726f76652066726f6d20746865207a65726f206164646044820152637265737360e01b6064820152608401610db0565b6001600160a01b0382166125885760405162461bcd60e51b815260206004820152602260248201527f45524332303a20617070726f766520746f20746865207a65726f206164647265604482015261737360f01b6064820152608401610db0565b6001600160a01b0383811660008181526001602090815260408083209487168084529482529182902085905590518481527f8c5be1e5ebec7d5bd14f71427d1e84f3dd0314c0f7b2291e5b200ac8c7c3b925910160405180910390a3505050565b60075460ff1615611d005760405162461bcd60e51b815260206004820152601060248201526f14185d5cd8589b194e881c185d5cd95960821b6044820152606401610db0565b6002600654036126815760405162461bcd60e51b815260206004820152601f60248201527f5265656e7472616e637947756172643a207265656e7472616e742063616c6c006044820152606401610db0565b6002600655565b6126906125e9565b600061269b306109ed565b905060005b81518110156127e157600a81815481106126bc576126bc613ca4565b600091825260208220015460408051634e71d92d60e01b815290516001600160a01b0390921692634e71d92d9260048084019382900301818387803b15801561270457600080fd5b505af1925050508015612715575060015b61277d57612721613ebf565b806308c379a003610f985750612735613edb565b806127405750610f9a565b7f3fbb0b019262e61f3fe8822e65feede48b2eeca90914ea7405e2f75fdfab23278160405161276f91906136ea565b60405180910390a1506127cf565b60005b82828151811061279257612792613ca4565b602002602001015160200151518110156127cd576127bb838381518110610fe257610fe2613ca4565b806127c581613d6a565b915050612780565b505b806127d981613d6a565b9150506126a0565b5060006127ed336109ed565b3360009081526020819052604081205491925081900361280d5750505050565b60005b825181101561297357600083828151811061282d5761282d613ca4565b602002602001015160000151905060005b84838151811061285057612850613ca4565b6020026020010151602001515181101561295e57600085848151811061287857612878613ca4565b602002602001015160200151828151811061289557612895613ca4565b60200260200101516000015190506129058189600b6000336001600160a01b03166001600160a01b03168152602001908152602001600020866040516128db9190613ea3565b90815260408051602092819003830190206001600160a01b0387166000908152925290205461321d565b336000908152600b60205260408082209051612922908690613ea3565b90815260408051602092819003830190206001600160a01b0394909416600090815293909152909120558061295681613d6a565b91505061283e565b5050808061296b90613d6a565b915050612810565b5050505050565b60006129868484612389565b90506000198114610ea557818110156129e15760405162461bcd60e51b815260206004820152601d60248201527f45524332303a20696e73756666696369656e7420616c6c6f77616e63650000006044820152606401610db0565b610ea584848484036124c5565b6001600160a01b038316612a525760405162461bcd60e51b815260206004820152602560248201527f45524332303a207472616e736665722066726f6d20746865207a65726f206164604482015264647265737360d81b6064820152608401610db0565b6001600160a01b038216612ab45760405162461bcd60e51b815260206004820152602360248201527f45524332303a207472616e7366657220746f20746865207a65726f206164647260448201526265737360e81b6064820152608401610db0565b6001600160a01b03831660009081526020819052604090205481811015612b2c5760405162461bcd60e51b815260206004820152602660248201527f45524332303a207472616e7366657220616d6f756e7420657863656564732062604482015265616c616e636560d01b6064820152608401610db0565b6001600160a01b0384811660008181526020818152604080832087870390559387168083529184902080548701905592518581529092600080516020614337833981519152910160405180910390a3610ea5565b600080306001600160a01b03871603612b9a575083612caa565b6001600160a01b0386166000908152600b6020526040908190209051612bc1908690613ea3565b90815260408051602092819003830181206001600160a01b03878116600090815291855283822054908b168252600c9094529190912090612c03908790613ea3565b90815260408051602092819003830190206001600160a01b03871660009081529252902054612c318761336d565b600d87604051612c419190613ea3565b90815260408051602092819003830190206001600160a01b03891660009081529252902054612c709190613e90565b612c7a91906142b7565b6001600160a01b038816600090815260208190526040902054612c9d91906142ca565b612ca79190613e90565b90505b90505b949350505050565b6005546001600160a01b03163314611d005760405162461bcd60e51b815260206004820181905260248201527f4f776e61626c653a2063616c6c6572206973206e6f7420746865206f776e65726044820152606401610db0565b3315611b395780516020820151612d258161336d565b600d85604051612d359190613ea3565b90815260200160405180910390206000846001600160a01b03166001600160a01b031681526020019081526020016000206000828254612d759190613e90565b90915550612d8590508483613399565b336000908152600b6020526040908190209051612da3908790613ea3565b90815260200160405180910390206000846001600160a01b03166001600160a01b031681526020019081526020016000206000828254612de39190613e90565b9091555050604051600d90612df9908690613ea3565b90815260408051602092819003830181206001600160a01b038616600090815290845282812054338252600c9094529190912090612e38908790613ea3565b90815260200160405180910390206000846001600160a01b03166001600160a01b031681526020019081526020016000208190555050505050565b6040516001600160a01b0380851660248301528316604482015260648101829052610ea59085906323b872dd60e01b906084015b60408051601f198184030181529190526020810180516001600160e01b03166001600160e01b03199093169290921790915261342c565b600080612eef8360036103e8612f13565b90508060086000828254612f039190613e90565b909155506109e6905081846142b7565b6000808060001985870985870292508281108382030391505080600003612f4d57838281612f4357612f436142e1565b04925050506109e6565b808411612f945760405162461bcd60e51b81526020600482015260156024820152744d6174683a206d756c446976206f766572666c6f7760581b6044820152606401610db0565b60008486880960026001871981018816978890046003810283188082028403028082028403028082028403028082028403028082028403029081029092039091026000889003889004909101858311909403939093029303949094049190911702949350505050565b8015806130775750604051636eb1769f60e11b81523060048201526001600160a01b03838116602483015284169063dd62ed3e90604401602060405180830381865afa158015613051573d6000803e3d6000fd5b505050506040513d601f19601f820116820180604052508101906130759190613d3b565b155b6130e25760405162461bcd60e51b815260206004820152603660248201527f5361666545524332303a20617070726f76652066726f6d206e6f6e2d7a65726f60448201527520746f206e6f6e2d7a65726f20616c6c6f77616e636560501b6064820152608401610db0565b6040516001600160a01b03831660248201526044810182905261226a90849063095ea7b360e01b90606401612ea7565b60006109e682846142f7565b6001600160a01b0382166131745760405162461bcd60e51b815260206004820152601f60248201527f45524332303a206d696e7420746f20746865207a65726f2061646472657373006044820152606401610db0565b80600260008282546131869190613e90565b90915550506001600160a01b03821660008181526020818152604080832080548601905551848152600080516020614337833981519152910160405180910390a35050565b600580546001600160a01b038381166001600160a01b0319831681179093556040519116919082907f8be0079c531659141344cd1fd0a4f28419497f9722a3daafe3b4186f6b6457e090600090a35050565b6040516001600160a01b03831660248201526044810182905261226a90849063a9059cbb60e01b90606401612ea7565b6001600160a01b0382166132ad5760405162461bcd60e51b815260206004820152602160248201527f45524332303a206275726e2066726f6d20746865207a65726f206164647265736044820152607360f81b6064820152608401610db0565b6001600160a01b038216600090815260208190526040902054818110156133215760405162461bcd60e51b815260206004820152602260248201527f45524332303a206275726e20616d6f756e7420657863656564732062616c616e604482015261636560f01b6064820152608401610db0565b6001600160a01b038316600081815260208181526040808320868603905560028054879003905551858152919291600080516020614337833981519152910160405180910390a3505050565b600061337860025490565b60000361338757506000919050565b61099b8261339460025490565b613112565b3360009081526020818152604080832054600c90925280832090516133bf908690613ea3565b9081526040805191829003602090810183206001600160a01b03871660009081529152205490600d906133f3908790613ea3565b90815260408051602092819003830190206001600160a01b0387166000908152925290205461342291906142b7565b6109e691906142ca565b6000613481826040518060400160405280602081526020017f5361666545524332303a206c6f772d6c6576656c2063616c6c206661696c6564815250856001600160a01b03166135019092919063ffffffff16565b90508051600014806134a25750808060200190518101906134a29190614319565b61226a5760405162461bcd60e51b815260206004820152602a60248201527f5361666545524332303a204552433230206f7065726174696f6e20646964206e6044820152691bdd081cdd58d8d9595960b21b6064820152608401610db0565b6060612cad848460008585600080866001600160a01b031685876040516135289190613ea3565b60006040518083038185875af1925050503d8060008114613565576040519150601f19603f3d011682016040523d82523d6000602084013e61356a565b606091505b509150915061357b87838387613586565b979650505050505050565b606083156135f55782516000036135ee576001600160a01b0385163b6135ee5760405162461bcd60e51b815260206004820152601d60248201527f416464726573733a2063616c6c20746f206e6f6e2d636f6e74726163740000006044820152606401610db0565b5081612cad565b612cad838381511561360a5781518083602001fd5b8060405162461bcd60e51b8152600401610db091906136ea565b60005b8381101561363f578181015183820152602001613627565b50506000910152565b60008151808452613660816020860160208601613624565b601f01601f19169290920160200192915050565b60006020808301818452808551808352604092508286019150828160051b87010184880160005b838110156136dc57888303603f19018552815180518785526136bf88860182613648565b91890151948901949094529487019492509086019060010161369b565b509098975050505050505050565b6020815260006109e66020830184613648565b6001600160a01b03811681146109c457600080fd5b6000806040838503121561372557600080fd5b8235613730816136fd565b946020939093013593505050565b60006020828403121561375057600080fd5b81356109e6816136fd565b60008060006060848603121561377057600080fd5b833561377b816136fd565b9250602084013561378b816136fd565b929592945050506040919091013590565b60006020808301818452808551808352604092508286019150828160051b8701018488016000805b8481101561384a57898403603f19018652825180518886526137e889870182613648565b918a0151868303878c01528051808452908b01928592508b01905b8083101561383557835180516001600160a01b031683528c01518c830152928b019260019290920191908a0190613803565b50978a019795505050918701916001016137c4565b50919998505050505050505050565b634e487b7160e01b600052604160045260246000fd5b604081018181106001600160401b038211171561388e5761388e613859565b60405250565b601f8201601f191681016001600160401b03811182821017156138b9576138b9613859565b6040525050565b60006001600160401b038211156138d9576138d9613859565b50601f01601f191660200190565b60006138f2836138c0565b6040516138ff8282613894565b80925084815285858501111561391457600080fd5b8484602083013760006020868301015250509392505050565b600082601f83011261393e57600080fd5b6109e6838335602085016138e7565b60008060006060848603121561396257600080fd5b833561396d816136fd565b925060208401356001600160401b0381111561398857600080fd5b6139948682870161392d565b92505060408401356139a5816136fd565b809150509250925092565b6020808252825182820181905260009190848201906040850190845b818110156139f15783516001600160a01b0316835292840192918401916001016139cc565b50909695505050505050565b600080600060608486031215613a1257600080fd5b8335613a1d816136fd565b92506020840135915060408401356001600160401b03811115613a3f57600080fd5b8401601f81018613613a5057600080fd5b613a5f868235602084016138e7565b9150509250925092565b600060208284031215613a7b57600080fd5b81356001600160401b03811115613a9157600080fd5b820161042081850312156109e657600080fd5b60008060408385031215613ab757600080fd5b82356001600160401b03811115613acd57600080fd5b613ad98582860161392d565b9250506020830135613aea816136fd565b809150509250929050565b6000604082016040835280855180835260608501915060608160051b8601019250602080880160005b83811015613b4c57605f19888703018552613b3a868351613648565b95509382019390820190600101613b1e565b50508584038187015286518085528782019482019350915060005b82811015613b8357845184529381019392810192600101613b67565b5091979650505050505050565b60008060408385031215613ba357600080fd5b823591506020830135613aea816136fd565b600060208284031215613bc757600080fd5b5035919050565b600060208284031215613be057600080fd5b81356001600160401b03811115613bf657600080fd5b612cad8482850161392d565b60008060408385031215613c1557600080fd5b8235613c20816136fd565b91506020830135613aea816136fd565b60008060208385031215613c4357600080fd5b82356001600160401b0380821115613c5a57600080fd5b818501915085601f830112613c6e57600080fd5b813581811115613c7d57600080fd5b8660208260051b8501011115613c9257600080fd5b60209290920196919550909350505050565b634e487b7160e01b600052603260045260246000fd5b600060208284031215613ccc57600080fd5b81516001600160401b03811115613ce257600080fd5b8201601f81018413613cf357600080fd5b8051613cfe816138c0565b604051613d0b8282613894565b828152866020848601011115613d2057600080fd5b613d31836020830160208701613624565b9695505050505050565b600060208284031215613d4d57600080fd5b5051919050565b634e487b7160e01b600052601160045260246000fd5b600060018201613d7c57613d7c613d54565b5060010190565b600181811c90821680613d9757607f821691505b6020821081036108ef57634e487b7160e01b600052602260045260246000fd5b60006020808385031215613dca57600080fd5b82516001600160401b0380821115613de157600080fd5b818501915085601f830112613df557600080fd5b815181811115613e0757613e07613859565b604091508151613e1c858360051b0182613894565b81815260069190911b830184019084810188831115613e3a57600080fd5b938501935b82851015613e845783858a031215613e575760008081fd5b8351613e628161386f565b8551613e6d816136fd565b815285870151878201528152938301938501613e3f565b50979650505050505050565b8082018082111561099b5761099b613d54565b60008251613eb5818460208701613624565b9190910192915050565b600060033d1115613ed85760046000803e5060005160e01c5b90565b600060443d1015613ee95790565b6040516003193d81016004833e81513d6001600160401b038160248401118184111715613f1857505050505090565b8285019150815181811115613f305750505050505090565b843d8701016020828501011115613f4a5750505050505090565b613f5960208286010187613894565b509095945050505050565b6000808335601e19843603018112613f7b57600080fd5b8301803591506001600160401b03821115613f9557600080fd5b602001915036819003821315613faa57600080fd5b9250929050565b81835281816020850137506000828201602090810191909152601f909101601f19169091010190565b838152604060208201526000613ff4604083018486613fb1565b95945050505050565b6000823560be19833603018112613eb557600080fd5b80151581146109c457600080fd5b803561402c81614013565b919050565b600081356004811061404257600080fd5b83526020820135614052816136fd565b6001600160a01b03166020840152604082013536839003601e1901811261407857600080fd5b82016020810190356001600160401b0381111561409457600080fd5b8036038213156140a357600080fd5b608060408601526140b8608086018284613fb1565b9150506140c760608401614021565b8015156060860152509392505050565b600081356140e4816136fd565b6001600160a01b0390811684526020838101359085015260408301359061410a826136fd565b9081166040850152606083013590614121826136fd565b9081166060850152608083013590614138826136fd565b16608084015260a082013536839003607e1901811261415657600080fd5b60c060a0850152612cad60c08501848301614031565b60006101008683528560208401526141b2604084018680358252602081013560208301526040810135604083015260608101356060830152608081013560808301525050565b8060e084015261357b818401856140d7565b60006101208883528060208401526141df818401888a613fb1565b905085604084015261421f606084018680358252602081013560208301526040810135604083015260608101356060830152608081013560808301525050565b82810361010084015261423281856140d7565b9998505050505050505050565b6c2ab735b737bb902b30bab63a1d60991b81526000825161426781600d850160208701613624565b91909101600d0192915050565b60006020828403121561428657600080fd5b81516109e6816136fd565b60008235603e19833603018112613eb557600080fd5b8183823760009101908152919050565b8181038181111561099b5761099b613d54565b808202811582820484141761099b5761099b613d54565b634e487b7160e01b600052601260045260246000fd5b60008261431457634e487b7160e01b600052601260045260246000fd5b500490565b60006020828403121561432b57600080fd5b81516109e68161401356feddf252ad1be2c89b69c2b068fc378daa952ba7f163c4a11628f55a4df523b3efa2646970667358221220348f2eb8a4df313cecbc9f875587ba39e3e871986b1cecade088e65fdec7edf964736f6c63430008120033",
  "linkReferences": {},
  "deployedLinkReferences": {}
}