{
  "_format": "hh-sol-artifact-1",
  "contractName": "StableCoinVault",
  "sourceName": "contracts/StableCoinVault.sol",
  "abi": [
    {
      "inputs": [
        {
          "internalType": "address",
          "name": "target",
          "type": "address"
        }
      ],
      "name": "AddressEmptyCode",
      "type": "error"
    },
    {
      "inputs": [
        {
          "internalType": "address",
          "name": "account",
          "type": "address"
        }
      ],
      "name": "AddressInsufficientBalance",
      "type": "error"
    },
    {
      "inputs": [],
      "name": "FailedInnerCall",
      "type": "error"
    },
    {
      "inputs": [],
      "name": "MathOverflowedMulDiv",
      "type": "error"
    },
    {
      "inputs": [
        {
          "internalType": "address",
          "name": "token",
          "type": "address"
        }
      ],
      "name": "SafeERC20FailedOperation",
      "type": "error"
    },
    {
      "anonymous": false,
      "inputs": [
        {
          "indexed": false,
          "internalType": "address",
          "name": "previousAdmin",
          "type": "address"
        },
        {
          "indexed": false,
          "internalType": "address",
          "name": "newAdmin",
          "type": "address"
        }
      ],
      "name": "AdminChanged",
      "type": "event"
    },
    {
      "anonymous": false,
      "inputs": [
        {
          "indexed": true,
          "internalType": "address",
          "name": "owner",
          "type": "address"
        },
        {
          "indexed": true,
          "internalType": "address",
          "name": "spender",
          "type": "address"
        },
        {
          "indexed": false,
          "internalType": "uint256",
          "name": "value",
          "type": "uint256"
        }
      ],
      "name": "Approval",
      "type": "event"
    },
    {
      "anonymous": false,
      "inputs": [
        {
          "indexed": true,
          "internalType": "address",
          "name": "beacon",
          "type": "address"
        }
      ],
      "name": "BeaconUpgraded",
      "type": "event"
    },
    {
      "anonymous": false,
      "inputs": [
        {
          "indexed": false,
          "internalType": "string",
          "name": "errorMessage",
          "type": "string"
        }
      ],
      "name": "ClaimError",
      "type": "event"
    },
    {
      "anonymous": false,
      "inputs": [
        {
          "indexed": false,
          "internalType": "uint8",
          "name": "version",
          "type": "uint8"
        }
      ],
      "name": "Initialized",
      "type": "event"
    },
    {
      "anonymous": false,
      "inputs": [
        {
          "indexed": true,
          "internalType": "address",
          "name": "previousOwner",
          "type": "address"
        },
        {
          "indexed": true,
          "internalType": "address",
          "name": "newOwner",
          "type": "address"
        }
      ],
      "name": "OwnershipTransferred",
      "type": "event"
    },
    {
      "anonymous": false,
      "inputs": [
        {
          "indexed": false,
          "internalType": "address",
          "name": "account",
          "type": "address"
        }
      ],
      "name": "Paused",
      "type": "event"
    },
    {
      "anonymous": false,
      "inputs": [
        {
          "indexed": true,
          "internalType": "address",
          "name": "from",
          "type": "address"
        },
        {
          "indexed": true,
          "internalType": "address",
          "name": "to",
          "type": "address"
        },
        {
          "indexed": false,
          "internalType": "uint256",
          "name": "value",
          "type": "uint256"
        }
      ],
      "name": "Transfer",
      "type": "event"
    },
    {
      "anonymous": false,
      "inputs": [
        {
          "indexed": false,
          "internalType": "address",
          "name": "account",
          "type": "address"
        }
      ],
      "name": "Unpaused",
      "type": "event"
    },
    {
      "anonymous": false,
      "inputs": [
        {
          "indexed": true,
          "internalType": "address",
          "name": "implementation",
          "type": "address"
        }
      ],
      "name": "Upgraded",
      "type": "event"
    },
    {
      "inputs": [],
      "name": "UNIT_OF_SHARES",
      "outputs": [
        {
          "internalType": "uint256",
          "name": "",
          "type": "uint256"
        }
      ],
      "stateMutability": "view",
      "type": "function"
    },
    {
      "inputs": [
        {
          "internalType": "string",
          "name": "name_",
          "type": "string"
        },
        {
          "internalType": "string",
          "name": "symbol_",
          "type": "string"
        }
      ],
      "name": "_initialize",
      "outputs": [],
      "stateMutability": "nonpayable",
      "type": "function"
    },
    {
      "inputs": [
        {
          "internalType": "contract IERC20",
          "name": "tokenForSwap",
          "type": "address"
        },
        {
          "internalType": "bytes",
          "name": "aggregatorData",
          "type": "bytes"
        }
      ],
      "name": "_swap",
      "outputs": [
        {
          "internalType": "uint256",
          "name": "",
          "type": "uint256"
        }
      ],
      "stateMutability": "nonpayable",
      "type": "function"
    },
    {
      "inputs": [
        {
          "internalType": "address",
          "name": "owner",
          "type": "address"
        },
        {
          "internalType": "address",
          "name": "spender",
          "type": "address"
        }
      ],
      "name": "allowance",
      "outputs": [
        {
          "internalType": "uint256",
          "name": "",
          "type": "uint256"
        }
      ],
      "stateMutability": "view",
      "type": "function"
    },
    {
      "inputs": [
        {
          "internalType": "address",
          "name": "spender",
          "type": "address"
        },
        {
          "internalType": "uint256",
          "name": "amount",
          "type": "uint256"
        }
      ],
      "name": "approve",
      "outputs": [
        {
          "internalType": "bool",
          "name": "",
          "type": "bool"
        }
      ],
      "stateMutability": "nonpayable",
      "type": "function"
    },
    {
      "inputs": [
        {
          "internalType": "address",
          "name": "account",
          "type": "address"
        }
      ],
      "name": "balanceOf",
      "outputs": [
        {
          "internalType": "uint256",
          "name": "",
          "type": "uint256"
        }
      ],
      "stateMutability": "view",
      "type": "function"
    },
    {
      "inputs": [],
      "name": "balanceOfProtocolFee",
      "outputs": [
        {
          "internalType": "uint256",
          "name": "",
          "type": "uint256"
        }
      ],
      "stateMutability": "view",
      "type": "function"
    },
    {
      "inputs": [
        {
          "components": [
            {
              "internalType": "address",
              "name": "receiver",
              "type": "address"
            },
            {
              "components": [
                {
                  "internalType": "address",
                  "name": "tokenOut",
                  "type": "address"
                },
                {
                  "internalType": "bytes",
                  "name": "aggregatorData",
                  "type": "bytes"
                }
              ],
              "internalType": "struct BasePortfolioV2.VaultClaimData",
              "name": "apolloXClaimData",
              "type": "tuple"
            }
          ],
          "internalType": "struct BasePortfolioV2.ClaimData",
          "name": "claimData",
          "type": "tuple"
        },
        {
          "internalType": "bool",
          "name": "useDump",
          "type": "bool"
        }
      ],
      "name": "claim",
      "outputs": [],
      "stateMutability": "nonpayable",
      "type": "function"
    },
    {
      "inputs": [],
      "name": "decimals",
      "outputs": [
        {
          "internalType": "uint8",
          "name": "",
          "type": "uint8"
        }
      ],
      "stateMutability": "view",
      "type": "function"
    },
    {
      "inputs": [
        {
          "internalType": "address",
          "name": "spender",
          "type": "address"
        },
        {
          "internalType": "uint256",
          "name": "subtractedValue",
          "type": "uint256"
        }
      ],
      "name": "decreaseAllowance",
      "outputs": [
        {
          "internalType": "bool",
          "name": "",
          "type": "bool"
        }
      ],
      "stateMutability": "nonpayable",
      "type": "function"
    },
    {
      "inputs": [
        {
          "components": [
            {
              "internalType": "uint256",
              "name": "amount",
              "type": "uint256"
            },
            {
              "internalType": "address",
              "name": "receiver",
              "type": "address"
            },
            {
              "internalType": "address",
              "name": "tokenIn",
              "type": "address"
            },
            {
              "internalType": "address",
              "name": "tokenInAfterSwap",
              "type": "address"
            },
            {
              "internalType": "bytes",
              "name": "aggregatorData",
              "type": "bytes"
            },
            {
              "components": [
                {
                  "internalType": "address",
                  "name": "tokenIn",
                  "type": "address"
                },
                {
                  "internalType": "uint256",
                  "name": "minALP",
                  "type": "uint256"
                }
              ],
              "internalType": "struct ApolloXDepositData",
              "name": "apolloXDepositData",
              "type": "tuple"
            }
          ],
          "internalType": "struct DepositData",
          "name": "depositData",
          "type": "tuple"
        }
      ],
      "name": "deposit",
      "outputs": [],
      "stateMutability": "nonpayable",
      "type": "function"
    },
    {
      "inputs": [
        {
          "internalType": "address payable",
          "name": "owner",
          "type": "address"
        }
      ],
      "name": "getClaimableRewards",
      "outputs": [
        {
          "components": [
            {
              "internalType": "string",
              "name": "protocol",
              "type": "string"
            },
            {
              "components": [
                {
                  "internalType": "address",
                  "name": "token",
                  "type": "address"
                },
                {
                  "internalType": "uint256",
                  "name": "amount",
                  "type": "uint256"
                }
              ],
              "internalType": "struct IFeeDistribution.RewardData[]",
              "name": "claimableRewards",
              "type": "tuple[]"
            }
          ],
          "internalType": "struct BasePortfolioV2.ClaimableRewardOfAProtocol[]",
          "name": "",
          "type": "tuple[]"
        }
      ],
      "stateMutability": "view",
      "type": "function"
    },
    {
      "inputs": [],
      "name": "getPortfolioAllocation",
      "outputs": [
        {
          "internalType": "string[]",
          "name": "",
          "type": "string[]"
        },
        {
          "internalType": "uint256[]",
          "name": "",
          "type": "uint256[]"
        }
      ],
      "stateMutability": "view",
      "type": "function"
    },
    {
      "inputs": [],
      "name": "getVaults",
      "outputs": [
        {
          "internalType": "contract AbstractVaultV2[]",
          "name": "",
          "type": "address[]"
        }
      ],
      "stateMutability": "view",
      "type": "function"
    },
    {
      "inputs": [
        {
          "internalType": "address",
          "name": "spender",
          "type": "address"
        },
        {
          "internalType": "uint256",
          "name": "addedValue",
          "type": "uint256"
        }
      ],
      "name": "increaseAllowance",
      "outputs": [
        {
          "internalType": "bool",
          "name": "",
          "type": "bool"
        }
      ],
      "stateMutability": "nonpayable",
      "type": "function"
    },
    {
      "inputs": [
        {
          "internalType": "string",
          "name": "name_",
          "type": "string"
        },
        {
          "internalType": "string",
          "name": "symbol_",
          "type": "string"
        },
        {
          "internalType": "address",
          "name": "apolloXBscVaultAddr",
          "type": "address"
        }
      ],
      "name": "initialize",
      "outputs": [],
      "stateMutability": "nonpayable",
      "type": "function"
    },
    {
      "inputs": [],
      "name": "name",
      "outputs": [
        {
          "internalType": "string",
          "name": "",
          "type": "string"
        }
      ],
      "stateMutability": "view",
      "type": "function"
    },
    {
      "inputs": [],
      "name": "oneInchAggregatorAddress",
      "outputs": [
        {
          "internalType": "address",
          "name": "",
          "type": "address"
        }
      ],
      "stateMutability": "view",
      "type": "function"
    },
    {
      "inputs": [],
      "name": "owner",
      "outputs": [
        {
          "internalType": "address",
          "name": "",
          "type": "address"
        }
      ],
      "stateMutability": "view",
      "type": "function"
    },
    {
      "inputs": [],
      "name": "paused",
      "outputs": [
        {
          "internalType": "bool",
          "name": "",
          "type": "bool"
        }
      ],
      "stateMutability": "view",
      "type": "function"
    },
    {
      "inputs": [
        {
          "internalType": "address",
          "name": "",
          "type": "address"
        },
        {
          "internalType": "address",
          "name": "",
          "type": "address"
        }
      ],
      "name": "pointersOfThisPortfolioForRecordingDistributedRewards",
      "outputs": [
        {
          "internalType": "uint256",
          "name": "",
          "type": "uint256"
        }
      ],
      "stateMutability": "view",
      "type": "function"
    },
    {
      "inputs": [
        {
          "internalType": "string",
          "name": "",
          "type": "string"
        }
      ],
      "name": "portfolioAllocation",
      "outputs": [
        {
          "internalType": "uint256",
          "name": "",
          "type": "uint256"
        }
      ],
      "stateMutability": "view",
      "type": "function"
    },
    {
      "inputs": [],
      "name": "proxiableUUID",
      "outputs": [
        {
          "internalType": "bytes32",
          "name": "",
          "type": "bytes32"
        }
      ],
      "stateMutability": "view",
      "type": "function"
    },
    {
      "inputs": [
        {
          "components": [
            {
              "internalType": "uint256",
              "name": "amount",
              "type": "uint256"
            },
            {
              "internalType": "address",
              "name": "receiver",
              "type": "address"
            },
            {
              "components": [
                {
                  "internalType": "address",
                  "name": "alpTokenOut",
                  "type": "address"
                },
                {
                  "internalType": "uint256",
                  "name": "minOut",
                  "type": "uint256"
                },
                {
                  "internalType": "address",
                  "name": "tokenOut",
                  "type": "address"
                },
                {
                  "internalType": "bytes",
                  "name": "aggregatorData",
                  "type": "bytes"
                }
              ],
              "internalType": "struct ApolloXRedeemData",
              "name": "apolloXRedeemData",
              "type": "tuple"
            }
          ],
          "internalType": "struct RedeemData",
          "name": "redeemData",
          "type": "tuple"
        }
      ],
      "name": "redeem",
      "outputs": [],
      "stateMutability": "nonpayable",
      "type": "function"
    },
    {
      "inputs": [],
      "name": "renounceOwnership",
      "outputs": [],
      "stateMutability": "nonpayable",
      "type": "function"
    },
    {
      "inputs": [
        {
          "internalType": "uint256",
          "name": "amount",
          "type": "uint256"
        }
      ],
      "name": "rescueETH",
      "outputs": [],
      "stateMutability": "nonpayable",
      "type": "function"
    },
    {
      "inputs": [
        {
          "internalType": "address",
          "name": "tokenAddress",
          "type": "address"
        },
        {
          "internalType": "uint256",
          "name": "amount",
          "type": "uint256"
        }
      ],
      "name": "rescueFunds",
      "outputs": [],
      "stateMutability": "nonpayable",
      "type": "function"
    },
    {
      "inputs": [
        {
          "internalType": "address payable",
          "name": "destination",
          "type": "address"
        },
        {
          "internalType": "uint256",
          "name": "amount",
          "type": "uint256"
        },
        {
          "internalType": "bytes",
          "name": "hexData",
          "type": "bytes"
        }
      ],
      "name": "rescueFundsWithHexData",
      "outputs": [],
      "stateMutability": "nonpayable",
      "type": "function"
    },
    {
      "inputs": [
        {
          "internalType": "string",
          "name": "",
          "type": "string"
        },
        {
          "internalType": "address",
          "name": "",
          "type": "address"
        }
      ],
      "name": "rewardPerShareZappedIn",
      "outputs": [
        {
          "internalType": "uint256",
          "name": "",
          "type": "uint256"
        }
      ],
      "stateMutability": "view",
      "type": "function"
    },
    {
      "inputs": [
        {
          "components": [
            {
              "internalType": "string",
              "name": "protocol",
              "type": "string"
            },
            {
              "internalType": "uint256",
              "name": "percentage",
              "type": "uint256"
            }
          ],
          "internalType": "struct BasePortfolioV2.PortfolioAllocationOfSingleCategory[]",
          "name": "portfolioAllocation_",
          "type": "tuple[]"
        }
      ],
      "name": "setVaultAllocations",
      "outputs": [],
      "stateMutability": "nonpayable",
      "type": "function"
    },
    {
      "inputs": [],
      "name": "symbol",
      "outputs": [
        {
          "internalType": "string",
          "name": "",
          "type": "string"
        }
      ],
      "stateMutability": "view",
      "type": "function"
    },
    {
      "inputs": [],
      "name": "totalAssets",
      "outputs": [
        {
          "components": [
            {
              "internalType": "string",
              "name": "vaultName",
              "type": "string"
            },
            {
              "internalType": "uint256",
              "name": "assets",
              "type": "uint256"
            }
          ],
          "internalType": "struct BasePortfolioV2.SharesOfVault[]",
          "name": "",
          "type": "tuple[]"
        }
      ],
      "stateMutability": "view",
      "type": "function"
    },
    {
      "inputs": [],
      "name": "totalSupply",
      "outputs": [
        {
          "internalType": "uint256",
          "name": "",
          "type": "uint256"
        }
      ],
      "stateMutability": "view",
      "type": "function"
    },
    {
      "inputs": [
        {
          "internalType": "address",
          "name": "to",
          "type": "address"
        },
        {
          "internalType": "uint256",
          "name": "amount",
          "type": "uint256"
        }
      ],
      "name": "transfer",
      "outputs": [
        {
          "internalType": "bool",
          "name": "",
          "type": "bool"
        }
      ],
      "stateMutability": "nonpayable",
      "type": "function"
    },
    {
      "inputs": [
        {
          "internalType": "address",
          "name": "from",
          "type": "address"
        },
        {
          "internalType": "address",
          "name": "to",
          "type": "address"
        },
        {
          "internalType": "uint256",
          "name": "amount",
          "type": "uint256"
        }
      ],
      "name": "transferFrom",
      "outputs": [
        {
          "internalType": "bool",
          "name": "",
          "type": "bool"
        }
      ],
      "stateMutability": "nonpayable",
      "type": "function"
    },
    {
      "inputs": [
        {
          "internalType": "address",
          "name": "newOwner",
          "type": "address"
        }
      ],
      "name": "transferOwnership",
      "outputs": [],
      "stateMutability": "nonpayable",
      "type": "function"
    },
    {
      "inputs": [
        {
          "internalType": "string",
          "name": "mappingName",
          "type": "string"
        },
        {
          "internalType": "address",
          "name": "userAddress",
          "type": "address"
        },
        {
          "internalType": "string",
          "name": "vaultName",
          "type": "string"
        },
        {
          "internalType": "address",
          "name": "rewardTokenAddress",
          "type": "address"
        },
        {
          "internalType": "uint256",
          "name": "amount",
          "type": "uint256"
        }
      ],
      "name": "updateMappings",
      "outputs": [],
      "stateMutability": "nonpayable",
      "type": "function"
    },
    {
      "inputs": [
        {
          "internalType": "address",
          "name": "oneInchAggregatorAddress_",
          "type": "address"
        }
      ],
      "name": "updateOneInchAggregatorAddress",
      "outputs": [],
      "stateMutability": "nonpayable",
      "type": "function"
    },
    {
      "inputs": [
        {
          "internalType": "address",
          "name": "newImplementation",
          "type": "address"
        }
      ],
      "name": "upgradeTo",
      "outputs": [],
      "stateMutability": "nonpayable",
      "type": "function"
    },
    {
      "inputs": [
        {
          "internalType": "address",
          "name": "newImplementation",
          "type": "address"
        },
        {
          "internalType": "bytes",
          "name": "data",
          "type": "bytes"
        }
      ],
      "name": "upgradeToAndCall",
      "outputs": [],
      "stateMutability": "payable",
      "type": "function"
    },
    {
      "inputs": [
        {
          "internalType": "address",
          "name": "",
          "type": "address"
        },
        {
          "internalType": "string",
          "name": "",
          "type": "string"
        },
        {
          "internalType": "address",
          "name": "",
          "type": "address"
        }
      ],
      "name": "userRewardPerTokenPaidPointerMapping",
      "outputs": [
        {
          "internalType": "uint256",
          "name": "",
          "type": "uint256"
        }
      ],
      "stateMutability": "view",
      "type": "function"
    },
    {
      "inputs": [
        {
          "internalType": "address",
          "name": "",
          "type": "address"
        },
        {
          "internalType": "string",
          "name": "",
          "type": "string"
        },
        {
          "internalType": "address",
          "name": "",
          "type": "address"
        }
      ],
      "name": "userRewardsOfInvestedProtocols",
      "outputs": [
        {
          "internalType": "uint256",
          "name": "",
          "type": "uint256"
        }
      ],
      "stateMutability": "view",
      "type": "function"
    },
    {
      "stateMutability": "payable",
      "type": "receive"
    }
  ],
  "bytecode": "0x60a0604052306080523480156200001557600080fd5b506200002062000026565b620000e8565b600054610100900460ff1615620000935760405162461bcd60e51b815260206004820152602760248201527f496e697469616c697a61626c653a20636f6e747261637420697320696e697469604482015266616c697a696e6760c81b606482015260840160405180910390fd5b60005460ff9081161015620000e6576000805460ff191660ff9081179091556040519081527f7f26b83ff96e1f2b6a682f133852f6798a09c465da95921460cefb38474024989060200160405180910390a15b565b6080516154b6620001206000396000818161100701528181611047015281816116fd0152818161173d01526117cc01526154b66000f3fe6080604052600436106102555760003560e01c80635c975abb11610139578063a457c2d7116100b6578063d55507f31161007a578063d55507f314610791578063dd62ed3e146107b1578063e34efa56146107d1578063e4c7238b146107f2578063ef1458db14610812578063f2fde38b1461084b57600080fd5b8063a457c2d7146106df578063a9059cbb146106ff578063acb05f481461071f578063ae980ae514610738578063b517c62f1461077157600080fd5b806377b6b73e116100fd57806377b6b73e1461063857806378e3214f146106585780638da5cb5b1461067857806395d89b41146106aa5780639e252f00146106bf57600080fd5b80635c975abb1461056957806361bde6b2146105815780636e3cfcc0146105ca57806370a08231146105ed578063715018a61461062357600080fd5b8063327540f7116101d257806344d00f821161019657806344d00f82146104bf5780634513206c146104e15780634f1ef2861461050157806352d1902d1461051457806352f60cc91461052957806358b934ae1461054957600080fd5b8063327540f7146103bf5780633659cfe61461040f578063373a1b391461042f578063395093511461044f57806341700e4c1461046f57600080fd5b806318160ddd1161021957806318160ddd1461032057806323b872dd1461033f5780632ea5027d1461035f578063308e401e14610376578063313ce567146103a357600080fd5b806301e1d1141461026157806306fdde031461028c578063077f224a146102ae578063095ea7b3146102d0578063098dce131461030057600080fd5b3661025c57005b600080fd5b34801561026d57600080fd5b5061027661086b565b60405161028391906142d4565b60405180910390f35b34801561029857600080fd5b506102a1610a49565b604051610283919061434a565b3480156102ba57600080fd5b506102ce6102c936600461445c565b610adb565b005b3480156102dc57600080fd5b506102f06102eb3660046144d3565b610c7e565b6040519015158152602001610283565b34801561030c57600080fd5b506102ce61031b3660046144ff565b610c98565b34801561032c57600080fd5b506099545b604051908152602001610283565b34801561034b57600080fd5b506102f061035a366004614562565b610ced565b34801561036b57600080fd5b5061033161015f5481565b34801561038257600080fd5b506103966103913660046145a3565b610d13565b60405161028391906145c0565b3480156103af57600080fd5b5060405160128152602001610283565b3480156103cb57600080fd5b506103316103da36600461467d565b610162602090815260009384526040808520845180860184018051928152908401958401959095209452929052825290205481565b34801561041b57600080fd5b506102ce61042a3660046145a3565b610ffd565b34801561043b57600080fd5b506102ce61044a3660046146c4565b6110dc565b34801561045b57600080fd5b506102f061046a3660046144d3565b6114fb565b34801561047b57600080fd5b5061033161048a36600461467d565b610163602090815260009384526040808520845180860184018051928152908401958401959095209452929052825290205481565b3480156104cb57600080fd5b506104d461151d565b60405161028391906146fe565b3480156104ed57600080fd5b506102ce6104fc36600461478c565b61157f565b6102ce61050f36600461482d565b6116f3565b34801561052057600080fd5b506103316117bf565b34801561053557600080fd5b506102ce610544366004614890565b611873565b34801561055557600080fd5b506102ce61056436600461496d565b611ba8565b34801561057557600080fd5b5060fb5460ff166102f0565b34801561058d57600080fd5b5061033161059c3660046149c5565b8151602081840181018051610165825292820194820194909420919093529091526000908152604090205481565b3480156105d657600080fd5b506105df611cf2565b604051610283929190614a16565b3480156105f957600080fd5b506103316106083660046145a3565b6001600160a01b031660009081526097602052604090205490565b34801561062f57600080fd5b506102ce611ea8565b34801561064457600080fd5b506102ce610653366004614ab1565b611ebc565b34801561066457600080fd5b506102ce6106733660046144d3565b612147565b34801561068457600080fd5b5060c9546001600160a01b03165b6040516001600160a01b039091168152602001610283565b3480156106b657600080fd5b506102a16121b9565b3480156106cb57600080fd5b506102ce6106da366004614aeb565b6121c8565b3480156106eb57600080fd5b506102f06106fa3660046144d3565b61220a565b34801561070b57600080fd5b506102f061071a3660046144d3565b612290565b34801561072b57600080fd5b506103316402540be40081565b34801561074457600080fd5b50610331610753366004614b04565b80516020818301810180516101608252928201919093012091525481565b34801561077d57600080fd5b506102ce61078c3660046145a3565b61229e565b34801561079d57600080fd5b506103316107ac36600461482d565b612318565b3480156107bd57600080fd5b506103316107cc366004614b40565b6124ae565b3480156107dd57600080fd5b5061016654610692906001600160a01b031681565b3480156107fe57600080fd5b506102ce61080d366004614b6e565b6124d9565b34801561081e57600080fd5b5061033161082d366004614b40565b61016460209081526000928352604080842090915290825290205481565b34801561085757600080fd5b506102ce6108663660046145a3565b612575565b610161546060906000906001600160401b0381111561088c5761088c61435d565b6040519080825280602002602001820160405280156108d257816020015b6040805180820190915260608152600060208201528152602001906001900390816108aa5790505b50905060005b61016154811015610a435761016181815481106108f7576108f7614be2565b6000918252602082200154604080516306fdde0360e01b815290516001600160a01b03909216926306fdde03926004808401938290030181865afa158015610943573d6000803e3d6000fd5b505050506040513d6000823e601f3d908101601f1916820160405261096b9190810190614c3c565b82828151811061097d5761097d614be2565b60200260200101516000018190525061016181815481106109a0576109a0614be2565b60009182526020918290200154604080516278744560e21b815290516001600160a01b03909216926301e1d114926004808401938290030181865afa1580156109ed573d6000803e3d6000fd5b505050506040513d601f19601f82011682018060405250810190610a119190614c84565b828281518110610a2357610a23614be2565b602090810291909101810151015280610a3b81614cb3565b9150506108d8565b50919050565b6060609a8054610a5890614ccc565b80601f0160208091040260200160405190810160405280929190818152602001828054610a8490614ccc565b8015610ad15780601f10610aa657610100808354040283529160200191610ad1565b820191906000526020600020905b815481529060010190602001808311610ab457829003601f168201915b5050505050905090565b600054610100900460ff1615808015610afb5750600054600160ff909116105b80610b155750303b158015610b15575060005460ff166001145b610b7d5760405162461bcd60e51b815260206004820152602e60248201527f496e697469616c697a61626c653a20636f6e747261637420697320616c72656160448201526d191e481a5b9a5d1a585b1a5e995960921b60648201526084015b60405180910390fd5b6000805460ff191660011790558015610ba0576000805461ff0019166101001790555b610baa8484610c98565b6001600160a01b038216610c0b5760405162461bcd60e51b815260206004820152602260248201527f61706f6c6c6f584273635661756c74416464722063616e6e6f74206265207a65604482015261726f60f01b6064820152608401610b74565b60408051602081019091526001600160a01b0383168152610c319061016190600161420a565b508015610c78576000805461ff0019169055604051600181527f7f26b83ff96e1f2b6a682f133852f6798a09c465da95921460cefb38474024989060200160405180910390a15b50505050565b600033610c8c8185856125eb565b60019150505b92915050565b600054610100900460ff16610cbf5760405162461bcd60e51b8152600401610b7490614d00565b610cc9828261270f565b610cd1612740565b610cd961276f565b610ce161279e565b610ce96127c5565b5050565b600033610cfb8582856127f4565b610d06858585612868565b60019150505b9392505050565b610161546060906000906001600160401b03811115610d3457610d3461435d565b604051908082528060200260200182016040528015610d7957816020015b6040805180820190915260608082526020820152815260200190600190039081610d525790505b50905060005b61016154811015610ff65760006101618281548110610da057610da0614be2565b6000918252602082200154604080516306fdde0360e01b815290516001600160a01b03909216926306fdde03926004808401938290030181865afa158015610dec573d6000803e3d6000fd5b505050506040513d6000823e601f3d908101601f19168201604052610e149190810190614c3c565b905060006101618381548110610e2c57610e2c614be2565b6000918252602082200154604080516001620f9a1d60e11b0319815290516001600160a01b039092169263ffe0cbc6926004808401938290030181865afa158015610e7b573d6000803e3d6000fd5b505050506040513d6000823e601f3d908101601f19168201604052610ea39190810190614d4b565b9050600081516001600160401b03811115610ec057610ec061435d565b604051908082528060200260200182016040528015610f0557816020015b6040805180820190915260008082526020820152815260200190600190039081610ede5790505b50905060005b8251811015610fad576000838281518110610f2857610f28614be2565b60200260200101516000015190506040518060400160405280826001600160a01b03168152602001610f798b878681518110610f6657610f66614be2565b6020026020010151602001518986612a41565b815250838381518110610f8e57610f8e614be2565b6020026020010181905250508080610fa590614cb3565b915050610f0b565b50604051806040016040528084815260200182815250858581518110610fd557610fd5614be2565b60200260200101819052505050508080610fee90614cb3565b915050610d7f565b5092915050565b6001600160a01b037f00000000000000000000000000000000000000000000000000000000000000001630036110455760405162461bcd60e51b8152600401610b7490614e24565b7f00000000000000000000000000000000000000000000000000000000000000006001600160a01b031661108e600080516020615416833981519152546001600160a01b031690565b6001600160a01b0316146110b45760405162461bcd60e51b8152600401610b7490614e70565b6110bd81612b75565b604080516000808252602082019092526110d991839190612b7d565b50565b60006110e730610d13565b905060005b81518110156112d25760005b82828151811061110a5761110a614be2565b602002602001015160200151518110156112bf57600083838151811061113257611132614be2565b602002602001015160200151828151811061114f5761114f614be2565b602002602001015160000151905060006101646000610161868154811061117857611178614be2565b60009182526020808320909101546001600160a01b039081168452838201949094526040928301822093861682529290925290205485518690869081106111c1576111c1614be2565b60200260200101516020015184815181106111de576111de614be2565b6020026020010151602001516111f49190614ebc565b905084848151811061120857611208614be2565b602002602001015160200151838151811061122557611225614be2565b6020026020010151602001516101646000610161878154811061124a5761124a614be2565b60009182526020808320909101546001600160a01b039081168452838201949094526040928301822093871682529290925290205584516112aa9086908690811061129757611297614be2565b6020026020010151600001518383612ce8565b505080806112b790614cb3565b9150506110f8565b50806112ca81614cb3565b9150506110ec565b506112db612e3a565b600261012d54036112fe5760405162461bcd60e51b8152600401610b7490614ecf565b600261012d55609954823511156113575760405162461bcd60e51b815260206004820152601a60248201527f5368617265732065786365656420746f74616c20737570706c790000000000006044820152606401610b74565b60005b610161548110156114e5576000611403610161838154811061137e5761137e614be2565b6000918252602090912001546040516370a0823160e01b81523060048201526001600160a01b03909116906370a0823190602401602060405180830381865afa1580156113cf573d6000803e3d6000fd5b505050506040513d601f19601f820116820180604052508101906113f39190614c84565b85356113fe60995490565b612e80565b905080156114d257600080600080610161868154811061142557611425614be2565b6000918252602090912001546040516371f24fd160e11b81526001600160a01b039091169063e3e49fa2906114609088908c90600401614f74565b6000604051808303816000875af115801561147f573d6000803e3d6000fd5b505050506040513d6000823e601f3d908101601f191682016040526114a7919081019061501f565b929650909450925090506114cd6114c460408a0160208b016145a3565b85858585612f44565b505050505b50806114dd81614cb3565b91505061135a565b506114f1338335612f7c565b5050600161012d55565b600033610c8c81858561150e83836124ae565b61151891906150a0565b6125eb565b6060610161805480602002602001604051908101604052809291908181526020018280548015610ad157602002820191906000526020600020905b81546001600160a01b03168152600190910190602001808311611558575050505050905090565b6115876130d6565b600087876040516115999291906150b3565b60408051918290038220828201909152601e82527f75736572526577617264734f66496e76657374656450726f746f636f6c73000060209092019190915290507f06483cf1248e4873d82460f4bf1de97bba5666b089bdf96d2e79415fc4759d338101611657576001600160a01b0386166000908152610162602052604090819020905183919061162d90889088906150b3565b90815260408051602092819003830190206001600160a01b038716600090815292529020556116e9565b60405180606001604052806024815260200161545d602491398051906020012081036116aa576001600160a01b0386166000908152610163602052604090819020905183919061162d90889088906150b3565b60405162461bcd60e51b8152602060048201526014602482015273496e76616c6964206d617070696e67206e616d6560601b6044820152606401610b74565b5050505050505050565b6001600160a01b037f000000000000000000000000000000000000000000000000000000000000000016300361173b5760405162461bcd60e51b8152600401610b7490614e24565b7f00000000000000000000000000000000000000000000000000000000000000006001600160a01b0316611784600080516020615416833981519152546001600160a01b031690565b6001600160a01b0316146117aa5760405162461bcd60e51b8152600401610b7490614e70565b6117b382612b75565b610ce982826001612b7d565b6000306001600160a01b037f0000000000000000000000000000000000000000000000000000000000000000161461185f5760405162461bcd60e51b815260206004820152603860248201527f555550535570677261646561626c653a206d757374206e6f742062652063616c60448201527f6c6564207468726f7567682064656c656761746563616c6c00000000000000006064820152608401610b74565b506000805160206154168339815191525b90565b61187b612e3a565b600061188630610d13565b905060005b8151811015611a5e5760005b8282815181106118a9576118a9614be2565b60200260200101516020015151811015611a4b5760008383815181106118d1576118d1614be2565b60200260200101516020015182815181106118ee576118ee614be2565b602002602001015160000151905060006101646000610161868154811061191757611917614be2565b60009182526020808320909101546001600160a01b0390811684528382019490945260409283018220938616825292909252902054855186908690811061196057611960614be2565b602002602001015160200151848151811061197d5761197d614be2565b6020026020010151602001516119939190614ebc565b90508484815181106119a7576119a7614be2565b60200260200101516020015183815181106119c4576119c4614be2565b602002602001015160200151610164600061016187815481106119e9576119e9614be2565b60009182526020808320909101546001600160a01b03908116845283820194909452604092830182209387168252929092529020558451611a369086908690811061129757611297614be2565b50508080611a4390614cb3565b915050611897565b5080611a5681614cb3565b91505061188b565b506000611a6a33610d13565b33600090815260976020526040812054919250819003611a8b575050505050565b60005b8251811015611b9f576000838281518110611aab57611aab614be2565b6020026020010151600001519050600081805190602001209050611aeb604051806040016040528060006001600160a01b03168152602001606081525090565b60408051808201909152600b81526a041706f6c6c6f582d414c560ac1b6020909101527f4eb0700daee041259b554026f4b73a9d4f11b2f9aa932706fae5c402e4346b8b8201611b4057506020880151611b77565b82604051602001611b5191906150c3565b60408051601f198184030181529082905262461bcd60e51b8252610b749160040161434a565b611b89848785848c8e60000151613130565b5050508080611b9790614cb3565b915050611a8e565b5050505b505050565b611bb06130d6565b6001600160a01b038316611c065760405162461bcd60e51b815260206004820152601b60248201527f496e76616c69642064657374696e6174696f6e206164647265737300000000006044820152606401610b74565b81471015611c4d5760405162461bcd60e51b8152602060048201526014602482015273496e73756666696369656e742062616c616e636560601b6044820152606401610b74565b6000836001600160a01b03168383604051611c6891906150f8565b60006040518083038185875af1925050503d8060008114611ca5576040519150601f19603f3d011682016040523d82523d6000602084013e611caa565b606091505b5050905080610c785760405162461bcd60e51b8152602060048201526014602482015273119d5b99081d1c985b9cd9995c8819985a5b195960621b6044820152606401610b74565b6060806000610161805490506001600160401b03811115611d1557611d1561435d565b604051908082528060200260200182016040528015611d4857816020015b6060815260200190600190039081611d335790505b50610161549091506000906001600160401b03811115611d6a57611d6a61435d565b604051908082528060200260200182016040528015611d93578160200160208202803683370190505b50905060005b61016154811015611e9e5760006101618281548110611dba57611dba614be2565b6000918252602082200154604080516306fdde0360e01b815290516001600160a01b03909216926306fdde03926004808401938290030181865afa158015611e06573d6000803e3d6000fd5b505050506040513d6000823e601f3d908101601f19168201604052611e2e9190810190614c3c565b905080848381518110611e4357611e43614be2565b602002602001018190525061016081604051611e5f91906150f8565b908152602001604051809103902054838381518110611e8057611e80614be2565b60209081029190910101525080611e9681614cb3565b915050611d99565b5090939092509050565b611eb06130d6565b611eba6000613306565b565b6000611ec730610d13565b905060005b815181101561209f5760005b828281518110611eea57611eea614be2565b6020026020010151602001515181101561208c576000838381518110611f1257611f12614be2565b6020026020010151602001518281518110611f2f57611f2f614be2565b6020026020010151600001519050600061016460006101618681548110611f5857611f58614be2565b60009182526020808320909101546001600160a01b03908116845283820194909452604092830182209386168252929092529020548551869086908110611fa157611fa1614be2565b6020026020010151602001518481518110611fbe57611fbe614be2565b602002602001015160200151611fd49190614ebc565b9050848481518110611fe857611fe8614be2565b602002602001015160200151838151811061200557612005614be2565b6020026020010151602001516101646000610161878154811061202a5761202a614be2565b60009182526020808320909101546001600160a01b039081168452838201949094526040928301822093871682529290925290205584516120779086908690811061129757611297614be2565b5050808061208490614cb3565b915050611ed8565b508061209781614cb3565b915050611ecc565b506120a8612e3a565b600261012d54036120cb5760405162461bcd60e51b8152600401610b7490614ecf565b600261012d5581356121115760405162461bcd60e51b815260206004820152600f60248201526e0616d6f756e74206d757374203e203608c1b6044820152606401610b74565b60008061211d84613358565b91509150600061212e85848461341a565b905061213a8582613619565b5050600161012d55505050565b61214f6130d6565b6001600160a01b03821661219d5760405162461bcd60e51b8152602060048201526015602482015274496e76616c696420746f6b656e206164647265737360581b6044820152606401610b74565b610ce9826121b360c9546001600160a01b031690565b836136c9565b6060609b8054610a5890614ccc565b6121d06130d6565b60c9546040516001600160a01b039091169082156108fc029083906000818181858888f19350505050158015610ce9573d6000803e3d6000fd5b6000338161221882866124ae565b9050838110156122785760405162461bcd60e51b815260206004820152602560248201527f45524332303a2064656372656173656420616c6c6f77616e63652062656c6f77604482015264207a65726f60d81b6064820152608401610b74565b61228582868684036125eb565b506001949350505050565b600033610c8c818585612868565b6122a66130d6565b6001600160a01b0381166122f55760405162461bcd60e51b8152602060048201526016602482015275416464726573732063616e6e6f74206265207a65726f60501b6044820152606401610b74565b61016680546001600160a01b0319166001600160a01b0392909216919091179055565b610166546040516370a0823160e01b81523060048201526000916123979185916001600160a01b0390811691908316906370a0823190602401602060405180830381865afa15801561236e573d6000803e3d6000fd5b505050506040513d601f19601f820116820180604052508101906123929190614c84565b613728565b6101665460405160009182916001600160a01b03909116906123ba9086906150f8565b6000604051808303816000865af19150503d80600081146123f7576040519150601f19603f3d011682016040523d82523d6000602084013e6123fc565b606091505b5091509150816124915760405162461bcd60e51b815260206004820152605460248201527f41676772656761746f72206661696c656420746f20737761702c20706c65617360448201527f652075706461746520796f757220626c6f636b5f6e756d626572207768656e206064820152731c9d5b9b9a5b99c81a185c991a185d081d195cdd60621b608482015260a401610b74565b808060200190518101906124a59190614c84565b95945050505050565b6001600160a01b03918216600090815260986020908152604080832093909416825291909152205490565b6124e16130d6565b60005b81811015611ba3578282828181106124fe576124fe614be2565b90506020028101906125109190615114565b6020013561016084848481811061252957612529614be2565b905060200281019061253b9190615114565b612545908061512a565b6040516125539291906150b3565b908152604051908190036020019020558061256d81614cb3565b9150506124e4565b61257d6130d6565b6001600160a01b0381166125e25760405162461bcd60e51b815260206004820152602660248201527f4f776e61626c653a206e6577206f776e657220697320746865207a65726f206160448201526564647265737360d01b6064820152608401610b74565b6110d981613306565b6001600160a01b03831661264d5760405162461bcd60e51b8152602060048201526024808201527f45524332303a20617070726f76652066726f6d20746865207a65726f206164646044820152637265737360e01b6064820152608401610b74565b6001600160a01b0382166126ae5760405162461bcd60e51b815260206004820152602260248201527f45524332303a20617070726f766520746f20746865207a65726f206164647265604482015261737360f01b6064820152608401610b74565b6001600160a01b0383811660008181526098602090815260408083209487168084529482529182902085905590518481527f8c5be1e5ebec7d5bd14f71427d1e84f3dd0314c0f7b2291e5b200ac8c7c3b925910160405180910390a3505050565b600054610100900460ff166127365760405162461bcd60e51b8152600401610b7490614d00565b610ce982826137b8565b600054610100900460ff166127675760405162461bcd60e51b8152600401610b7490614d00565b611eba6137f8565b600054610100900460ff166127965760405162461bcd60e51b8152600401610b7490614d00565b611eba613828565b600054610100900460ff16611eba5760405162461bcd60e51b8152600401610b7490614d00565b600054610100900460ff166127ec5760405162461bcd60e51b8152600401610b7490614d00565b611eba613857565b600061280084846124ae565b90506000198114610c78578181101561285b5760405162461bcd60e51b815260206004820152601d60248201527f45524332303a20696e73756666696369656e7420616c6c6f77616e63650000006044820152606401610b74565b610c7884848484036125eb565b6001600160a01b0383166128cc5760405162461bcd60e51b815260206004820152602560248201527f45524332303a207472616e736665722066726f6d20746865207a65726f206164604482015264647265737360d81b6064820152608401610b74565b6001600160a01b03821661292e5760405162461bcd60e51b815260206004820152602360248201527f45524332303a207472616e7366657220746f20746865207a65726f206164647260448201526265737360e81b6064820152608401610b74565b61293983838361388a565b6001600160a01b038316600090815260976020526040902054818110156129b15760405162461bcd60e51b815260206004820152602660248201527f45524332303a207472616e7366657220616d6f756e7420657863656564732062604482015265616c616e636560d01b6064820152608401610b74565b6001600160a01b038085166000908152609760205260408082208585039055918516815290812080548492906129e89084906150a0565b92505081905550826001600160a01b0316846001600160a01b03167fddf252ad1be2c89b69c2b068fc378daa952ba7f163c4a11628f55a4df523b3ef84604051612a3491815260200190565b60405180910390a3610c78565b600080306001600160a01b03871603612a5b5750836124a5565b6001600160a01b03861660009081526101626020526040908190209051612a839086906150f8565b90815260408051602092819003830181206001600160a01b03878116600090815291855283822054908b1682526101639094529190912090612ac69087906150f8565b90815260408051602092819003830190206001600160a01b03871660009081529252902054612af487613909565b61016587604051612b0591906150f8565b90815260408051602092819003830190206001600160a01b03891660009081529252902054612b3491906150a0565b612b3e9190614ebc565b6001600160a01b038816600090815260976020526040902054612b619190615170565b612b6b91906150a0565b9695505050505050565b6110d96130d6565b7f4910fdfa16fed3260ed0e7147f7cc6da11a60208b5b9406d12a635614ffd91435460ff1615612bb057611ba38361397b565b826001600160a01b03166352d1902d6040518163ffffffff1660e01b8152600401602060405180830381865afa925050508015612c0a575060408051601f3d908101601f19168201909252612c0791810190614c84565b60015b612c6d5760405162461bcd60e51b815260206004820152602e60248201527f45524331393637557067726164653a206e657720696d706c656d656e7461746960448201526d6f6e206973206e6f74205555505360901b6064820152608401610b74565b6000805160206154168339815191528114612cdc5760405162461bcd60e51b815260206004820152602960248201527f45524331393637557067726164653a20756e737570706f727465642070726f786044820152681a58589b195555525160ba1b6064820152608401610b74565b50611ba3838383613a17565b3315611ba357612cf781613909565b61016584604051612d0891906150f8565b90815260200160405180910390206000846001600160a01b03166001600160a01b031681526020019081526020016000206000828254612d4891906150a0565b90915550612d5890508383613a3c565b3360009081526101626020526040908190209051612d779086906150f8565b90815260200160405180910390206000846001600160a01b03166001600160a01b031681526020019081526020016000206000828254612db791906150a0565b909155505060405161016590612dce9085906150f8565b90815260408051602092819003830181206001600160a01b0386166000908152908452828120543382526101639094529190912090612e0e9086906150f8565b908152604080519182900360209081019092206001600160a01b03861660009081529252902055505050565b60fb5460ff1615611eba5760405162461bcd60e51b815260206004820152601060248201526f14185d5cd8589b194e881c185d5cd95960821b6044820152606401610b74565b6000838302816000198587098281108382030391505080600003612eb757838281612ead57612ead615187565b0492505050610d0c565b808411612ed75760405163227bc15360e01b815260040160405180910390fd5b6000848688096000868103871696879004966002600389028118808a02820302808a02820302808a02820302808a02820302808a02820302808a02909103029181900381900460010186841190950394909402919094039290920491909117919091029150509392505050565b805115612f6a576000612f578483612318565b9050612f648387836136c9565b50612f75565b612f758386866136c9565b5050505050565b6001600160a01b038216612fdc5760405162461bcd60e51b815260206004820152602160248201527f45524332303a206275726e2066726f6d20746865207a65726f206164647265736044820152607360f81b6064820152608401610b74565b612fe88260008361388a565b6001600160a01b0382166000908152609760205260409020548181101561305c5760405162461bcd60e51b815260206004820152602260248201527f45524332303a206275726e20616d6f756e7420657863656564732062616c616e604482015261636560f01b6064820152608401610b74565b6001600160a01b038316600090815260976020526040812083830390556099805484929061308b908490614ebc565b90915550506040518281526000906001600160a01b038516907fddf252ad1be2c89b69c2b068fc378daa952ba7f163c4a11628f55a4df523b3ef9060200160405180910390a3505050565b60c9546001600160a01b03163314611eba5760405162461bcd60e51b815260206004820181905260248201527f4f776e61626c653a2063616c6c6572206973206e6f7420746865206f776e65726044820152606401610b74565b600261012d54036131535760405162461bcd60e51b8152600401610b7490614ecf565b600261012d5561016180548790811061316e5761316e614be2565b600091825260208220015460408051634e71d92d60e01b815290516001600160a01b0390921692634e71d92d9260048084019382900301818387803b1580156131b657600080fd5b505af19250505080156131c7575060015b61323b576131d361519d565b806308c379a00361322f57506131e76151b8565b806131f25750613231565b7f3fbb0b019262e61f3fe8822e65feede48b2eeca90914ea7405e2f75fdfab232781604051613221919061434a565b60405180910390a1506132f8565b505b3d6000803e3d6000fd5b60005b85878151811061325057613250614be2565b602002602001015160200151518110156132f657600086888151811061327857613278614be2565b602002602001015160200151828151811061329557613295614be2565b60200260200101516000015190506132b08186888787613ad3565b6132e361016189815481106132c7576132c7614be2565b6000918252602090912001546001600160a01b03168783613b5f565b50806132ee81614cb3565b91505061323e565b505b5050600161012d5550505050565b60c980546001600160a01b038381166001600160a01b0319831681179093556040519116919082907f8be0079c531659141344cd1fd0a4f28419497f9722a3daafe3b4186f6b6457e090600090a35050565b60008061337761336e60608501604086016145a3565b33308635613bd3565b6000613386608085018561512a565b905011156134015761339e60808401606085016145a3565b6133f86133b160608601604087016145a3565b6133be608087018761512a565b8080601f01602080910402602001604051908101604052809392919081815260200183838082843760009201919091525061231892505050565b91509150915091565b61341160608401604085016145a3565b93923592915050565b600080805b61016154811015613610576000610161828154811061344057613440614be2565b6000918252602082200154604080516306fdde0360e01b815290516001600160a01b03909216926306fdde03926004808401938290030181865afa15801561348c573d6000803e3d6000fd5b505050506040513d6000823e601f3d908101601f191682016040526134b49190810190614c3c565b905060006134e386610160846040516134cd91906150f8565b9081526020016040518091039020546064612e80565b9050806000036134f45750506135fe565b61352787610161858154811061350c5761350c614be2565b6000918252602090912001546001600160a01b031683613728565b610161838154811061353b5761353b614be2565b60009182526020909120015460405163206ef5bf60e01b81526001600160a01b039091169063206ef5bf906135769084908c90600401615241565b6020604051808303816000875af1158015613595573d6000803e3d6000fd5b505050506040513d601f19601f820116820180604052508101906135b99190614c84565b9350600084116135fb5760405162461bcd60e51b815260206004820152600d60248201526c16985c0b525b8819985a5b1959609a1b6044820152606401610b74565b50505b8061360881614cb3565b91505061341f565b50949350505050565b60008061362b836402540be400613c0c565b915091508161366e5760405162461bcd60e51b815260206004820152600f60248201526e111a5d9a5cda5bdb8819985a5b1959608a1b6044820152606401610b74565b600081116136b05760405162461bcd60e51b815260206004820152600f60248201526e0536861726573206d757374203e203608c1b6044820152606401610b74565b610c786136c360408601602087016145a3565b82613c40565b6040516001600160a01b03838116602483015260448201839052611ba391859182169063a9059cbb906064015b604051602081830303815290604052915060e01b6020820180516001600160e01b038381831617835250505050613d2b565b604080516001600160a01b038416602482015260448082018490528251808303909101815260649091019091526020810180516001600160e01b031663095ea7b360e01b1790526137798482613d8e565b610c78576040516001600160a01b038481166024830152600060448301526137ae91869182169063095ea7b3906064016136f6565b610c788482613d2b565b600054610100900460ff166137df5760405162461bcd60e51b8152600401610b7490614d00565b609a6137eb8382615339565b50609b611ba38282615339565b600054610100900460ff1661381f5760405162461bcd60e51b8152600401610b7490614d00565b611eba33613306565b600054610100900460ff1661384f5760405162461bcd60e51b8152600401610b7490614d00565b600161012d55565b600054610100900460ff1661387e5760405162461bcd60e51b8152600401610b7490614d00565b60fb805460ff19169055565b60408051808201825233808252825180840184526000808252845190815260208082019095528482015292820192909252906001600160a01b038416148015906138dc57506001600160a01b03841615155b80156138f057506001600160a01b03831615155b15610c7857613900816000611873565b610c7883613e31565b600061391460995490565b60000361392357506000919050565b6000806139388461393360995490565b613c0c565b9150915081610d0c5760405162461bcd60e51b815260206004820152600f60248201526e111a5d9a5cda5bdb8819985a5b1959608a1b6044820152606401610b74565b6001600160a01b0381163b6139e85760405162461bcd60e51b815260206004820152602d60248201527f455243313936373a206e657720696d706c656d656e746174696f6e206973206e60448201526c1bdd08184818dbdb9d1c9858dd609a1b6064820152608401610b74565b60008051602061541683398151915280546001600160a01b0319166001600160a01b0392909216919091179055565b613a2083613f85565b600082511180613a2d5750805b15611ba357610c788383613fc5565b336000908152609760209081526040808320546101639092528083209051613a659086906150f8565b9081526040805191829003602090810183206001600160a01b0387166000908152915220549061016590613a9a9087906150f8565b90815260408051602092819003830190206001600160a01b03871660009081529252902054613ac99190614ebc565b610d0c9190615170565b84821515600003613b35573360009081526101626020526040908190209051613b30918391859190613b069089906150f8565b90815260408051602092819003830190206001600160a01b038c16600090815292529020546136c9565b611b9f565b6000613b45828760200151612318565b9050613b56866000015184836136c9565b50505050505050565b6001600160a01b03808416600090815261016460209081526040808320938516835292815282822082905533825261016290528181209151909190613ba59085906150f8565b90815260408051602092819003830190206001600160a01b0394909416600090815293909152909120555050565b6040516001600160a01b038481166024830152838116604483015260648201839052610c789186918216906323b872dd906084016136f6565b60008082600003613c2257506000905080613c39565b6001838581613c3357613c33615187565b04915091505b9250929050565b6001600160a01b038216613c965760405162461bcd60e51b815260206004820152601f60248201527f45524332303a206d696e7420746f20746865207a65726f2061646472657373006044820152606401610b74565b613ca26000838361388a565b8060996000828254613cb491906150a0565b90915550506001600160a01b03821660009081526097602052604081208054839290613ce19084906150a0565b90915550506040518181526001600160a01b038316906000907fddf252ad1be2c89b69c2b068fc378daa952ba7f163c4a11628f55a4df523b3ef9060200160405180910390a35050565b6000613d406001600160a01b038416836140b0565b90508051600014158015613d65575080806020019051810190613d6391906153f8565b155b15611ba357604051635274afe760e01b81526001600160a01b0384166004820152602401610b74565b6000806000846001600160a01b031684604051613dab91906150f8565b6000604051808303816000865af19150503d8060008114613de8576040519150601f19603f3d011682016040523d82523d6000602084013e613ded565b606091505b5091509150818015613e17575080511580613e17575080806020019051810190613e1791906153f8565b80156124a55750505050506001600160a01b03163b151590565b6000613e3c30610d13565b905060005b8151811015611ba35760005b828281518110613e5f57613e5f614be2565b60200260200101516020015151811015613f72576000838381518110613e8757613e87614be2565b6020026020010151602001518281518110613ea457613ea4614be2565b60200260200101516000015190506000848481518110613ec657613ec6614be2565b602002602001015160000151905061016581604051613ee591906150f8565b90815260408051602092819003830181206001600160a01b03868116600090815291855283822054908b1682526101639094529190912090613f289084906150f8565b90815260200160405180910390206000846001600160a01b03166001600160a01b031681526020019081526020016000208190555050508080613f6a90614cb3565b915050613e4d565b5080613f7d81614cb3565b915050613e41565b613f8e8161397b565b6040516001600160a01b038216907fbc7cd75a20ee27fd9adebab32041f755214dbc6bffa90cc0225b39da2e5c2d3b90600090a250565b60606001600160a01b0383163b61402d5760405162461bcd60e51b815260206004820152602660248201527f416464726573733a2064656c65676174652063616c6c20746f206e6f6e2d636f6044820152651b9d1c9858dd60d21b6064820152608401610b74565b600080846001600160a01b03168460405161404891906150f8565b600060405180830381855af49150503d8060008114614083576040519150601f19603f3d011682016040523d82523d6000602084013e614088565b606091505b50915091506124a58282604051806060016040528060278152602001615436602791396140be565b6060610d0c838360006140f7565b606083156140cd575081610d0c565b8251156140dd5782518084602001fd5b8160405162461bcd60e51b8152600401610b74919061434a565b60608147101561411c5760405163cd78605960e01b8152306004820152602401610b74565b600080856001600160a01b0316848660405161413891906150f8565b60006040518083038185875af1925050503d8060008114614175576040519150601f19603f3d011682016040523d82523d6000602084013e61417a565b606091505b5091509150612b6b86838360608261419a57614195826141e1565b610d0c565b81511580156141b157506001600160a01b0384163b155b156141da57604051639996b31560e01b81526001600160a01b0385166004820152602401610b74565b5080610d0c565b8051156141f15780518082602001fd5b604051630a12f52160e11b815260040160405180910390fd5b82805482825590600052602060002090810192821561425f579160200282015b8281111561425f57825182546001600160a01b0319166001600160a01b0390911617825560209092019160019091019061422a565b5061426b92915061426f565b5090565b5b8082111561426b5760008155600101614270565b60005b8381101561429f578181015183820152602001614287565b50506000910152565b600081518084526142c0816020860160208601614284565b601f01601f19169290920160200192915050565b60006020808301818452808551808352604092508286019150828160051b87010184880160005b8381101561433c57888303603f190185528151805187855261431f888601826142a8565b9189015194890194909452948701949250908601906001016142fb565b509098975050505050505050565b602081526000610d0c60208301846142a8565b634e487b7160e01b600052604160045260246000fd5b604081018181106001600160401b03821117156143925761439261435d565b60405250565b601f8201601f191681016001600160401b03811182821017156143bd576143bd61435d565b6040525050565b60006001600160401b038211156143dd576143dd61435d565b50601f01601f191660200190565b600082601f8301126143fc57600080fd5b8135614407816143c4565b6040516144148282614398565b82815285602084870101111561442957600080fd5b82602086016020830137600092810160200192909252509392505050565b6001600160a01b03811681146110d957600080fd5b60008060006060848603121561447157600080fd5b83356001600160401b038082111561448857600080fd5b614494878388016143eb565b945060208601359150808211156144aa57600080fd5b506144b7868287016143eb565b92505060408401356144c881614447565b809150509250925092565b600080604083850312156144e657600080fd5b82356144f181614447565b946020939093013593505050565b6000806040838503121561451257600080fd5b82356001600160401b038082111561452957600080fd5b614535868387016143eb565b9350602085013591508082111561454b57600080fd5b50614558858286016143eb565b9150509250929050565b60008060006060848603121561457757600080fd5b833561458281614447565b9250602084013561459281614447565b929592945050506040919091013590565b6000602082840312156145b557600080fd5b8135610d0c81614447565b60006020808301818452808551808352604092508286019150828160051b8701018488016000805b8481101561466e57898403603f190186528251805188865261460c898701826142a8565b918a0151868303878c01528051808452908b01928592508b01905b8083101561465957835180516001600160a01b031683528c01518c830152928b019260019290920191908a0190614627565b50978a019795505050918701916001016145e8565b50919998505050505050505050565b60008060006060848603121561469257600080fd5b833561469d81614447565b925060208401356001600160401b038111156146b857600080fd5b6144b7868287016143eb565b6000602082840312156146d657600080fd5b81356001600160401b038111156146ec57600080fd5b820160608185031215610d0c57600080fd5b6020808252825182820181905260009190848201906040850190845b8181101561473f5783516001600160a01b03168352928401929184019160010161471a565b50909695505050505050565b60008083601f84011261475d57600080fd5b5081356001600160401b0381111561477457600080fd5b602083019150836020828501011115613c3957600080fd5b600080600080600080600060a0888a0312156147a757600080fd5b87356001600160401b03808211156147be57600080fd5b6147ca8b838c0161474b565b909950975060208a013591506147df82614447565b909550604089013590808211156147f557600080fd5b506148028a828b0161474b565b909550935050606088013561481681614447565b809250506080880135905092959891949750929550565b6000806040838503121561484057600080fd5b823561484b81614447565b915060208301356001600160401b0381111561486657600080fd5b614558858286016143eb565b80151581146110d957600080fd5b803561488b81614872565b919050565b600080604083850312156148a357600080fd5b82356001600160401b03808211156148ba57600080fd5b90840190604082870312156148ce57600080fd5b6040516148da81614373565b82356148e581614447565b81526020830135828111156148f957600080fd5b92909201916040838803121561490e57600080fd5b60405161491a81614373565b833561492581614447565b815260208401358381111561493957600080fd5b614945898287016143eb565b6020830152508060208301525080945050505061496460208401614880565b90509250929050565b60008060006060848603121561498257600080fd5b833561498d81614447565b92506020840135915060408401356001600160401b038111156149af57600080fd5b6149bb868287016143eb565b9150509250925092565b600080604083850312156149d857600080fd5b82356001600160401b038111156149ee57600080fd5b6149fa858286016143eb565b9250506020830135614a0b81614447565b809150509250929050565b6000604082016040835280855180835260608501915060608160051b8601019250602080880160005b83811015614a6d57605f19888703018552614a5b8683516142a8565b95509382019390820190600101614a3f565b50508584038187015286518085528782019482019350915060005b82811015614aa457845184529381019392810192600101614a88565b5091979650505050505050565b600060208284031215614ac357600080fd5b81356001600160401b03811115614ad957600080fd5b820160e08185031215610d0c57600080fd5b600060208284031215614afd57600080fd5b5035919050565b600060208284031215614b1657600080fd5b81356001600160401b03811115614b2c57600080fd5b614b38848285016143eb565b949350505050565b60008060408385031215614b5357600080fd5b8235614b5e81614447565b91506020830135614a0b81614447565b60008060208385031215614b8157600080fd5b82356001600160401b0380821115614b9857600080fd5b818501915085601f830112614bac57600080fd5b813581811115614bbb57600080fd5b8660208260051b8501011115614bd057600080fd5b60209290920196919550909350505050565b634e487b7160e01b600052603260045260246000fd5b6000614c03836143c4565b604051614c108282614398565b809250848152858585011115614c2557600080fd5b614c33856020830186614284565b50509392505050565b600060208284031215614c4e57600080fd5b81516001600160401b03811115614c6457600080fd5b8201601f81018413614c7557600080fd5b614b3884825160208401614bf8565b600060208284031215614c9657600080fd5b5051919050565b634e487b7160e01b600052601160045260246000fd5b600060018201614cc557614cc5614c9d565b5060010190565b600181811c90821680614ce057607f821691505b602082108103610a4357634e487b7160e01b600052602260045260246000fd5b6020808252602b908201527f496e697469616c697a61626c653a20636f6e7472616374206973206e6f74206960408201526a6e697469616c697a696e6760a81b606082015260800190565b60006020808385031215614d5e57600080fd5b82516001600160401b0380821115614d7557600080fd5b818501915085601f830112614d8957600080fd5b815181811115614d9b57614d9b61435d565b604091508151614db0858360051b0182614398565b81815260069190911b830184019084810188831115614dce57600080fd5b938501935b82851015614e185783858a031215614deb5760008081fd5b8351614df681614373565b8551614e0181614447565b815285870151878201528152938301938501614dd3565b50979650505050505050565b6020808252602c908201527f46756e6374696f6e206d7573742062652063616c6c6564207468726f7567682060408201526b19195b1959d85d1958d85b1b60a21b606082015260800190565b6020808252602c908201527f46756e6374696f6e206d7573742062652063616c6c6564207468726f7567682060408201526b6163746976652070726f787960a01b606082015260800190565b81810381811115610c9257610c92614c9d565b6020808252601f908201527f5265656e7472616e637947756172643a207265656e7472616e742063616c6c00604082015260600190565b6000808335601e19843603018112614f1d57600080fd5b83016020810192503590506001600160401b03811115614f3c57600080fd5b803603821315613c3957600080fd5b81835281816020850137506000828201602090810191909152601f909101601f19169091010190565b828152604060208201528135604082015260006020830135614f9581614447565b6001600160a01b03908116606084015260408401359036859003607e19018212614fbe57600080fd5b60606080850152908401908135614fd481614447565b811660a0850152602082013560c08501526040820135614ff381614447565b1660e08401526150066060820182614f06565b91506080610100850152612b6b61012085018383614f4b565b6000806000806080858703121561503557600080fd5b84519350602085015161504781614447565b604086015190935061505881614447565b60608601519092506001600160401b0381111561507457600080fd5b8501601f8101871361508557600080fd5b61509487825160208401614bf8565b91505092959194509250565b80820180821115610c9257610c92614c9d565b8183823760009101908152919050565b6c2ab735b737bb902b30bab63a1d60991b8152600082516150eb81600d850160208701614284565b91909101600d0192915050565b6000825161510a818460208701614284565b9190910192915050565b60008235603e1983360301811261510a57600080fd5b6000808335601e1984360301811261514157600080fd5b8301803591506001600160401b0382111561515b57600080fd5b602001915036819003821315613c3957600080fd5b8082028115828204841417610c9257610c92614c9d565b634e487b7160e01b600052601260045260246000fd5b600060033d11156118705760046000803e5060005160e01c90565b600060443d10156151c65790565b6040516003193d81016004833e81513d6001600160401b0381602484011181841117156151f557505050505090565b828501915081518181111561520d5750505050505090565b843d87010160208285010111156152275750505050505090565b61523660208286010187614398565b509095945050505050565b82815260406020820152813560408201526000602083013561526281614447565b6001600160a01b03908116606084015260408401359061528182614447565b908116608084015260608401359061529882614447565b80821660a08501526152ad6080860186614f06565b925060e060c08601526152c561012086018483614f4b565b92505060a08501356152d681614447565b1660e084015260c093909301356101009092019190915250919050565b601f821115611ba357600081815260208120601f850160051c8101602086101561531a5750805b601f850160051c820191505b81811015611b9f57828155600101615326565b81516001600160401b038111156153525761535261435d565b615366816153608454614ccc565b846152f3565b602080601f83116001811461539b57600084156153835750858301515b600019600386901b1c1916600185901b178555611b9f565b600085815260208120601f198616915b828110156153ca578886015182559484019460019091019084016153ab565b50858210156153e85787850151600019600388901b60f8161c191681555b5050505050600190811b01905550565b60006020828403121561540a57600080fd5b8151610d0c8161487256fe360894a13ba1a3210667c828492db98dca3e2076cc3735a920a3ca505d382bbc416464726573733a206c6f772d6c6576656c2064656c65676174652063616c6c206661696c656475736572526577617264506572546f6b656e50616964506f696e7465724d617070696e67a26469706673582212204d377c0601f8f355ae681855997821a8486720ba1054f9a2cc07a9f24ccf6c1764736f6c63430008140033",
  "linkReferences": {},
  "deployedLinkReferences": {}
}