{
  "_format": "hh-sol-artifact-1",
  "contractName": "StableCoinVault",
  "sourceName": "contracts/StableCoinVault.sol",
  "abi": [
    {
      "inputs": [
        {
          "internalType": "address",
          "name": "target",
          "type": "address"
        }
      ],
      "name": "AddressEmptyCode",
      "type": "error"
    },
    {
      "inputs": [
        {
          "internalType": "address",
          "name": "account",
          "type": "address"
        }
      ],
      "name": "AddressInsufficientBalance",
      "type": "error"
    },
    {
      "inputs": [],
      "name": "FailedInnerCall",
      "type": "error"
    },
    {
      "inputs": [],
      "name": "MathOverflowedMulDiv",
      "type": "error"
    },
    {
      "inputs": [
        {
          "internalType": "address",
          "name": "token",
          "type": "address"
        }
      ],
      "name": "SafeERC20FailedOperation",
      "type": "error"
    },
    {
      "anonymous": false,
      "inputs": [
        {
          "indexed": false,
          "internalType": "address",
          "name": "previousAdmin",
          "type": "address"
        },
        {
          "indexed": false,
          "internalType": "address",
          "name": "newAdmin",
          "type": "address"
        }
      ],
      "name": "AdminChanged",
      "type": "event"
    },
    {
      "anonymous": false,
      "inputs": [
        {
          "indexed": true,
          "internalType": "address",
          "name": "owner",
          "type": "address"
        },
        {
          "indexed": true,
          "internalType": "address",
          "name": "spender",
          "type": "address"
        },
        {
          "indexed": false,
          "internalType": "uint256",
          "name": "value",
          "type": "uint256"
        }
      ],
      "name": "Approval",
      "type": "event"
    },
    {
      "anonymous": false,
      "inputs": [
        {
          "indexed": true,
          "internalType": "address",
          "name": "beacon",
          "type": "address"
        }
      ],
      "name": "BeaconUpgraded",
      "type": "event"
    },
    {
      "anonymous": false,
      "inputs": [
        {
          "indexed": false,
          "internalType": "string",
          "name": "errorMessage",
          "type": "string"
        }
      ],
      "name": "ClaimError",
      "type": "event"
    },
    {
      "anonymous": false,
      "inputs": [
        {
          "indexed": false,
          "internalType": "uint8",
          "name": "version",
          "type": "uint8"
        }
      ],
      "name": "Initialized",
      "type": "event"
    },
    {
      "anonymous": false,
      "inputs": [
        {
          "indexed": true,
          "internalType": "address",
          "name": "previousOwner",
          "type": "address"
        },
        {
          "indexed": true,
          "internalType": "address",
          "name": "newOwner",
          "type": "address"
        }
      ],
      "name": "OwnershipTransferred",
      "type": "event"
    },
    {
      "anonymous": false,
      "inputs": [
        {
          "indexed": false,
          "internalType": "address",
          "name": "account",
          "type": "address"
        }
      ],
      "name": "Paused",
      "type": "event"
    },
    {
      "anonymous": false,
      "inputs": [
        {
          "indexed": true,
          "internalType": "address",
          "name": "from",
          "type": "address"
        },
        {
          "indexed": true,
          "internalType": "address",
          "name": "to",
          "type": "address"
        },
        {
          "indexed": false,
          "internalType": "uint256",
          "name": "value",
          "type": "uint256"
        }
      ],
      "name": "Transfer",
      "type": "event"
    },
    {
      "anonymous": false,
      "inputs": [
        {
          "indexed": false,
          "internalType": "address",
          "name": "account",
          "type": "address"
        }
      ],
      "name": "Unpaused",
      "type": "event"
    },
    {
      "anonymous": false,
      "inputs": [
        {
          "indexed": true,
          "internalType": "address",
          "name": "implementation",
          "type": "address"
        }
      ],
      "name": "Upgraded",
      "type": "event"
    },
    {
      "inputs": [],
      "name": "UNIT_OF_SHARES",
      "outputs": [
        {
          "internalType": "uint256",
          "name": "",
          "type": "uint256"
        }
      ],
      "stateMutability": "view",
      "type": "function"
    },
    {
      "inputs": [
        {
          "internalType": "string",
          "name": "name_",
          "type": "string"
        },
        {
          "internalType": "string",
          "name": "symbol_",
          "type": "string"
        }
      ],
      "name": "_initialize",
      "outputs": [],
      "stateMutability": "nonpayable",
      "type": "function"
    },
    {
      "inputs": [
        {
          "internalType": "contract IERC20",
          "name": "tokenForSwap",
          "type": "address"
        },
        {
          "internalType": "bytes",
          "name": "aggregatorData",
          "type": "bytes"
        }
      ],
      "name": "_swap",
      "outputs": [
        {
          "internalType": "uint256",
          "name": "",
          "type": "uint256"
        }
      ],
      "stateMutability": "nonpayable",
      "type": "function"
    },
    {
      "inputs": [
        {
          "internalType": "address",
          "name": "owner",
          "type": "address"
        },
        {
          "internalType": "address",
          "name": "spender",
          "type": "address"
        }
      ],
      "name": "allowance",
      "outputs": [
        {
          "internalType": "uint256",
          "name": "",
          "type": "uint256"
        }
      ],
      "stateMutability": "view",
      "type": "function"
    },
    {
      "inputs": [
        {
          "internalType": "address",
          "name": "spender",
          "type": "address"
        },
        {
          "internalType": "uint256",
          "name": "amount",
          "type": "uint256"
        }
      ],
      "name": "approve",
      "outputs": [
        {
          "internalType": "bool",
          "name": "",
          "type": "bool"
        }
      ],
      "stateMutability": "nonpayable",
      "type": "function"
    },
    {
      "inputs": [
        {
          "internalType": "address",
          "name": "account",
          "type": "address"
        }
      ],
      "name": "balanceOf",
      "outputs": [
        {
          "internalType": "uint256",
          "name": "",
          "type": "uint256"
        }
      ],
      "stateMutability": "view",
      "type": "function"
    },
    {
      "inputs": [],
      "name": "balanceOfProtocolFee",
      "outputs": [
        {
          "internalType": "uint256",
          "name": "",
          "type": "uint256"
        }
      ],
      "stateMutability": "view",
      "type": "function"
    },
    {
      "inputs": [
        {
          "components": [
            {
              "internalType": "address",
              "name": "receiver",
              "type": "address"
            },
            {
              "components": [
                {
                  "internalType": "address",
                  "name": "tokenOut",
                  "type": "address"
                },
                {
                  "internalType": "bytes",
                  "name": "aggregatorData",
                  "type": "bytes"
                }
              ],
              "internalType": "struct BasePortfolioV2.VaultClaimData",
              "name": "apolloXClaimData",
              "type": "tuple"
            }
          ],
          "internalType": "struct BasePortfolioV2.ClaimData",
          "name": "claimData",
          "type": "tuple"
        },
        {
          "internalType": "bool",
          "name": "useDump",
          "type": "bool"
        }
      ],
      "name": "claim",
      "outputs": [],
      "stateMutability": "nonpayable",
      "type": "function"
    },
    {
      "inputs": [],
      "name": "decimals",
      "outputs": [
        {
          "internalType": "uint8",
          "name": "",
          "type": "uint8"
        }
      ],
      "stateMutability": "view",
      "type": "function"
    },
    {
      "inputs": [
        {
          "internalType": "address",
          "name": "spender",
          "type": "address"
        },
        {
          "internalType": "uint256",
          "name": "subtractedValue",
          "type": "uint256"
        }
      ],
      "name": "decreaseAllowance",
      "outputs": [
        {
          "internalType": "bool",
          "name": "",
          "type": "bool"
        }
      ],
      "stateMutability": "nonpayable",
      "type": "function"
    },
    {
      "inputs": [
        {
          "components": [
            {
              "internalType": "uint256",
              "name": "amount",
              "type": "uint256"
            },
            {
              "internalType": "address",
              "name": "receiver",
              "type": "address"
            },
            {
              "internalType": "address",
              "name": "tokenIn",
              "type": "address"
            },
            {
              "internalType": "address",
              "name": "tokenInAfterSwap",
              "type": "address"
            },
            {
              "internalType": "bytes",
              "name": "aggregatorData",
              "type": "bytes"
            },
            {
              "components": [
                {
                  "internalType": "address",
                  "name": "tokenIn",
                  "type": "address"
                },
                {
                  "internalType": "uint256",
                  "name": "minALP",
                  "type": "uint256"
                }
              ],
              "internalType": "struct ApolloXDepositData",
              "name": "apolloXDepositData",
              "type": "tuple"
            }
          ],
          "internalType": "struct DepositData",
          "name": "depositData",
          "type": "tuple"
        }
      ],
      "name": "deposit",
      "outputs": [],
      "stateMutability": "nonpayable",
      "type": "function"
    },
    {
      "inputs": [
        {
          "internalType": "address payable",
          "name": "owner",
          "type": "address"
        }
      ],
      "name": "getClaimableRewards",
      "outputs": [
        {
          "components": [
            {
              "internalType": "string",
              "name": "protocol",
              "type": "string"
            },
            {
              "components": [
                {
                  "internalType": "address",
                  "name": "token",
                  "type": "address"
                },
                {
                  "internalType": "uint256",
                  "name": "amount",
                  "type": "uint256"
                }
              ],
              "internalType": "struct IFeeDistribution.RewardData[]",
              "name": "claimableRewards",
              "type": "tuple[]"
            }
          ],
          "internalType": "struct BasePortfolioV2.ClaimableRewardOfAProtocol[]",
          "name": "",
          "type": "tuple[]"
        }
      ],
      "stateMutability": "view",
      "type": "function"
    },
    {
      "inputs": [],
      "name": "getPortfolioAllocation",
      "outputs": [
        {
          "internalType": "string[]",
          "name": "",
          "type": "string[]"
        },
        {
          "internalType": "uint256[]",
          "name": "",
          "type": "uint256[]"
        }
      ],
      "stateMutability": "view",
      "type": "function"
    },
    {
      "inputs": [],
      "name": "getVaults",
      "outputs": [
        {
          "internalType": "contract AbstractVaultV2[]",
          "name": "",
          "type": "address[]"
        }
      ],
      "stateMutability": "view",
      "type": "function"
    },
    {
      "inputs": [
        {
          "internalType": "address",
          "name": "spender",
          "type": "address"
        },
        {
          "internalType": "uint256",
          "name": "addedValue",
          "type": "uint256"
        }
      ],
      "name": "increaseAllowance",
      "outputs": [
        {
          "internalType": "bool",
          "name": "",
          "type": "bool"
        }
      ],
      "stateMutability": "nonpayable",
      "type": "function"
    },
    {
      "inputs": [
        {
          "internalType": "string",
          "name": "name_",
          "type": "string"
        },
        {
          "internalType": "string",
          "name": "symbol_",
          "type": "string"
        },
        {
          "internalType": "address",
          "name": "apolloXBscVaultAddr",
          "type": "address"
        }
      ],
      "name": "initialize",
      "outputs": [],
      "stateMutability": "nonpayable",
      "type": "function"
    },
    {
      "inputs": [],
      "name": "name",
      "outputs": [
        {
          "internalType": "string",
          "name": "",
          "type": "string"
        }
      ],
      "stateMutability": "view",
      "type": "function"
    },
    {
      "inputs": [],
      "name": "oneInchAggregatorAddress",
      "outputs": [
        {
          "internalType": "address",
          "name": "",
          "type": "address"
        }
      ],
      "stateMutability": "view",
      "type": "function"
    },
    {
      "inputs": [],
      "name": "owner",
      "outputs": [
        {
          "internalType": "address",
          "name": "",
          "type": "address"
        }
      ],
      "stateMutability": "view",
      "type": "function"
    },
    {
      "inputs": [],
      "name": "paused",
      "outputs": [
        {
          "internalType": "bool",
          "name": "",
          "type": "bool"
        }
      ],
      "stateMutability": "view",
      "type": "function"
    },
    {
      "inputs": [
        {
          "internalType": "address",
          "name": "",
          "type": "address"
        },
        {
          "internalType": "address",
          "name": "",
          "type": "address"
        }
      ],
      "name": "pointersOfThisPortfolioForRecordingDistributedRewards",
      "outputs": [
        {
          "internalType": "uint256",
          "name": "",
          "type": "uint256"
        }
      ],
      "stateMutability": "view",
      "type": "function"
    },
    {
      "inputs": [
        {
          "internalType": "string",
          "name": "",
          "type": "string"
        }
      ],
      "name": "portfolioAllocation",
      "outputs": [
        {
          "internalType": "uint256",
          "name": "",
          "type": "uint256"
        }
      ],
      "stateMutability": "view",
      "type": "function"
    },
    {
      "inputs": [],
      "name": "proxiableUUID",
      "outputs": [
        {
          "internalType": "bytes32",
          "name": "",
          "type": "bytes32"
        }
      ],
      "stateMutability": "view",
      "type": "function"
    },
    {
      "inputs": [
        {
          "components": [
            {
              "internalType": "uint256",
              "name": "amount",
              "type": "uint256"
            },
            {
              "internalType": "address",
              "name": "receiver",
              "type": "address"
            },
            {
              "components": [
                {
                  "internalType": "address",
                  "name": "alpTokenOut",
                  "type": "address"
                },
                {
                  "internalType": "uint256",
                  "name": "minOut",
                  "type": "uint256"
                },
                {
                  "internalType": "address",
                  "name": "tokenOut",
                  "type": "address"
                },
                {
                  "internalType": "bytes",
                  "name": "aggregatorData",
                  "type": "bytes"
                }
              ],
              "internalType": "struct ApolloXRedeemData",
              "name": "apolloXRedeemData",
              "type": "tuple"
            }
          ],
          "internalType": "struct RedeemData",
          "name": "redeemData",
          "type": "tuple"
        }
      ],
      "name": "redeem",
      "outputs": [],
      "stateMutability": "nonpayable",
      "type": "function"
    },
    {
      "inputs": [],
      "name": "renounceOwnership",
      "outputs": [],
      "stateMutability": "nonpayable",
      "type": "function"
    },
    {
      "inputs": [
        {
          "internalType": "uint256",
          "name": "amount",
          "type": "uint256"
        }
      ],
      "name": "rescueETH",
      "outputs": [],
      "stateMutability": "nonpayable",
      "type": "function"
    },
    {
      "inputs": [
        {
          "internalType": "address",
          "name": "tokenAddress",
          "type": "address"
        },
        {
          "internalType": "uint256",
          "name": "amount",
          "type": "uint256"
        }
      ],
      "name": "rescueFunds",
      "outputs": [],
      "stateMutability": "nonpayable",
      "type": "function"
    },
    {
      "inputs": [
        {
          "internalType": "address payable",
          "name": "destination",
          "type": "address"
        },
        {
          "internalType": "uint256",
          "name": "amount",
          "type": "uint256"
        },
        {
          "internalType": "bytes",
          "name": "hexData",
          "type": "bytes"
        }
      ],
      "name": "rescueFundsWithHexData",
      "outputs": [],
      "stateMutability": "nonpayable",
      "type": "function"
    },
    {
      "inputs": [
        {
          "internalType": "string",
          "name": "",
          "type": "string"
        },
        {
          "internalType": "address",
          "name": "",
          "type": "address"
        }
      ],
      "name": "rewardPerShareZappedIn",
      "outputs": [
        {
          "internalType": "uint256",
          "name": "",
          "type": "uint256"
        }
      ],
      "stateMutability": "view",
      "type": "function"
    },
    {
      "inputs": [
        {
          "components": [
            {
              "internalType": "string",
              "name": "protocol",
              "type": "string"
            },
            {
              "internalType": "uint256",
              "name": "percentage",
              "type": "uint256"
            }
          ],
          "internalType": "struct BasePortfolioV2.PortfolioAllocationOfSingleCategory[]",
          "name": "portfolioAllocation_",
          "type": "tuple[]"
        }
      ],
      "name": "setVaultAllocations",
      "outputs": [],
      "stateMutability": "nonpayable",
      "type": "function"
    },
    {
      "inputs": [],
      "name": "symbol",
      "outputs": [
        {
          "internalType": "string",
          "name": "",
          "type": "string"
        }
      ],
      "stateMutability": "view",
      "type": "function"
    },
    {
      "inputs": [],
      "name": "totalAssets",
      "outputs": [
        {
          "components": [
            {
              "internalType": "string",
              "name": "vaultName",
              "type": "string"
            },
            {
              "internalType": "uint256",
              "name": "assets",
              "type": "uint256"
            }
          ],
          "internalType": "struct BasePortfolioV2.SharesOfVault[]",
          "name": "",
          "type": "tuple[]"
        }
      ],
      "stateMutability": "view",
      "type": "function"
    },
    {
      "inputs": [],
      "name": "totalSupply",
      "outputs": [
        {
          "internalType": "uint256",
          "name": "",
          "type": "uint256"
        }
      ],
      "stateMutability": "view",
      "type": "function"
    },
    {
      "inputs": [
        {
          "internalType": "address",
          "name": "to",
          "type": "address"
        },
        {
          "internalType": "uint256",
          "name": "amount",
          "type": "uint256"
        }
      ],
      "name": "transfer",
      "outputs": [
        {
          "internalType": "bool",
          "name": "",
          "type": "bool"
        }
      ],
      "stateMutability": "nonpayable",
      "type": "function"
    },
    {
      "inputs": [
        {
          "internalType": "address",
          "name": "from",
          "type": "address"
        },
        {
          "internalType": "address",
          "name": "to",
          "type": "address"
        },
        {
          "internalType": "uint256",
          "name": "amount",
          "type": "uint256"
        }
      ],
      "name": "transferFrom",
      "outputs": [
        {
          "internalType": "bool",
          "name": "",
          "type": "bool"
        }
      ],
      "stateMutability": "nonpayable",
      "type": "function"
    },
    {
      "inputs": [
        {
          "internalType": "address",
          "name": "newOwner",
          "type": "address"
        }
      ],
      "name": "transferOwnership",
      "outputs": [],
      "stateMutability": "nonpayable",
      "type": "function"
    },
    {
      "inputs": [
        {
          "internalType": "address",
          "name": "oneInchAggregatorAddress_",
          "type": "address"
        }
      ],
      "name": "updateOneInchAggregatorAddress",
      "outputs": [],
      "stateMutability": "nonpayable",
      "type": "function"
    },
    {
      "inputs": [
        {
          "internalType": "address",
          "name": "newImplementation",
          "type": "address"
        }
      ],
      "name": "upgradeTo",
      "outputs": [],
      "stateMutability": "nonpayable",
      "type": "function"
    },
    {
      "inputs": [
        {
          "internalType": "address",
          "name": "newImplementation",
          "type": "address"
        },
        {
          "internalType": "bytes",
          "name": "data",
          "type": "bytes"
        }
      ],
      "name": "upgradeToAndCall",
      "outputs": [],
      "stateMutability": "payable",
      "type": "function"
    },
    {
      "inputs": [
        {
          "internalType": "address",
          "name": "",
          "type": "address"
        },
        {
          "internalType": "string",
          "name": "",
          "type": "string"
        },
        {
          "internalType": "address",
          "name": "",
          "type": "address"
        }
      ],
      "name": "userRewardPerTokenPaidPointerMapping",
      "outputs": [
        {
          "internalType": "uint256",
          "name": "",
          "type": "uint256"
        }
      ],
      "stateMutability": "view",
      "type": "function"
    },
    {
      "inputs": [
        {
          "internalType": "address",
          "name": "",
          "type": "address"
        },
        {
          "internalType": "string",
          "name": "",
          "type": "string"
        },
        {
          "internalType": "address",
          "name": "",
          "type": "address"
        }
      ],
      "name": "userRewardsOfInvestedProtocols",
      "outputs": [
        {
          "internalType": "uint256",
          "name": "",
          "type": "uint256"
        }
      ],
      "stateMutability": "view",
      "type": "function"
    },
    {
      "stateMutability": "payable",
      "type": "receive"
    }
  ],
  "bytecode": "0x60a0604052306080523480156200001557600080fd5b506200002062000026565b620000e8565b600054610100900460ff1615620000935760405162461bcd60e51b815260206004820152602760248201527f496e697469616c697a61626c653a20636f6e747261637420697320696e697469604482015266616c697a696e6760c81b606482015260840160405180910390fd5b60005460ff9081161015620000e6576000805460ff191660ff9081179091556040519081527f7f26b83ff96e1f2b6a682f133852f6798a09c465da95921460cefb38474024989060200160405180910390a15b565b608051614f876200012060003960008181610fdc0152818161101c0152818161152b0152818161156b01526115fa0152614f876000f3fe60806040526004361061024a5760003560e01c80635c975abb11610139578063a457c2d7116100b6578063d55507f31161007a578063d55507f314610766578063dd62ed3e14610786578063e34efa56146107a6578063e4c7238b146107c7578063ef1458db146107e7578063f2fde38b1461082057600080fd5b8063a457c2d7146106b4578063a9059cbb146106d4578063acb05f48146106f4578063ae980ae51461070d578063b517c62f1461074657600080fd5b806377b6b73e116100fd57806377b6b73e1461060d57806378e3214f1461062d5780638da5cb5b1461064d57806395d89b411461067f5780639e252f001461069457600080fd5b80635c975abb1461053e57806361bde6b2146105565780636e3cfcc01461059f57806370a08231146105c2578063715018a6146105f857600080fd5b8063327540f7116101c757806344d00f821161018b57806344d00f82146104b45780634f1ef286146104d657806352d1902d146104e957806352f60cc9146104fe57806358b934ae1461051e57600080fd5b8063327540f7146103b45780633659cfe614610404578063373a1b3914610424578063395093511461044457806341700e4c1461046457600080fd5b806318160ddd1161020e57806318160ddd1461031557806323b872dd146103345780632ea5027d14610354578063308e401e1461036b578063313ce5671461039857600080fd5b806301e1d1141461025657806306fdde0314610281578063077f224a146102a3578063095ea7b3146102c5578063098dce13146102f557600080fd5b3661025157005b600080fd5b34801561026257600080fd5b5061026b610840565b6040516102789190613f4d565b60405180910390f35b34801561028d57600080fd5b50610296610a1e565b6040516102789190613fc3565b3480156102af57600080fd5b506102c36102be3660046140d5565b610ab0565b005b3480156102d157600080fd5b506102e56102e036600461414c565b610c53565b6040519015158152602001610278565b34801561030157600080fd5b506102c3610310366004614178565b610c6d565b34801561032157600080fd5b506099545b604051908152602001610278565b34801561034057600080fd5b506102e561034f3660046141db565b610cc2565b34801561036057600080fd5b5061032661015f5481565b34801561037757600080fd5b5061038b61038636600461421c565b610ce8565b6040516102789190614239565b3480156103a457600080fd5b5060405160128152602001610278565b3480156103c057600080fd5b506103266103cf3660046142f6565b610162602090815260009384526040808520845180860184018051928152908401958401959095209452929052825290205481565b34801561041057600080fd5b506102c361041f36600461421c565b610fd2565b34801561043057600080fd5b506102c361043f36600461433d565b6110b1565b34801561045057600080fd5b506102e561045f36600461414c565b61149d565b34801561047057600080fd5b5061032661047f3660046142f6565b610163602090815260009384526040808520845180860184018051928152908401958401959095209452929052825290205481565b3480156104c057600080fd5b506104c96114bf565b6040516102789190614377565b6102c36104e43660046143c4565b611521565b3480156104f557600080fd5b506103266115ed565b34801561050a57600080fd5b506102c3610519366004614417565b6116a1565b34801561052a57600080fd5b506102c361053936600461446d565b6116e6565b34801561054a57600080fd5b5060fb5460ff166102e5565b34801561056257600080fd5b506103266105713660046144c5565b8151602081840181018051610165825292820194820194909420919093529091526000908152604090205481565b3480156105ab57600080fd5b506105b4611830565b60405161027892919061450b565b3480156105ce57600080fd5b506103266105dd36600461421c565b6001600160a01b031660009081526097602052604090205490565b34801561060457600080fd5b506102c36119e6565b34801561061957600080fd5b506102c36106283660046145a6565b6119fa565b34801561063957600080fd5b506102c361064836600461414c565b611c85565b34801561065957600080fd5b5060c9546001600160a01b03165b6040516001600160a01b039091168152602001610278565b34801561068b57600080fd5b50610296611cf7565b3480156106a057600080fd5b506102c36106af3660046145e0565b611d06565b3480156106c057600080fd5b506102e56106cf36600461414c565b611d48565b3480156106e057600080fd5b506102e56106ef36600461414c565b611dce565b34801561070057600080fd5b506103266402540be40081565b34801561071957600080fd5b506103266107283660046145f9565b80516020818301810180516101608252928201919093012091525481565b34801561075257600080fd5b506102c361076136600461421c565b611ddc565b34801561077257600080fd5b506103266107813660046143c4565b611e56565b34801561079257600080fd5b506103266107a1366004614635565b611fec565b3480156107b257600080fd5b5061016654610667906001600160a01b031681565b3480156107d357600080fd5b506102c36107e2366004614663565b612017565b3480156107f357600080fd5b50610326610802366004614635565b61016460209081526000928352604080842090915290825290205481565b34801561082c57600080fd5b506102c361083b36600461421c565b6120b8565b610161546060906000906001600160401b0381111561086157610861613fd6565b6040519080825280602002602001820160405280156108a757816020015b60408051808201909152606081526000602082015281526020019060019003908161087f5790505b50905060005b61016154811015610a185761016181815481106108cc576108cc6146d7565b6000918252602082200154604080516306fdde0360e01b815290516001600160a01b03909216926306fdde03926004808401938290030181865afa158015610918573d6000803e3d6000fd5b505050506040513d6000823e601f3d908101601f191682016040526109409190810190614731565b828281518110610952576109526146d7565b6020026020010151600001819052506101618181548110610975576109756146d7565b60009182526020918290200154604080516278744560e21b815290516001600160a01b03909216926301e1d114926004808401938290030181865afa1580156109c2573d6000803e3d6000fd5b505050506040513d601f19601f820116820180604052508101906109e69190614779565b8282815181106109f8576109f86146d7565b602090810291909101810151015280610a10816147a8565b9150506108ad565b50919050565b6060609a8054610a2d906147c1565b80601f0160208091040260200160405190810160405280929190818152602001828054610a59906147c1565b8015610aa65780601f10610a7b57610100808354040283529160200191610aa6565b820191906000526020600020905b815481529060010190602001808311610a8957829003601f168201915b5050505050905090565b600054610100900460ff1615808015610ad05750600054600160ff909116105b80610aea5750303b158015610aea575060005460ff166001145b610b525760405162461bcd60e51b815260206004820152602e60248201527f496e697469616c697a61626c653a20636f6e747261637420697320616c72656160448201526d191e481a5b9a5d1a585b1a5e995960921b60648201526084015b60405180910390fd5b6000805460ff191660011790558015610b75576000805461ff0019166101001790555b610b7f8484610c6d565b6001600160a01b038216610be05760405162461bcd60e51b815260206004820152602260248201527f61706f6c6c6f584273635661756c74416464722063616e6e6f74206265207a65604482015261726f60f01b6064820152608401610b49565b60408051602081019091526001600160a01b0383168152610c0690610161906001613e83565b508015610c4d576000805461ff0019169055604051600181527f7f26b83ff96e1f2b6a682f133852f6798a09c465da95921460cefb38474024989060200160405180910390a15b50505050565b600033610c6181858561212e565b60019150505b92915050565b600054610100900460ff16610c945760405162461bcd60e51b8152600401610b49906147f5565b610c9e8282612252565b610ca6612283565b610cae6122b2565b610cb66122e1565b610cbe612308565b5050565b600033610cd0858285612337565b610cdb8585856123ab565b60019150505b9392505050565b610161546060906000906001600160401b03811115610d0957610d09613fd6565b604051908082528060200260200182016040528015610d4e57816020015b6040805180820190915260608082526020820152815260200190600190039081610d275790505b50905060005b61016154811015610fcb5760006101618281548110610d7557610d756146d7565b6000918252602082200154604080516306fdde0360e01b815290516001600160a01b03909216926306fdde03926004808401938290030181865afa158015610dc1573d6000803e3d6000fd5b505050506040513d6000823e601f3d908101601f19168201604052610de99190810190614731565b905060006101618381548110610e0157610e016146d7565b6000918252602082200154604080516001620f9a1d60e11b0319815290516001600160a01b039092169263ffe0cbc6926004808401938290030181865afa158015610e50573d6000803e3d6000fd5b505050506040513d6000823e601f3d908101601f19168201604052610e789190810190614840565b9050600081516001600160401b03811115610e9557610e95613fd6565b604051908082528060200260200182016040528015610eda57816020015b6040805180820190915260008082526020820152815260200190600190039081610eb35790505b50905060005b8251811015610f82576000838281518110610efd57610efd6146d7565b60200260200101516000015190506040518060400160405280826001600160a01b03168152602001610f4e8b878681518110610f3b57610f3b6146d7565b6020026020010151602001518986612579565b815250838381518110610f6357610f636146d7565b6020026020010181905250508080610f7a906147a8565b915050610ee0565b50604051806040016040528084815260200182815250858581518110610faa57610faa6146d7565b60200260200101819052505050508080610fc3906147a8565b915050610d54565b5092915050565b6001600160a01b037f000000000000000000000000000000000000000000000000000000000000000016300361101a5760405162461bcd60e51b8152600401610b4990614919565b7f00000000000000000000000000000000000000000000000000000000000000006001600160a01b0316611063600080516020614f0b833981519152546001600160a01b031690565b6001600160a01b0316146110895760405162461bcd60e51b8152600401610b4990614965565b611092816126ad565b604080516000808252602082019092526110ae918391906126b5565b50565b60006110bc30610ce8565b905060005b81518110156112a75760005b8282815181106110df576110df6146d7565b60200260200101516020015151811015611294576000838381518110611107576111076146d7565b6020026020010151602001518281518110611124576111246146d7565b602002602001015160000151905060006101646000610161868154811061114d5761114d6146d7565b60009182526020808320909101546001600160a01b03908116845283820194909452604092830182209386168252929092529020548551869086908110611196576111966146d7565b60200260200101516020015184815181106111b3576111b36146d7565b6020026020010151602001516111c991906149b1565b90508484815181106111dd576111dd6146d7565b60200260200101516020015183815181106111fa576111fa6146d7565b6020026020010151602001516101646000610161878154811061121f5761121f6146d7565b60009182526020808320909101546001600160a01b0390811684528382019490945260409283018220938716825292909252902055845161127f9086908690811061126c5761126c6146d7565b6020026020010151600001518383612820565b5050808061128c906147a8565b9150506110cd565b508061129f816147a8565b9150506110c1565b506112b0612972565b609954823511156113035760405162461bcd60e51b815260206004820152601a60248201527f5368617265732065786365656420746f74616c20737570706c790000000000006044820152606401610b49565b60005b610161548110156114915760006113af610161838154811061132a5761132a6146d7565b6000918252602090912001546040516370a0823160e01b81523060048201526001600160a01b03909116906370a0823190602401602060405180830381865afa15801561137b573d6000803e3d6000fd5b505050506040513d601f19601f8201168201806040525081019061139f9190614779565b85356113aa60995490565b6129b8565b9050801561147e5760008060008061016186815481106113d1576113d16146d7565b6000918252602090912001546040516371f24fd160e11b81526001600160a01b039091169063e3e49fa29061140c9088908c90600401614a32565b6000604051808303816000875af115801561142b573d6000803e3d6000fd5b505050506040513d6000823e601f3d908101601f191682016040526114539190810190614add565b9296509094509250905061147961147060408a0160208b0161421c565b85858585612a7c565b505050505b5080611489816147a8565b915050611306565b50610cbe338335612ab4565b600033610c618185856114b08383611fec565b6114ba9190614b5e565b61212e565b6060610161805480602002602001604051908101604052809291908181526020018280548015610aa657602002820191906000526020600020905b81546001600160a01b031681526001909101906020018083116114fa575050505050905090565b6001600160a01b037f00000000000000000000000000000000000000000000000000000000000000001630036115695760405162461bcd60e51b8152600401610b4990614919565b7f00000000000000000000000000000000000000000000000000000000000000006001600160a01b03166115b2600080516020614f0b833981519152546001600160a01b031690565b6001600160a01b0316146115d85760405162461bcd60e51b8152600401610b4990614965565b6115e1826126ad565b610cbe828260016126b5565b6000306001600160a01b037f0000000000000000000000000000000000000000000000000000000000000000161461168d5760405162461bcd60e51b815260206004820152603860248201527f555550535570677261646561626c653a206d757374206e6f742062652063616c60448201527f6c6564207468726f7567682064656c656761746563616c6c00000000000000006064820152608401610b49565b50600080516020614f0b8339815191525b90565b6116a9612972565b600261012d54036116cc5760405162461bcd60e51b8152600401610b4990614b71565b600261012d556116dc8282612c02565b5050600161012d55565b6116ee612f23565b6001600160a01b0383166117445760405162461bcd60e51b815260206004820152601b60248201527f496e76616c69642064657374696e6174696f6e206164647265737300000000006044820152606401610b49565b8147101561178b5760405162461bcd60e51b8152602060048201526014602482015273496e73756666696369656e742062616c616e636560601b6044820152606401610b49565b6000836001600160a01b031683836040516117a69190614ba8565b60006040518083038185875af1925050503d80600081146117e3576040519150601f19603f3d011682016040523d82523d6000602084013e6117e8565b606091505b5050905080610c4d5760405162461bcd60e51b8152602060048201526014602482015273119d5b99081d1c985b9cd9995c8819985a5b195960621b6044820152606401610b49565b6060806000610161805490506001600160401b0381111561185357611853613fd6565b60405190808252806020026020018201604052801561188657816020015b60608152602001906001900390816118715790505b50610161549091506000906001600160401b038111156118a8576118a8613fd6565b6040519080825280602002602001820160405280156118d1578160200160208202803683370190505b50905060005b610161548110156119dc57600061016182815481106118f8576118f86146d7565b6000918252602082200154604080516306fdde0360e01b815290516001600160a01b03909216926306fdde03926004808401938290030181865afa158015611944573d6000803e3d6000fd5b505050506040513d6000823e601f3d908101601f1916820160405261196c9190810190614731565b905080848381518110611981576119816146d7565b60200260200101819052506101608160405161199d9190614ba8565b9081526020016040518091039020548383815181106119be576119be6146d7565b602090810291909101015250806119d4816147a8565b9150506118d7565b5090939092509050565b6119ee612f23565b6119f86000612f7d565b565b6000611a0530610ce8565b905060005b8151811015611bdd5760005b828281518110611a2857611a286146d7565b60200260200101516020015151811015611bca576000838381518110611a5057611a506146d7565b6020026020010151602001518281518110611a6d57611a6d6146d7565b6020026020010151600001519050600061016460006101618681548110611a9657611a966146d7565b60009182526020808320909101546001600160a01b03908116845283820194909452604092830182209386168252929092529020548551869086908110611adf57611adf6146d7565b6020026020010151602001518481518110611afc57611afc6146d7565b602002602001015160200151611b1291906149b1565b9050848481518110611b2657611b266146d7565b6020026020010151602001518381518110611b4357611b436146d7565b60200260200101516020015161016460006101618781548110611b6857611b686146d7565b60009182526020808320909101546001600160a01b03908116845283820194909452604092830182209387168252929092529020558451611bb59086908690811061126c5761126c6146d7565b50508080611bc2906147a8565b915050611a16565b5080611bd5816147a8565b915050611a0a565b50611be6612972565b600261012d5403611c095760405162461bcd60e51b8152600401610b4990614b71565b600261012d558135611c4f5760405162461bcd60e51b815260206004820152600f60248201526e0616d6f756e74206d757374203e203608c1b6044820152606401610b49565b600080611c5b84612fcf565b915091506000611c6c858484613091565b9050611c788582613290565b5050600161012d55505050565b611c8d612f23565b6001600160a01b038216611cdb5760405162461bcd60e51b8152602060048201526015602482015274496e76616c696420746f6b656e206164647265737360581b6044820152606401610b49565b610cbe82611cf160c9546001600160a01b031690565b83613340565b6060609b8054610a2d906147c1565b611d0e612f23565b60c9546040516001600160a01b039091169082156108fc029083906000818181858888f19350505050158015610cbe573d6000803e3d6000fd5b60003381611d568286611fec565b905083811015611db65760405162461bcd60e51b815260206004820152602560248201527f45524332303a2064656372656173656420616c6c6f77616e63652062656c6f77604482015264207a65726f60d81b6064820152608401610b49565b611dc3828686840361212e565b506001949350505050565b600033610c618185856123ab565b611de4612f23565b6001600160a01b038116611e335760405162461bcd60e51b8152602060048201526016602482015275416464726573732063616e6e6f74206265207a65726f60501b6044820152606401610b49565b61016680546001600160a01b0319166001600160a01b0392909216919091179055565b610166546040516370a0823160e01b8152306004820152600091611ed59185916001600160a01b0390811691908316906370a0823190602401602060405180830381865afa158015611eac573d6000803e3d6000fd5b505050506040513d601f19601f82011682018060405250810190611ed09190614779565b61339f565b6101665460405160009182916001600160a01b0390911690611ef8908690614ba8565b6000604051808303816000865af19150503d8060008114611f35576040519150601f19603f3d011682016040523d82523d6000602084013e611f3a565b606091505b509150915081611fcf5760405162461bcd60e51b815260206004820152605460248201527f41676772656761746f72206661696c656420746f20737761702c20706c65617360448201527f652075706461746520796f757220626c6f636b5f6e756d626572207768656e206064820152731c9d5b9b9a5b99c81a185c991a185d081d195cdd60621b608482015260a401610b49565b80806020019051810190611fe39190614779565b95945050505050565b6001600160a01b03918216600090815260986020908152604080832093909416825291909152205490565b61201f612f23565b60005b818110156120b35782828281811061203c5761203c6146d7565b905060200281019061204e9190614bc4565b60200135610160848484818110612067576120676146d7565b90506020028101906120799190614bc4565b6120839080614bda565b604051612091929190614c20565b90815260405190819003602001902055806120ab816147a8565b915050612022565b505050565b6120c0612f23565b6001600160a01b0381166121255760405162461bcd60e51b815260206004820152602660248201527f4f776e61626c653a206e6577206f776e657220697320746865207a65726f206160448201526564647265737360d01b6064820152608401610b49565b6110ae81612f7d565b6001600160a01b0383166121905760405162461bcd60e51b8152602060048201526024808201527f45524332303a20617070726f76652066726f6d20746865207a65726f206164646044820152637265737360e01b6064820152608401610b49565b6001600160a01b0382166121f15760405162461bcd60e51b815260206004820152602260248201527f45524332303a20617070726f766520746f20746865207a65726f206164647265604482015261737360f01b6064820152608401610b49565b6001600160a01b0383811660008181526098602090815260408083209487168084529482529182902085905590518481527f8c5be1e5ebec7d5bd14f71427d1e84f3dd0314c0f7b2291e5b200ac8c7c3b925910160405180910390a3505050565b600054610100900460ff166122795760405162461bcd60e51b8152600401610b49906147f5565b610cbe828261342f565b600054610100900460ff166122aa5760405162461bcd60e51b8152600401610b49906147f5565b6119f861346f565b600054610100900460ff166122d95760405162461bcd60e51b8152600401610b49906147f5565b6119f861349f565b600054610100900460ff166119f85760405162461bcd60e51b8152600401610b49906147f5565b600054610100900460ff1661232f5760405162461bcd60e51b8152600401610b49906147f5565b6119f86134ce565b60006123438484611fec565b90506000198114610c4d578181101561239e5760405162461bcd60e51b815260206004820152601d60248201527f45524332303a20696e73756666696369656e7420616c6c6f77616e63650000006044820152606401610b49565b610c4d848484840361212e565b6001600160a01b03831661240f5760405162461bcd60e51b815260206004820152602560248201527f45524332303a207472616e736665722066726f6d20746865207a65726f206164604482015264647265737360d81b6064820152608401610b49565b6001600160a01b0382166124715760405162461bcd60e51b815260206004820152602360248201527f45524332303a207472616e7366657220746f20746865207a65726f206164647260448201526265737360e81b6064820152608401610b49565b6001600160a01b038316600090815260976020526040902054818110156124e95760405162461bcd60e51b815260206004820152602660248201527f45524332303a207472616e7366657220616d6f756e7420657863656564732062604482015265616c616e636560d01b6064820152608401610b49565b6001600160a01b03808516600090815260976020526040808220858503905591851681529081208054849290612520908490614b5e565b92505081905550826001600160a01b0316846001600160a01b03167fddf252ad1be2c89b69c2b068fc378daa952ba7f163c4a11628f55a4df523b3ef8460405161256c91815260200190565b60405180910390a3610c4d565b600080306001600160a01b03871603612593575083611fe3565b6001600160a01b038616600090815261016260205260409081902090516125bb908690614ba8565b90815260408051602092819003830181206001600160a01b03878116600090815291855283822054908b16825261016390945291909120906125fe908790614ba8565b90815260408051602092819003830190206001600160a01b0387166000908152925290205461262c87613501565b6101658760405161263d9190614ba8565b90815260408051602092819003830190206001600160a01b0389166000908152925290205461266c9190614b5e565b61267691906149b1565b6001600160a01b0388166000908152609760205260409020546126999190614c30565b6126a39190614b5e565b9695505050505050565b6110ae612f23565b7f4910fdfa16fed3260ed0e7147f7cc6da11a60208b5b9406d12a635614ffd91435460ff16156126e8576120b383613573565b826001600160a01b03166352d1902d6040518163ffffffff1660e01b8152600401602060405180830381865afa925050508015612742575060408051601f3d908101601f1916820190925261273f91810190614779565b60015b6127a55760405162461bcd60e51b815260206004820152602e60248201527f45524331393637557067726164653a206e657720696d706c656d656e7461746960448201526d6f6e206973206e6f74205555505360901b6064820152608401610b49565b600080516020614f0b83398151915281146128145760405162461bcd60e51b815260206004820152602960248201527f45524331393637557067726164653a20756e737570706f727465642070726f786044820152681a58589b195555525160ba1b6064820152608401610b49565b506120b383838361360f565b33156120b35761282f81613501565b610165846040516128409190614ba8565b90815260200160405180910390206000846001600160a01b03166001600160a01b0316815260200190815260200160002060008282546128809190614b5e565b9091555061289090508383613634565b33600090815261016260205260409081902090516128af908690614ba8565b90815260200160405180910390206000846001600160a01b03166001600160a01b0316815260200190815260200160002060008282546128ef9190614b5e565b909155505060405161016590612906908590614ba8565b90815260408051602092819003830181206001600160a01b0386166000908152908452828120543382526101639094529190912090612946908690614ba8565b908152604080519182900360209081019092206001600160a01b03861660009081529252902055505050565b60fb5460ff16156119f85760405162461bcd60e51b815260206004820152601060248201526f14185d5cd8589b194e881c185d5cd95960821b6044820152606401610b49565b60008383028160001985870982811083820303915050806000036129ef578382816129e5576129e5614c47565b0492505050610ce1565b808411612a0f5760405163227bc15360e01b815260040160405180910390fd5b6000848688096000868103871696879004966002600389028118808a02820302808a02820302808a02820302808a02820302808a02820302808a02909103029181900381900460010186841190950394909402919094039290920491909117919091029150509392505050565b805115612aa2576000612a8f8483611e56565b9050612a9c838783613340565b50612aad565b612aad838686613340565b5050505050565b6001600160a01b038216612b145760405162461bcd60e51b815260206004820152602160248201527f45524332303a206275726e2066726f6d20746865207a65726f206164647265736044820152607360f81b6064820152608401610b49565b6001600160a01b03821660009081526097602052604090205481811015612b885760405162461bcd60e51b815260206004820152602260248201527f45524332303a206275726e20616d6f756e7420657863656564732062616c616e604482015261636560f01b6064820152608401610b49565b6001600160a01b0383166000908152609760205260408120838303905560998054849290612bb79084906149b1565b90915550506040518281526000906001600160a01b038516907fddf252ad1be2c89b69c2b068fc378daa952ba7f163c4a11628f55a4df523b3ef9060200160405180910390a3505050565b612c0a612972565b6000612c1530610ce8565b905060005b8151811015612ded5760005b828281518110612c3857612c386146d7565b60200260200101516020015151811015612dda576000838381518110612c6057612c606146d7565b6020026020010151602001518281518110612c7d57612c7d6146d7565b6020026020010151600001519050600061016460006101618681548110612ca657612ca66146d7565b60009182526020808320909101546001600160a01b03908116845283820194909452604092830182209386168252929092529020548551869086908110612cef57612cef6146d7565b6020026020010151602001518481518110612d0c57612d0c6146d7565b602002602001015160200151612d2291906149b1565b9050848481518110612d3657612d366146d7565b6020026020010151602001518381518110612d5357612d536146d7565b60200260200101516020015161016460006101618781548110612d7857612d786146d7565b60009182526020808320909101546001600160a01b03908116845283820194909452604092830182209387168252929092529020558451612dc59086908690811061126c5761126c6146d7565b50508080612dd2906147a8565b915050612c26565b5080612de5816147a8565b915050612c1a565b506000612df933610ce8565b33600090815260976020526040812054919250819003612e1a575050505050565b60005b8251811015612f1b576000838281518110612e3a57612e3a6146d7565b6020908102919091018101515180518183012060408051808201909152600b81526a041706f6c6c6f582d414c560ac1b9301929092529150367f4eb0700daee041259b554026f4b73a9d4f11b2f9aa932706fae5c402e4346b8b8201612eae57612ea760208a018a614bc4565b9050612ee5565b82604051602001612ebf9190614c5d565b60408051601f198184030181529082905262461bcd60e51b8252610b4991600401613fc3565b612f05848785848c8e6000016020810190612f00919061421c565b6136cb565b5050508080612f13906147a8565b915050612e1d565b505050505050565b60c9546001600160a01b031633146119f85760405162461bcd60e51b815260206004820181905260248201527f4f776e61626c653a2063616c6c6572206973206e6f7420746865206f776e65726044820152606401610b49565b60c980546001600160a01b038381166001600160a01b0319831681179093556040519116919082907f8be0079c531659141344cd1fd0a4f28419497f9722a3daafe3b4186f6b6457e090600090a35050565b600080612fee612fe5606085016040860161421c565b333086356138a1565b6000612ffd6080850185614bda565b9050111561307857613015608084016060850161421c565b61306f613028606086016040870161421c565b6130356080870187614bda565b8080601f016020809104026020016040519081016040528093929190818152602001838380828437600092019190915250611e5692505050565b91509150915091565b613088606084016040850161421c565b93923592915050565b600080805b6101615481101561328757600061016182815481106130b7576130b76146d7565b6000918252602082200154604080516306fdde0360e01b815290516001600160a01b03909216926306fdde03926004808401938290030181865afa158015613103573d6000803e3d6000fd5b505050506040513d6000823e601f3d908101601f1916820160405261312b9190810190614731565b9050600061315a86610160846040516131449190614ba8565b90815260200160405180910390205460646129b8565b90508060000361316b575050613275565b61319e876101618581548110613183576131836146d7565b6000918252602090912001546001600160a01b03168361339f565b61016183815481106131b2576131b26146d7565b60009182526020909120015460405163206ef5bf60e01b81526001600160a01b039091169063206ef5bf906131ed9084908c90600401614c92565b6020604051808303816000875af115801561320c573d6000803e3d6000fd5b505050506040513d601f19601f820116820180604052508101906132309190614779565b9350600084116132725760405162461bcd60e51b815260206004820152600d60248201526c16985c0b525b8819985a5b1959609a1b6044820152606401610b49565b50505b8061327f816147a8565b915050613096565b50949350505050565b6000806132a2836402540be4006138da565b91509150816132e55760405162461bcd60e51b815260206004820152600f60248201526e111a5d9a5cda5bdb8819985a5b1959608a1b6044820152606401610b49565b600081116133275760405162461bcd60e51b815260206004820152600f60248201526e0536861726573206d757374203e203608c1b6044820152606401610b49565b610c4d61333a604086016020870161421c565b8261390e565b6040516001600160a01b038381166024830152604482018390526120b391859182169063a9059cbb906064015b604051602081830303815290604052915060e01b6020820180516001600160e01b0383818316178352505050506139ed565b604080516001600160a01b038416602482015260448082018490528251808303909101815260649091019091526020810180516001600160e01b031663095ea7b360e01b1790526133f08482613a50565b610c4d576040516001600160a01b0384811660248301526000604483015261342591869182169063095ea7b39060640161336d565b610c4d84826139ed565b600054610100900460ff166134565760405162461bcd60e51b8152600401610b49906147f5565b609a6134628382614d8a565b50609b6120b38282614d8a565b600054610100900460ff166134965760405162461bcd60e51b8152600401610b49906147f5565b6119f833612f7d565b600054610100900460ff166134c65760405162461bcd60e51b8152600401610b49906147f5565b600161012d55565b600054610100900460ff166134f55760405162461bcd60e51b8152600401610b49906147f5565b60fb805460ff19169055565b600061350c60995490565b60000361351b57506000919050565b6000806135308461352b60995490565b6138da565b9150915081610ce15760405162461bcd60e51b815260206004820152600f60248201526e111a5d9a5cda5bdb8819985a5b1959608a1b6044820152606401610b49565b6001600160a01b0381163b6135e05760405162461bcd60e51b815260206004820152602d60248201527f455243313936373a206e657720696d706c656d656e746174696f6e206973206e60448201526c1bdd08184818dbdb9d1c9858dd609a1b6064820152608401610b49565b600080516020614f0b83398151915280546001600160a01b0319166001600160a01b0392909216919091179055565b61361883613af3565b6000825111806136255750805b156120b357610c4d8383613b33565b33600090815260976020908152604080832054610163909252808320905161365d908690614ba8565b9081526040805191829003602090810183206001600160a01b0387166000908152915220549061016590613692908790614ba8565b90815260408051602092819003830190206001600160a01b038716600090815292529020546136c191906149b1565b610ce19190614c30565b600261012d54036136ee5760405162461bcd60e51b8152600401610b4990614b71565b600261012d55610161805487908110613709576137096146d7565b600091825260208220015460408051634e71d92d60e01b815290516001600160a01b0390921692634e71d92d9260048084019382900301818387803b15801561375157600080fd5b505af1925050508015613762575060015b6137d65761376e614e49565b806308c379a0036137ca5750613782614e64565b8061378d57506137cc565b7f3fbb0b019262e61f3fe8822e65feede48b2eeca90914ea7405e2f75fdfab2327816040516137bc9190613fc3565b60405180910390a150613893565b505b3d6000803e3d6000fd5b60005b8587815181106137eb576137eb6146d7565b60200260200101516020015151811015613891576000868881518110613813576138136146d7565b6020026020010151602001518281518110613830576138306146d7565b602002602001015160000151905061384b8186888787613c1e565b61387e6101618981548110613862576138626146d7565b6000918252602090912001546001600160a01b03168783613cb5565b5080613889816147a8565b9150506137d9565b505b5050600161012d5550505050565b6040516001600160a01b038481166024830152838116604483015260648201839052610c4d9186918216906323b872dd9060840161336d565b600080826000036138f057506000905080613907565b600183858161390157613901614c47565b04915091505b9250929050565b6001600160a01b0382166139645760405162461bcd60e51b815260206004820152601f60248201527f45524332303a206d696e7420746f20746865207a65726f2061646472657373006044820152606401610b49565b80609960008282546139769190614b5e565b90915550506001600160a01b038216600090815260976020526040812080548392906139a3908490614b5e565b90915550506040518181526001600160a01b038316906000907fddf252ad1be2c89b69c2b068fc378daa952ba7f163c4a11628f55a4df523b3ef9060200160405180910390a35050565b6000613a026001600160a01b03841683613d29565b90508051600014158015613a27575080806020019051810190613a259190614eed565b155b156120b357604051635274afe760e01b81526001600160a01b0384166004820152602401610b49565b6000806000846001600160a01b031684604051613a6d9190614ba8565b6000604051808303816000865af19150503d8060008114613aaa576040519150601f19603f3d011682016040523d82523d6000602084013e613aaf565b606091505b5091509150818015613ad9575080511580613ad9575080806020019051810190613ad99190614eed565b8015611fe35750505050506001600160a01b03163b151590565b613afc81613573565b6040516001600160a01b038216907fbc7cd75a20ee27fd9adebab32041f755214dbc6bffa90cc0225b39da2e5c2d3b90600090a250565b60606001600160a01b0383163b613b9b5760405162461bcd60e51b815260206004820152602660248201527f416464726573733a2064656c65676174652063616c6c20746f206e6f6e2d636f6044820152651b9d1c9858dd60d21b6064820152608401610b49565b600080846001600160a01b031684604051613bb69190614ba8565b600060405180830381855af49150503d8060008114613bf1576040519150601f19603f3d011682016040523d82523d6000602084013e613bf6565b606091505b5091509150611fe38282604051806060016040528060278152602001614f2b60279139613d37565b84821515600003613c80573360009081526101626020526040908190209051613c7b918391859190613c51908990614ba8565b90815260408051602092819003830190206001600160a01b038c1660009081529252902054613340565b612f1b565b6000613c93826130356020890189614bda565b9050613cac613ca5602088018861421c565b8483613340565b50505050505050565b6001600160a01b03808416600090815261016460209081526040808320938516835292815282822082905533825261016290528181209151909190613cfb908590614ba8565b90815260408051602092819003830190206001600160a01b0394909416600090815293909152909120555050565b6060610ce183836000613d70565b60608315613d46575081610ce1565b825115613d565782518084602001fd5b8160405162461bcd60e51b8152600401610b499190613fc3565b606081471015613d955760405163cd78605960e01b8152306004820152602401610b49565b600080856001600160a01b03168486604051613db19190614ba8565b60006040518083038185875af1925050503d8060008114613dee576040519150601f19603f3d011682016040523d82523d6000602084013e613df3565b606091505b50915091506126a3868383606082613e1357613e0e82613e5a565b610ce1565b8151158015613e2a57506001600160a01b0384163b155b15613e5357604051639996b31560e01b81526001600160a01b0385166004820152602401610b49565b5080610ce1565b805115613e6a5780518082602001fd5b604051630a12f52160e11b815260040160405180910390fd5b828054828255906000526020600020908101928215613ed8579160200282015b82811115613ed857825182546001600160a01b0319166001600160a01b03909116178255602090920191600190910190613ea3565b50613ee4929150613ee8565b5090565b5b80821115613ee45760008155600101613ee9565b60005b83811015613f18578181015183820152602001613f00565b50506000910152565b60008151808452613f39816020860160208601613efd565b601f01601f19169290920160200192915050565b60006020808301818452808551808352604092508286019150828160051b87010184880160005b83811015613fb557888303603f1901855281518051878552613f9888860182613f21565b918901519489019490945294870194925090860190600101613f74565b509098975050505050505050565b602081526000610ce16020830184613f21565b634e487b7160e01b600052604160045260246000fd5b604081018181106001600160401b038211171561400b5761400b613fd6565b60405250565b601f8201601f191681016001600160401b038111828210171561403657614036613fd6565b6040525050565b60006001600160401b0382111561405657614056613fd6565b50601f01601f191660200190565b600082601f83011261407557600080fd5b81356140808161403d565b60405161408d8282614011565b8281528560208487010111156140a257600080fd5b82602086016020830137600092810160200192909252509392505050565b6001600160a01b03811681146110ae57600080fd5b6000806000606084860312156140ea57600080fd5b83356001600160401b038082111561410157600080fd5b61410d87838801614064565b9450602086013591508082111561412357600080fd5b5061413086828701614064565b9250506040840135614141816140c0565b809150509250925092565b6000806040838503121561415f57600080fd5b823561416a816140c0565b946020939093013593505050565b6000806040838503121561418b57600080fd5b82356001600160401b03808211156141a257600080fd5b6141ae86838701614064565b935060208501359150808211156141c457600080fd5b506141d185828601614064565b9150509250929050565b6000806000606084860312156141f057600080fd5b83356141fb816140c0565b9250602084013561420b816140c0565b929592945050506040919091013590565b60006020828403121561422e57600080fd5b8135610ce1816140c0565b60006020808301818452808551808352604092508286019150828160051b8701018488016000805b848110156142e757898403603f190186528251805188865261428589870182613f21565b918a0151868303878c01528051808452908b01928592508b01905b808310156142d257835180516001600160a01b031683528c01518c830152928b019260019290920191908a01906142a0565b50978a01979550505091870191600101614261565b50919998505050505050505050565b60008060006060848603121561430b57600080fd5b8335614316816140c0565b925060208401356001600160401b0381111561433157600080fd5b61413086828701614064565b60006020828403121561434f57600080fd5b81356001600160401b0381111561436557600080fd5b820160608185031215610ce157600080fd5b6020808252825182820181905260009190848201906040850190845b818110156143b85783516001600160a01b031683529284019291840191600101614393565b50909695505050505050565b600080604083850312156143d757600080fd5b82356143e2816140c0565b915060208301356001600160401b038111156143fd57600080fd5b6141d185828601614064565b80151581146110ae57600080fd5b6000806040838503121561442a57600080fd5b82356001600160401b0381111561444057600080fd5b83016040818603121561445257600080fd5b9150602083013561446281614409565b809150509250929050565b60008060006060848603121561448257600080fd5b833561448d816140c0565b92506020840135915060408401356001600160401b038111156144af57600080fd5b6144bb86828701614064565b9150509250925092565b600080604083850312156144d857600080fd5b82356001600160401b038111156144ee57600080fd5b6144fa85828601614064565b9250506020830135614462816140c0565b6000604082016040835280855180835260608501915060608160051b8601019250602080880160005b8381101561456257605f19888703018552614550868351613f21565b95509382019390820190600101614534565b50508584038187015286518085528782019482019350915060005b828110156145995784518452938101939281019260010161457d565b5091979650505050505050565b6000602082840312156145b857600080fd5b81356001600160401b038111156145ce57600080fd5b820160e08185031215610ce157600080fd5b6000602082840312156145f257600080fd5b5035919050565b60006020828403121561460b57600080fd5b81356001600160401b0381111561462157600080fd5b61462d84828501614064565b949350505050565b6000806040838503121561464857600080fd5b8235614653816140c0565b91506020830135614462816140c0565b6000806020838503121561467657600080fd5b82356001600160401b038082111561468d57600080fd5b818501915085601f8301126146a157600080fd5b8135818111156146b057600080fd5b8660208260051b85010111156146c557600080fd5b60209290920196919550909350505050565b634e487b7160e01b600052603260045260246000fd5b60006146f88361403d565b6040516147058282614011565b80925084815285858501111561471a57600080fd5b614728856020830186613efd565b50509392505050565b60006020828403121561474357600080fd5b81516001600160401b0381111561475957600080fd5b8201601f8101841361476a57600080fd5b61462d848251602084016146ed565b60006020828403121561478b57600080fd5b5051919050565b634e487b7160e01b600052601160045260246000fd5b6000600182016147ba576147ba614792565b5060010190565b600181811c908216806147d557607f821691505b602082108103610a1857634e487b7160e01b600052602260045260246000fd5b6020808252602b908201527f496e697469616c697a61626c653a20636f6e7472616374206973206e6f74206960408201526a6e697469616c697a696e6760a81b606082015260800190565b6000602080838503121561485357600080fd5b82516001600160401b038082111561486a57600080fd5b818501915085601f83011261487e57600080fd5b81518181111561489057614890613fd6565b6040915081516148a5858360051b0182614011565b81815260069190911b8301840190848101888311156148c357600080fd5b938501935b8285101561490d5783858a0312156148e05760008081fd5b83516148eb81613fec565b85516148f6816140c0565b8152858701518782015281529383019385016148c8565b50979650505050505050565b6020808252602c908201527f46756e6374696f6e206d7573742062652063616c6c6564207468726f7567682060408201526b19195b1959d85d1958d85b1b60a21b606082015260800190565b6020808252602c908201527f46756e6374696f6e206d7573742062652063616c6c6564207468726f7567682060408201526b6163746976652070726f787960a01b606082015260800190565b81810381811115610c6757610c67614792565b6000808335601e198436030181126149db57600080fd5b83016020810192503590506001600160401b038111156149fa57600080fd5b80360382131561390757600080fd5b81835281816020850137506000828201602090810191909152601f909101601f19169091010190565b828152604060208201528135604082015260006020830135614a53816140c0565b6001600160a01b03908116606084015260408401359036859003607e19018212614a7c57600080fd5b60606080850152908401908135614a92816140c0565b811660a0850152602082013560c08501526040820135614ab1816140c0565b1660e0840152614ac460608201826149c4565b915060806101008501526126a361012085018383614a09565b60008060008060808587031215614af357600080fd5b845193506020850151614b05816140c0565b6040860151909350614b16816140c0565b60608601519092506001600160401b03811115614b3257600080fd5b8501601f81018713614b4357600080fd5b614b52878251602084016146ed565b91505092959194509250565b80820180821115610c6757610c67614792565b6020808252601f908201527f5265656e7472616e637947756172643a207265656e7472616e742063616c6c00604082015260600190565b60008251614bba818460208701613efd565b9190910192915050565b60008235603e19833603018112614bba57600080fd5b6000808335601e19843603018112614bf157600080fd5b8301803591506001600160401b03821115614c0b57600080fd5b60200191503681900382131561390757600080fd5b8183823760009101908152919050565b8082028115828204841417610c6757610c67614792565b634e487b7160e01b600052601260045260246000fd5b6c2ab735b737bb902b30bab63a1d60991b815260008251614c8581600d850160208701613efd565b91909101600d0192915050565b828152604060208201528135604082015260006020830135614cb3816140c0565b6001600160a01b039081166060840152604084013590614cd2826140c0565b9081166080840152606084013590614ce9826140c0565b80821660a0850152614cfe60808601866149c4565b925060e060c0860152614d1661012086018483614a09565b92505060a0850135614d27816140c0565b1660e084015260c093909301356101009092019190915250919050565b601f8211156120b357600081815260208120601f850160051c81016020861015614d6b5750805b601f850160051c820191505b81811015612f1b57828155600101614d77565b81516001600160401b03811115614da357614da3613fd6565b614db781614db184546147c1565b84614d44565b602080601f831160018114614dec5760008415614dd45750858301515b600019600386901b1c1916600185901b178555612f1b565b600085815260208120601f198616915b82811015614e1b57888601518255948401946001909101908401614dfc565b5085821015614e395787850151600019600388901b60f8161c191681555b5050505050600190811b01905550565b600060033d111561169e5760046000803e5060005160e01c90565b600060443d1015614e725790565b6040516003193d81016004833e81513d6001600160401b038160248401118184111715614ea157505050505090565b8285019150815181811115614eb95750505050505090565b843d8701016020828501011115614ed35750505050505090565b614ee260208286010187614011565b509095945050505050565b600060208284031215614eff57600080fd5b8151610ce18161440956fe360894a13ba1a3210667c828492db98dca3e2076cc3735a920a3ca505d382bbc416464726573733a206c6f772d6c6576656c2064656c65676174652063616c6c206661696c6564a26469706673582212209169bcf2e2bd6e8bb2d277f7502181611dcb1623532b7541261374dc75a777a664736f6c63430008140033",
  "linkReferences": {},
  "deployedLinkReferences": {}
}