{
  "_format": "hh-sol-artifact-1",
  "contractName": "PermanentPortfolioLPToken",
  "sourceName": "contracts/PermanentPortfolioLPToken.sol",
  "abi": [
    {
      "inputs": [
        {
          "internalType": "address",
          "name": "asset_",
          "type": "address"
        },
        {
          "internalType": "string",
          "name": "name_",
          "type": "string"
        },
        {
          "internalType": "string",
          "name": "symbol_",
          "type": "string"
        },
        {
          "internalType": "address payable",
          "name": "dpxVaultAddr",
          "type": "address"
        },
        {
          "internalType": "address",
          "name": "equilibriaVaultAddr",
          "type": "address"
        },
        {
          "internalType": "address",
          "name": "equilibriaGDAIVaultAddr",
          "type": "address"
        },
        {
          "internalType": "address",
          "name": "equilibriaRETHVaultAddr",
          "type": "address"
        }
      ],
      "stateMutability": "nonpayable",
      "type": "constructor"
    },
    {
      "anonymous": false,
      "inputs": [
        {
          "indexed": true,
          "internalType": "address",
          "name": "owner",
          "type": "address"
        },
        {
          "indexed": true,
          "internalType": "address",
          "name": "spender",
          "type": "address"
        },
        {
          "indexed": false,
          "internalType": "uint256",
          "name": "value",
          "type": "uint256"
        }
      ],
      "name": "Approval",
      "type": "event"
    },
    {
      "anonymous": false,
      "inputs": [
        {
          "indexed": true,
          "internalType": "address",
          "name": "previousOwner",
          "type": "address"
        },
        {
          "indexed": true,
          "internalType": "address",
          "name": "newOwner",
          "type": "address"
        }
      ],
      "name": "OwnershipTransferred",
      "type": "event"
    },
    {
      "anonymous": false,
      "inputs": [
        {
          "indexed": true,
          "internalType": "address",
          "name": "from",
          "type": "address"
        },
        {
          "indexed": true,
          "internalType": "address",
          "name": "to",
          "type": "address"
        },
        {
          "indexed": false,
          "internalType": "uint256",
          "name": "value",
          "type": "uint256"
        }
      ],
      "name": "Transfer",
      "type": "event"
    },
    {
      "inputs": [],
      "name": "UNIT_OF_SHARES",
      "outputs": [
        {
          "internalType": "uint256",
          "name": "",
          "type": "uint256"
        }
      ],
      "stateMutability": "view",
      "type": "function"
    },
    {
      "inputs": [
        {
          "internalType": "address",
          "name": "owner",
          "type": "address"
        },
        {
          "internalType": "address",
          "name": "spender",
          "type": "address"
        }
      ],
      "name": "allowance",
      "outputs": [
        {
          "internalType": "uint256",
          "name": "",
          "type": "uint256"
        }
      ],
      "stateMutability": "view",
      "type": "function"
    },
    {
      "inputs": [
        {
          "internalType": "address",
          "name": "spender",
          "type": "address"
        },
        {
          "internalType": "uint256",
          "name": "amount",
          "type": "uint256"
        }
      ],
      "name": "approve",
      "outputs": [
        {
          "internalType": "bool",
          "name": "",
          "type": "bool"
        }
      ],
      "stateMutability": "nonpayable",
      "type": "function"
    },
    {
      "inputs": [],
      "name": "asset",
      "outputs": [
        {
          "internalType": "contract IERC20",
          "name": "",
          "type": "address"
        }
      ],
      "stateMutability": "view",
      "type": "function"
    },
    {
      "inputs": [
        {
          "internalType": "address",
          "name": "account",
          "type": "address"
        }
      ],
      "name": "balanceOf",
      "outputs": [
        {
          "internalType": "uint256",
          "name": "",
          "type": "uint256"
        }
      ],
      "stateMutability": "view",
      "type": "function"
    },
    {
      "inputs": [],
      "name": "balanceOfProtocolFee",
      "outputs": [
        {
          "internalType": "uint256",
          "name": "",
          "type": "uint256"
        }
      ],
      "stateMutability": "view",
      "type": "function"
    },
    {
      "inputs": [
        {
          "internalType": "address payable",
          "name": "receiver",
          "type": "address"
        }
      ],
      "name": "claim",
      "outputs": [],
      "stateMutability": "nonpayable",
      "type": "function"
    },
    {
      "inputs": [],
      "name": "claimProtocolFee",
      "outputs": [],
      "stateMutability": "nonpayable",
      "type": "function"
    },
    {
      "inputs": [],
      "name": "decimals",
      "outputs": [
        {
          "internalType": "uint8",
          "name": "",
          "type": "uint8"
        }
      ],
      "stateMutability": "view",
      "type": "function"
    },
    {
      "inputs": [
        {
          "internalType": "address",
          "name": "spender",
          "type": "address"
        },
        {
          "internalType": "uint256",
          "name": "subtractedValue",
          "type": "uint256"
        }
      ],
      "name": "decreaseAllowance",
      "outputs": [
        {
          "internalType": "bool",
          "name": "",
          "type": "bool"
        }
      ],
      "stateMutability": "nonpayable",
      "type": "function"
    },
    {
      "inputs": [
        {
          "components": [
            {
              "internalType": "uint256",
              "name": "amount",
              "type": "uint256"
            },
            {
              "internalType": "address",
              "name": "receiver",
              "type": "address"
            },
            {
              "internalType": "bytes",
              "name": "oneInchDataDpx",
              "type": "bytes"
            },
            {
              "internalType": "uint256",
              "name": "glpMinLpOut",
              "type": "uint256"
            },
            {
              "components": [
                {
                  "internalType": "uint256",
                  "name": "guessMin",
                  "type": "uint256"
                },
                {
                  "internalType": "uint256",
                  "name": "guessMax",
                  "type": "uint256"
                },
                {
                  "internalType": "uint256",
                  "name": "guessOffchain",
                  "type": "uint256"
                },
                {
                  "internalType": "uint256",
                  "name": "maxIteration",
                  "type": "uint256"
                },
                {
                  "internalType": "uint256",
                  "name": "eps",
                  "type": "uint256"
                }
              ],
              "internalType": "struct IPendleRouter.ApproxParams",
              "name": "glpGuessPtReceivedFromSy",
              "type": "tuple"
            },
            {
              "components": [
                {
                  "internalType": "address",
                  "name": "tokenIn",
                  "type": "address"
                },
                {
                  "internalType": "uint256",
                  "name": "netTokenIn",
                  "type": "uint256"
                },
                {
                  "internalType": "address",
                  "name": "tokenMintSy",
                  "type": "address"
                },
                {
                  "internalType": "address",
                  "name": "bulk",
                  "type": "address"
                },
                {
                  "internalType": "address",
                  "name": "pendleSwap",
                  "type": "address"
                },
                {
                  "components": [
                    {
                      "internalType": "enum SwapType",
                      "name": "swapType",
                      "type": "uint8"
                    },
                    {
                      "internalType": "address",
                      "name": "extRouter",
                      "type": "address"
                    },
                    {
                      "internalType": "bytes",
                      "name": "extCalldata",
                      "type": "bytes"
                    },
                    {
                      "internalType": "bool",
                      "name": "needScale",
                      "type": "bool"
                    }
                  ],
                  "internalType": "struct SwapData",
                  "name": "swapData",
                  "type": "tuple"
                }
              ],
              "internalType": "struct IPendleRouter.TokenInput",
              "name": "glpInput",
              "type": "tuple"
            },
            {
              "internalType": "uint256",
              "name": "gdaiMinLpOut",
              "type": "uint256"
            },
            {
              "components": [
                {
                  "internalType": "uint256",
                  "name": "guessMin",
                  "type": "uint256"
                },
                {
                  "internalType": "uint256",
                  "name": "guessMax",
                  "type": "uint256"
                },
                {
                  "internalType": "uint256",
                  "name": "guessOffchain",
                  "type": "uint256"
                },
                {
                  "internalType": "uint256",
                  "name": "maxIteration",
                  "type": "uint256"
                },
                {
                  "internalType": "uint256",
                  "name": "eps",
                  "type": "uint256"
                }
              ],
              "internalType": "struct IPendleRouter.ApproxParams",
              "name": "gdaiGuessPtReceivedFromSy",
              "type": "tuple"
            },
            {
              "components": [
                {
                  "internalType": "address",
                  "name": "tokenIn",
                  "type": "address"
                },
                {
                  "internalType": "uint256",
                  "name": "netTokenIn",
                  "type": "uint256"
                },
                {
                  "internalType": "address",
                  "name": "tokenMintSy",
                  "type": "address"
                },
                {
                  "internalType": "address",
                  "name": "bulk",
                  "type": "address"
                },
                {
                  "internalType": "address",
                  "name": "pendleSwap",
                  "type": "address"
                },
                {
                  "components": [
                    {
                      "internalType": "enum SwapType",
                      "name": "swapType",
                      "type": "uint8"
                    },
                    {
                      "internalType": "address",
                      "name": "extRouter",
                      "type": "address"
                    },
                    {
                      "internalType": "bytes",
                      "name": "extCalldata",
                      "type": "bytes"
                    },
                    {
                      "internalType": "bool",
                      "name": "needScale",
                      "type": "bool"
                    }
                  ],
                  "internalType": "struct SwapData",
                  "name": "swapData",
                  "type": "tuple"
                }
              ],
              "internalType": "struct IPendleRouter.TokenInput",
              "name": "gdaiInput",
              "type": "tuple"
            },
            {
              "internalType": "bytes",
              "name": "gdaiOneInchDataGDAI",
              "type": "bytes"
            },
            {
              "internalType": "uint256",
              "name": "rethMinLpOut",
              "type": "uint256"
            },
            {
              "components": [
                {
                  "internalType": "uint256",
                  "name": "guessMin",
                  "type": "uint256"
                },
                {
                  "internalType": "uint256",
                  "name": "guessMax",
                  "type": "uint256"
                },
                {
                  "internalType": "uint256",
                  "name": "guessOffchain",
                  "type": "uint256"
                },
                {
                  "internalType": "uint256",
                  "name": "maxIteration",
                  "type": "uint256"
                },
                {
                  "internalType": "uint256",
                  "name": "eps",
                  "type": "uint256"
                }
              ],
              "internalType": "struct IPendleRouter.ApproxParams",
              "name": "rethGuessPtReceivedFromSy",
              "type": "tuple"
            },
            {
              "components": [
                {
                  "internalType": "address",
                  "name": "tokenIn",
                  "type": "address"
                },
                {
                  "internalType": "uint256",
                  "name": "netTokenIn",
                  "type": "uint256"
                },
                {
                  "internalType": "address",
                  "name": "tokenMintSy",
                  "type": "address"
                },
                {
                  "internalType": "address",
                  "name": "bulk",
                  "type": "address"
                },
                {
                  "internalType": "address",
                  "name": "pendleSwap",
                  "type": "address"
                },
                {
                  "components": [
                    {
                      "internalType": "enum SwapType",
                      "name": "swapType",
                      "type": "uint8"
                    },
                    {
                      "internalType": "address",
                      "name": "extRouter",
                      "type": "address"
                    },
                    {
                      "internalType": "bytes",
                      "name": "extCalldata",
                      "type": "bytes"
                    },
                    {
                      "internalType": "bool",
                      "name": "needScale",
                      "type": "bool"
                    }
                  ],
                  "internalType": "struct SwapData",
                  "name": "swapData",
                  "type": "tuple"
                }
              ],
              "internalType": "struct IPendleRouter.TokenInput",
              "name": "rethInput",
              "type": "tuple"
            },
            {
              "internalType": "bytes",
              "name": "rethOneInchDataRETH",
              "type": "bytes"
            }
          ],
          "internalType": "struct BasePortfolio.DepositData",
          "name": "depositData",
          "type": "tuple"
        }
      ],
      "name": "deposit",
      "outputs": [],
      "stateMutability": "nonpayable",
      "type": "function"
    },
    {
      "inputs": [
        {
          "internalType": "address payable",
          "name": "owner",
          "type": "address"
        }
      ],
      "name": "getClaimableRewards",
      "outputs": [
        {
          "components": [
            {
              "internalType": "string",
              "name": "protocol",
              "type": "string"
            },
            {
              "components": [
                {
                  "internalType": "address",
                  "name": "token",
                  "type": "address"
                },
                {
                  "internalType": "uint256",
                  "name": "amount",
                  "type": "uint256"
                }
              ],
              "internalType": "struct IFeeDistribution.RewardData[]",
              "name": "claimableRewards",
              "type": "tuple[]"
            }
          ],
          "internalType": "struct BasePortfolio.ClaimableRewardOfAProtocol[]",
          "name": "",
          "type": "tuple[]"
        }
      ],
      "stateMutability": "view",
      "type": "function"
    },
    {
      "inputs": [],
      "name": "getPortfolioAllocation",
      "outputs": [
        {
          "internalType": "string[]",
          "name": "",
          "type": "string[]"
        },
        {
          "internalType": "uint256[]",
          "name": "",
          "type": "uint256[]"
        }
      ],
      "stateMutability": "view",
      "type": "function"
    },
    {
      "inputs": [],
      "name": "getVaults",
      "outputs": [
        {
          "internalType": "contract AbstractVault[]",
          "name": "",
          "type": "address[]"
        }
      ],
      "stateMutability": "view",
      "type": "function"
    },
    {
      "inputs": [
        {
          "internalType": "address",
          "name": "spender",
          "type": "address"
        },
        {
          "internalType": "uint256",
          "name": "addedValue",
          "type": "uint256"
        }
      ],
      "name": "increaseAllowance",
      "outputs": [
        {
          "internalType": "bool",
          "name": "",
          "type": "bool"
        }
      ],
      "stateMutability": "nonpayable",
      "type": "function"
    },
    {
      "inputs": [],
      "name": "name",
      "outputs": [
        {
          "internalType": "string",
          "name": "",
          "type": "string"
        }
      ],
      "stateMutability": "view",
      "type": "function"
    },
    {
      "inputs": [],
      "name": "owner",
      "outputs": [
        {
          "internalType": "address",
          "name": "",
          "type": "address"
        }
      ],
      "stateMutability": "view",
      "type": "function"
    },
    {
      "inputs": [
        {
          "internalType": "string",
          "name": "",
          "type": "string"
        }
      ],
      "name": "portfolioAllocation",
      "outputs": [
        {
          "internalType": "uint256",
          "name": "",
          "type": "uint256"
        }
      ],
      "stateMutability": "view",
      "type": "function"
    },
    {
      "inputs": [
        {
          "internalType": "uint256",
          "name": "shares",
          "type": "uint256"
        },
        {
          "internalType": "address payable",
          "name": "receiver",
          "type": "address"
        }
      ],
      "name": "redeem",
      "outputs": [],
      "stateMutability": "nonpayable",
      "type": "function"
    },
    {
      "inputs": [
        {
          "internalType": "uint256",
          "name": "shares",
          "type": "uint256"
        },
        {
          "internalType": "address payable",
          "name": "receiver",
          "type": "address"
        }
      ],
      "name": "redeemAndClaim",
      "outputs": [],
      "stateMutability": "nonpayable",
      "type": "function"
    },
    {
      "inputs": [],
      "name": "renounceOwnership",
      "outputs": [],
      "stateMutability": "nonpayable",
      "type": "function"
    },
    {
      "inputs": [
        {
          "internalType": "uint256",
          "name": "amount",
          "type": "uint256"
        }
      ],
      "name": "rescueETH",
      "outputs": [],
      "stateMutability": "nonpayable",
      "type": "function"
    },
    {
      "inputs": [
        {
          "internalType": "address",
          "name": "tokenAddress",
          "type": "address"
        },
        {
          "internalType": "uint256",
          "name": "amount",
          "type": "uint256"
        }
      ],
      "name": "rescueFunds",
      "outputs": [],
      "stateMutability": "nonpayable",
      "type": "function"
    },
    {
      "inputs": [
        {
          "internalType": "string",
          "name": "",
          "type": "string"
        },
        {
          "internalType": "address",
          "name": "",
          "type": "address"
        }
      ],
      "name": "rewardPerShareZappedIn",
      "outputs": [
        {
          "internalType": "uint256",
          "name": "",
          "type": "uint256"
        }
      ],
      "stateMutability": "view",
      "type": "function"
    },
    {
      "inputs": [
        {
          "components": [
            {
              "internalType": "string",
              "name": "protocol",
              "type": "string"
            },
            {
              "internalType": "uint256",
              "name": "percentage",
              "type": "uint256"
            }
          ],
          "internalType": "struct BasePortfolio.PortfolioAllocationOfSingleCategory[]",
          "name": "portfolioAllocation_",
          "type": "tuple[]"
        }
      ],
      "name": "setVaultAllocations",
      "outputs": [],
      "stateMutability": "nonpayable",
      "type": "function"
    },
    {
      "inputs": [],
      "name": "symbol",
      "outputs": [
        {
          "internalType": "string",
          "name": "",
          "type": "string"
        }
      ],
      "stateMutability": "view",
      "type": "function"
    },
    {
      "inputs": [],
      "name": "totalAssets",
      "outputs": [
        {
          "components": [
            {
              "internalType": "string",
              "name": "vaultName",
              "type": "string"
            },
            {
              "internalType": "uint256",
              "name": "assets",
              "type": "uint256"
            }
          ],
          "internalType": "struct BasePortfolio.SharesOfVault[]",
          "name": "",
          "type": "tuple[]"
        }
      ],
      "stateMutability": "view",
      "type": "function"
    },
    {
      "inputs": [],
      "name": "totalSupply",
      "outputs": [
        {
          "internalType": "uint256",
          "name": "",
          "type": "uint256"
        }
      ],
      "stateMutability": "view",
      "type": "function"
    },
    {
      "inputs": [
        {
          "internalType": "address",
          "name": "to",
          "type": "address"
        },
        {
          "internalType": "uint256",
          "name": "amount",
          "type": "uint256"
        }
      ],
      "name": "transfer",
      "outputs": [
        {
          "internalType": "bool",
          "name": "",
          "type": "bool"
        }
      ],
      "stateMutability": "nonpayable",
      "type": "function"
    },
    {
      "inputs": [
        {
          "internalType": "address",
          "name": "from",
          "type": "address"
        },
        {
          "internalType": "address",
          "name": "to",
          "type": "address"
        },
        {
          "internalType": "uint256",
          "name": "amount",
          "type": "uint256"
        }
      ],
      "name": "transferFrom",
      "outputs": [
        {
          "internalType": "bool",
          "name": "",
          "type": "bool"
        }
      ],
      "stateMutability": "nonpayable",
      "type": "function"
    },
    {
      "inputs": [
        {
          "internalType": "address",
          "name": "newOwner",
          "type": "address"
        }
      ],
      "name": "transferOwnership",
      "outputs": [],
      "stateMutability": "nonpayable",
      "type": "function"
    },
    {
      "inputs": [
        {
          "internalType": "address",
          "name": "",
          "type": "address"
        },
        {
          "internalType": "string",
          "name": "",
          "type": "string"
        },
        {
          "internalType": "address",
          "name": "",
          "type": "address"
        }
      ],
      "name": "userRewardPerTokenPaid",
      "outputs": [
        {
          "internalType": "uint256",
          "name": "",
          "type": "uint256"
        }
      ],
      "stateMutability": "view",
      "type": "function"
    },
    {
      "inputs": [
        {
          "internalType": "address",
          "name": "",
          "type": "address"
        },
        {
          "internalType": "string",
          "name": "",
          "type": "string"
        },
        {
          "internalType": "address",
          "name": "",
          "type": "address"
        }
      ],
      "name": "userRewardsOfInvestedProtocols",
      "outputs": [
        {
          "internalType": "uint256",
          "name": "",
          "type": "uint256"
        }
      ],
      "stateMutability": "view",
      "type": "function"
    },
    {
      "stateMutability": "payable",
      "type": "receive"
    }
  ],
  "bytecode": "0x60a06040523480156200001157600080fd5b50604051620044333803806200443383398101604081905262000034916200040c565b8686868181600362000047838262000572565b50600462000056828262000572565b505050620000736200006d6200025760201b60201c565b6200025b565b50506001600160a01b039081166080528416620000d75760405162461bcd60e51b815260206004820152601b60248201527f6470785661756c74416464722063616e6e6f74206265207a65726f000000000060448201526064015b60405180910390fd5b6001600160a01b0383166200013a5760405162461bcd60e51b815260206004820152602260248201527f657175696c69627269615661756c74416464722063616e6e6f74206265207a65604482015261726f60f01b6064820152608401620000ce565b6001600160a01b038216620001a15760405162461bcd60e51b815260206004820152602660248201527f657175696c6962726961474441495661756c74416464722063616e6e6f74206260448201526565207a65726f60d01b6064820152608401620000ce565b6001600160a01b038116620002085760405162461bcd60e51b815260206004820152602660248201527f657175696c6962726961524554485661756c74416464722063616e6e6f74206260448201526565207a65726f60d01b6064820152608401620000ce565b604080516080810182526001600160a01b038087168252858116602083015284811692820192909252908216606082015262000249906008906004620002ad565b50505050505050506200063e565b3390565b600580546001600160a01b038381166001600160a01b0319831681179093556040519116919082907f8be0079c531659141344cd1fd0a4f28419497f9722a3daafe3b4186f6b6457e090600090a35050565b82805482825590600052602060002090810192821562000305579160200282015b828111156200030557825182546001600160a01b0319166001600160a01b03909116178255602090920191600190910190620002ce565b506200031392915062000317565b5090565b5b8082111562000313576000815560010162000318565b6001600160a01b03811681146200034457600080fd5b50565b634e487b7160e01b600052604160045260246000fd5b600082601f8301126200036f57600080fd5b81516001600160401b03808211156200038c576200038c62000347565b604051601f8301601f19908116603f01168101908282118183101715620003b757620003b762000347565b81604052838152602092508683858801011115620003d457600080fd5b600091505b83821015620003f85785820183015181830184015290820190620003d9565b600093810190920192909252949350505050565b600080600080600080600060e0888a0312156200042857600080fd5b875162000435816200032e565b60208901519097506001600160401b03808211156200045357600080fd5b620004618b838c016200035d565b975060408a01519150808211156200047857600080fd5b50620004878a828b016200035d565b95505060608801516200049a816200032e565b6080890151909450620004ad816200032e565b60a0890151909350620004c0816200032e565b60c0890151909250620004d3816200032e565b8091505092959891949750929550565b600181811c90821680620004f857607f821691505b6020821081036200051957634e487b7160e01b600052602260045260246000fd5b50919050565b601f8211156200056d57600081815260208120601f850160051c81016020861015620005485750805b601f850160051c820191505b81811015620005695782815560010162000554565b5050505b505050565b81516001600160401b038111156200058e576200058e62000347565b620005a6816200059f8454620004e3565b846200051f565b602080601f831160018114620005de5760008415620005c55750858301515b600019600386901b1c1916600185901b17855562000569565b600085815260208120601f198616915b828110156200060f57888601518255948401946001909101908401620005ee565b50858210156200062e5787850151600019600388901b60f8161c191681555b5050505050600190811b01905550565b608051613dc46200066f6000396000818161039c01528181611891015281816119ef0152611b0c0152613dc46000f3fe6080604052600436106101f25760003560e01c806370a082311161010d578063a9059cbb116100a0578063ae980ae51161006f578063ae980ae514610640578063af590eeb14610678578063dd62ed3e14610698578063e4c7238b146106b8578063f2fde38b146106d857600080fd5b8063a9059cbb146105a1578063aaf4a966146105c1578063acb05f48146105d6578063ae4ce8fe146105f157600080fd5b80638da5cb5b116100dc5780638da5cb5b1461052e57806395d89b411461054c5780639e252f0014610561578063a457c2d71461058157600080fd5b806370a08231146104a3578063715018a6146104d957806378e3214f146104ee5780637bde82f21461050e57600080fd5b8063313ce5671161018557806344d00f821161015457806344d00f82146103f65780635c1054e01461041857806361bde6b2146104385780636e3cfcc01461048057600080fd5b8063313ce5671461031f578063327540f71461033b57806338d52e0f1461038a57806339509351146103d657600080fd5b80631e83409a116101c15780631e83409a1461029a57806323b872dd146102bc5780632ea5027d146102dc578063308e401e146102f257600080fd5b806301e1d114146101fe57806306fdde0314610229578063095ea7b31461024b57806318160ddd1461027b57600080fd5b366101f957005b600080fd5b34801561020a57600080fd5b506102136106f8565b6040516102209190613227565b60405180910390f35b34801561023557600080fd5b5061023e6108d2565b604051610220919061329d565b34801561025757600080fd5b5061026b6102663660046132c5565b610964565b6040519015158152602001610220565b34801561028757600080fd5b506002545b604051908152602001610220565b3480156102a657600080fd5b506102ba6102b53660046132f1565b61097e565b005b3480156102c857600080fd5b5061026b6102d736600461330e565b610c50565b3480156102e857600080fd5b5061028c60065481565b3480156102fe57600080fd5b5061031261030d3660046132f1565b610c76565b604051610220919061334f565b34801561032b57600080fd5b5060405160128152602001610220565b34801561034757600080fd5b5061028c6103563660046134f7565b6009602090815260009384526040808520845180860184018051928152908401958401959095209452929052825290205481565b34801561039657600080fd5b506103be7f000000000000000000000000000000000000000000000000000000000000000081565b6040516001600160a01b039091168152602001610220565b3480156103e257600080fd5b5061026b6103f13660046132c5565b610f5c565b34801561040257600080fd5b5061040b610f7e565b604051610220919061355a565b34801561042457600080fd5b506102ba6104333660046135a7565b610fdf565b34801561044457600080fd5b5061028c6104533660046135d7565b8151602081840181018051600b825292820194820194909420919093529091526000908152604090205481565b34801561048c57600080fd5b506104956110df565b60405161022092919061361d565b3480156104af57600080fd5b5061028c6104be3660046132f1565b6001600160a01b031660009081526020819052604090205490565b3480156104e557600080fd5b506102ba611290565b3480156104fa57600080fd5b506102ba6105093660046132c5565b6112a4565b34801561051a57600080fd5b506102ba6105293660046135a7565b61131b565b34801561053a57600080fd5b506005546001600160a01b03166103be565b34801561055857600080fd5b5061023e61179f565b34801561056d57600080fd5b506102ba61057c3660046136b8565b6117ae565b34801561058d57600080fd5b5061026b61059c3660046132c5565b6117f0565b3480156105ad57600080fd5b5061026b6105bc3660046132c5565b611876565b3480156105cd57600080fd5b506102ba611884565b3480156105e257600080fd5b5061028c662386f26fc1000081565b3480156105fd57600080fd5b5061028c61060c3660046134f7565b600a602090815260009384526040808520845180860184018051928152908401958401959095209452929052825290205481565b34801561064c57600080fd5b5061028c61065b3660046136d1565b805160208183018101805160078252928201919093012091525481565b34801561068457600080fd5b506102ba610693366004613705565b6118b9565b3480156106a457600080fd5b5061028c6106b3366004613740565b612248565b3480156106c457600080fd5b506102ba6106d336600461376e565b612273565b3480156106e457600080fd5b506102ba6106f33660046132f1565b61230e565b6008546060906000906001600160401b038111156107185761071861340c565b60405190808252806020026020018201604052801561075e57816020015b6040805180820190915260608152600060208201528152602001906001900390816107365790505b50905060005b6008548110156108cc5760088181548110610781576107816137e2565b6000918252602082200154604080516306fdde0360e01b815290516001600160a01b03909216926306fdde03926004808401938290030181865afa1580156107cd573d6000803e3d6000fd5b505050506040513d6000823e601f3d908101601f191682016040526107f591908101906137f8565b828281518110610807576108076137e2565b60200260200101516000018190525060088181548110610829576108296137e2565b60009182526020918290200154604080516278744560e21b815290516001600160a01b03909216926301e1d114926004808401938290030181865afa158015610876573d6000803e3d6000fd5b505050506040513d601f19601f8201168201806040525081019061089a9190613865565b8282815181106108ac576108ac6137e2565b6020908102919091018101510152806108c481613894565b915050610764565b50919050565b6060600380546108e1906138ad565b80601f016020809104026020016040519081016040528092919081815260200182805461090d906138ad565b801561095a5780601f1061092f5761010080835404028352916020019161095a565b820191906000526020600020905b81548152906001019060200180831161093d57829003601f168201915b5050505050905090565b600033610972818585612387565b60019150505b92915050565b600061098930610c76565b905060005b8151811015610ab65760005b8282815181106109ac576109ac6137e2565b60200260200101516020015151811015610a2f57610a1d8383815181106109d5576109d56137e2565b6020026020010151600001518484815181106109f3576109f36137e2565b6020026020010151602001518381518110610a1057610a106137e2565b60200260200101516124a3565b80610a2781613894565b91505061099a565b5060088181548110610a4357610a436137e2565b600091825260208220015460408051634e71d92d60e01b815290516001600160a01b0390921692634e71d92d9260048084019382900301818387803b158015610a8b57600080fd5b505af1158015610a9f573d6000803e3d6000fd5b505050508080610aae90613894565b91505061098e565b506000610ac233610c76565b33600090815260208190526040812054919250819003610ae25750505050565b60005b8251811015610c48576000838281518110610b0257610b026137e2565b602002602001015160000151905060005b848381518110610b2557610b256137e2565b60200260200101516020015151811015610c33576000858481518110610b4d57610b4d6137e2565b6020026020010151602001518281518110610b6a57610b6a6137e2565b6020026020010151600001519050610bda818960096000336001600160a01b03166001600160a01b0316815260200190815260200160002086604051610bb091906138e1565b90815260408051602092819003830190206001600160a01b03871660009081529252902054612607565b336000908152600960205260408082209051610bf79086906138e1565b90815260408051602092819003830190206001600160a01b03949094166000908152939091529091205580610c2b81613894565b915050610b13565b50508080610c4090613894565b915050610ae5565b5050505b5050565b600033610c5e85828561266a565b610c698585856126e4565b60019150505b9392505050565b6008546060906000906001600160401b03811115610c9657610c9661340c565b604051908082528060200260200182016040528015610cdb57816020015b6040805180820190915260608082526020820152815260200190600190039081610cb45790505b50905060005b600854811015610f5557600060088281548110610d0057610d006137e2565b6000918252602082200154604080516306fdde0360e01b815290516001600160a01b03909216926306fdde03926004808401938290030181865afa158015610d4c573d6000803e3d6000fd5b505050506040513d6000823e601f3d908101601f19168201604052610d7491908101906137f8565b9050600060088381548110610d8b57610d8b6137e2565b6000918252602082200154604080516001620f9a1d60e11b0319815290516001600160a01b039092169263ffe0cbc6926004808401938290030181865afa158015610dda573d6000803e3d6000fd5b505050506040513d6000823e601f3d908101601f19168201604052610e0291908101906138fd565b9050600081516001600160401b03811115610e1f57610e1f61340c565b604051908082528060200260200182016040528015610e6457816020015b6040805180820190915260008082526020820152815260200190600190039081610e3d5790505b50905060005b8251811015610f0c576000838281518110610e8757610e876137e2565b60200260200101516000015190506040518060400160405280826001600160a01b03168152602001610ed88b878681518110610ec557610ec56137e2565b60200260200101516020015189866128a0565b815250838381518110610eed57610eed6137e2565b6020026020010181905250508080610f0490613894565b915050610e6a565b50604051806040016040528084815260200182815250858581518110610f3457610f346137e2565b60200260200101819052505050508080610f4d90613894565b915050610ce1565b5092915050565b600033610972818585610f6f8383612248565b610f7991906139c7565b612387565b6060600880548060200260200160405190810160405280929190818152602001828054801561095a57602002820191906000526020600020905b81546001600160a01b03168152600190910190602001808311610fb8575050505050905090565b6000610fea30610c76565b905060005b81518110156110cf5760005b82828151811061100d5761100d6137e2565b60200260200101516020015151811015611048576110368383815181106109d5576109d56137e2565b8061104081613894565b915050610ffb565b506008818154811061105c5761105c6137e2565b600091825260208220015460408051634e71d92d60e01b815290516001600160a01b0390921692634e71d92d9260048084019382900301818387803b1580156110a457600080fd5b505af11580156110b8573d6000803e3d6000fd5b5050505080806110c790613894565b915050610fef565b506110da838361131b565b505050565b60608060006008805490506001600160401b038111156111015761110161340c565b60405190808252806020026020018201604052801561113457816020015b606081526020019060019003908161111f5790505b506008549091506000906001600160401b038111156111555761115561340c565b60405190808252806020026020018201604052801561117e578160200160208202803683370190505b50905060005b600854811015611286576000600882815481106111a3576111a36137e2565b6000918252602082200154604080516306fdde0360e01b815290516001600160a01b03909216926306fdde03926004808401938290030181865afa1580156111ef573d6000803e3d6000fd5b505050506040513d6000823e601f3d908101601f1916820160405261121791908101906137f8565b90508084838151811061122c5761122c6137e2565b602002602001018190525060078160405161124791906138e1565b908152602001604051809103902054838381518110611268576112686137e2565b6020908102919091010152508061127e81613894565b915050611184565b5090939092509050565b6112986129d3565b6112a26000612a2d565b565b6112ac6129d3565b6001600160a01b0382166112ff5760405162461bcd60e51b8152602060048201526015602482015274496e76616c696420746f6b656e206164647265737360581b60448201526064015b60405180910390fd5b610c4c826113156005546001600160a01b031690565b83612607565b600061132630610c76565b905060005b815181101561140b5760005b828281518110611349576113496137e2565b60200260200101516020015151811015611384576113728383815181106109d5576109d56137e2565b8061137c81613894565b915050611337565b5060088181548110611398576113986137e2565b600091825260208220015460408051634e71d92d60e01b815290516001600160a01b0390921692634e71d92d9260048084019382900301818387803b1580156113e057600080fd5b505af11580156113f4573d6000803e3d6000fd5b50505050808061140390613894565b91505061132b565b5060025483111561145e5760405162461bcd60e51b815260206004820152601a60248201527f5368617265732065786365656420746f74616c20737570706c7900000000000060448201526064016112f6565b6114678261097e565b60005b6008548110156117945760006115106008838154811061148c5761148c6137e2565b6000918252602090912001546040516370a0823160e01b81523060048201526001600160a01b03909116906370a0823190602401602060405180830381865afa1580156114dd573d6000803e3d6000fd5b505050506040513d601f19601f820116820180604052508101906115019190613865565b8661150b60025490565b612a7f565b9050600060088381548110611527576115276137e2565b6000918252602082200154604080516306fdde0360e01b815290516001600160a01b03909216926306fdde03926004808401938290030181865afa158015611573573d6000803e3d6000fd5b505050506040513d6000823e601f3d908101601f1916820160405261159b91908101906137f8565b80516020909101209050811561177f57604080518082019091526013815272052616469616e74417262697472756d2d444c5606c1b6020909101527fe7b2692b168ac19ff353e380b4ae97d4ce2c06339f6785140955f4e0d0b2192381016116755760088381548110611610576116106137e2565b600091825260208220015460408051630be040fb60e41b815290516001600160a01b039092169263be040fb09260048084019382900301818387803b15801561165857600080fd5b505af115801561166c573d6000803e3d6000fd5b505050506116f0565b60088381548110611688576116886137e2565b60009182526020909120015460405163db006a7560e01b8152600481018490526001600160a01b039091169063db006a7590602401600060405180830381600087803b1580156116d757600080fd5b505af11580156116eb573d6000803e3d6000fd5b505050505b61177f60088481548110611706576117066137e2565b60009182526020918290200154604080516338d52e0f60e01b815290516001600160a01b03909216926338d52e0f926004808401938290030181865afa158015611754573d6000803e3d6000fd5b505050506040513d601f19601f8201168201806040525081019061177891906139da565b8684612607565b5050808061178c90613894565b91505061146a565b506110da3384612b2e565b6060600480546108e1906138ad565b6117b66129d3565b6005546040516001600160a01b039091169082156108fc029083906000818181858888f19350505050158015610c4c573d6000803e3d6000fd5b600033816117fe8286612248565b90508381101561185e5760405162461bcd60e51b815260206004820152602560248201527f45524332303a2064656372656173656420616c6c6f77616e63652062656c6f77604482015264207a65726f60d81b60648201526084016112f6565b61186b8286868403612387565b506001949350505050565b6000336109728185856126e4565b61188c6129d3565b6112a27f000000000000000000000000000000000000000000000000000000000000000033600654612607565b60006118c430610c76565b905060005b81518110156119a95760005b8282815181106118e7576118e76137e2565b60200260200101516020015151811015611922576119108383815181106109d5576109d56137e2565b8061191a81613894565b9150506118d5565b5060088181548110611936576119366137e2565b600091825260208220015460408051634e71d92d60e01b815290516001600160a01b0390921692634e71d92d9260048084019382900301818387803b15801561197e57600080fd5b505af1158015611992573d6000803e3d6000fd5b5050505080806119a190613894565b9150506118c9565b5081356119ea5760405162461bcd60e51b815260206004820152600f60248201526e0616d6f756e74206d757374203e203608c1b60448201526064016112f6565b611a177f000000000000000000000000000000000000000000000000000000000000000033308535612c6a565b6000611a238335612ca2565b905060005b6008548110156121cc57600060088281548110611a4757611a476137e2565b6000918252602082200154604080516306fdde0360e01b815290516001600160a01b03909216926306fdde03926004808401938290030181865afa158015611a93573d6000803e3d6000fd5b505050506040513d6000823e601f3d908101601f19168201604052611abb91908101906137f8565b90506000818051906020012090506000611af585600785604051611adf91906138e1565b9081526020016040518091039020546064612a7f565b905080600003611b07575050506121ba565b611b597f000000000000000000000000000000000000000000000000000000000000000060088681548110611b3e57611b3e6137e2565b6000918252602090912001546001600160a01b031683612cd7565b60408051808201909152600f81526e0a6eae6d0a6eec2e05a88e0f08aa89608b1b6020909101527fa22f1301d30d22a7370042ea948a064ce8aea24e80ac7253b102c353f3b8d9018201611c9757600060088581548110611bbc57611bbc6137e2565b6000918252602090912001546001600160a01b0316635d30351983611be460408c018c6139f7565b6040518463ffffffff1660e01b8152600401611c0293929190613a6d565b6020604051808303816000875af1158015611c21573d6000803e3d6000fd5b505050506040513d601f19601f82011682018060405250810190611c459190613865565b11611c925760405162461bcd60e51b815260206004820152601a60248201527f427579696e6720447078204c5020746f6b656e206661696c656400000000000060448201526064016112f6565b6121b6565b604080518082019091526013815272052616469616e74417262697472756d2d444c5606c1b6020909101527fe7b2692b168ac19ff353e380b4ae97d4ce2c06339f6785140955f4e0d0b219238201611dc357600060088581548110611cfe57611cfe6137e2565b60009182526020909120015460405163b6b55f2560e01b8152600481018490526001600160a01b039091169063b6b55f25906024016020604051808303816000875af1158015611d52573d6000803e3d6000fd5b505050506040513d601f19601f82011682018060405250810190611d769190613865565b11611c925760405162461bcd60e51b815260206004820152601e60248201527f427579696e672052616469616e74204c5020746f6b656e206661696c6564000060448201526064016112f6565b60408051808201909152600e81526d0457175696c69627269612d474c560941b6020909101527f1282987e919de6c5cddceff157e5b32a19bc6d08925e7aafe0b887ce3fae13508201611f0657600060088581548110611e2557611e256137e2565b6000918252602090912001546001600160a01b031663de6a89848360608b013560808c01611e576101208e018e613a87565b6040518563ffffffff1660e01b8152600401611e769493929190613bf6565b6020604051808303816000875af1158015611e95573d6000803e3d6000fd5b505050506040513d601f19601f82011682018060405250810190611eb99190613865565b11611c925760405162461bcd60e51b815260206004820152601e60248201527f5a617020496e746f20457175696c696272696120474c50206661696c6564000060448201526064016112f6565b60408051808201909152600f81526e457175696c69627269612d4744414960881b6020909101527fa6b7188487a6560773a13e05aa0dd9e493bc974fc59a7835c35354cd8bbf4dbe820161205e57600060088581548110611f6957611f696137e2565b6000918252602090912001546001600160a01b031662dec01983611f916102208c018c6139f7565b8c61014001358d610160018e806102000190611fad9190613a87565b6040518763ffffffff1660e01b8152600401611fce96959493929190613c4e565b6020604051808303816000875af1158015611fed573d6000803e3d6000fd5b505050506040513d601f19601f820116820180604052508101906120119190613865565b11611c925760405162461bcd60e51b815260206004820152601f60248201527f5a617020496e746f20457175696c69627269612047444149206661696c65640060448201526064016112f6565b60408051808201909152600f81526e08ae2ead2d8d2c4e4d2c25aa48aa89608b1b6020909101527fb3494e840e5f90e55337bab7b306e3e38fe7f37636fe732e7109e42957ab5da482016121b6576000600885815481106120c1576120c16137e2565b6000918252602090912001546001600160a01b031662dec019836120e96103208c018c6139f7565b8c61024001358d610260018e8061030001906121059190613a87565b6040518763ffffffff1660e01b815260040161212696959493929190613c4e565b6020604051808303816000875af1158015612145573d6000803e3d6000fd5b505050506040513d601f19601f820116820180604052508101906121699190613865565b116121b65760405162461bcd60e51b815260206004820152601f60248201527f5a617020496e746f20457175696c69627269612052455448206661696c65640060448201526064016112f6565b5050505b806121c481613894565b915050611a28565b506121f66121e060408501602086016132f1565b6121f183662386f26fc10000612dec565b612df8565b61220660408401602085016132f1565b6001600160a01b03166000600080516020613d6f83398151915261223184662386f26fc10000612dec565b6040519081526020015b60405180910390a3505050565b6001600160a01b03918216600090815260016020908152604080832093909416825291909152205490565b61227b6129d3565b60005b818110156110da57828282818110612298576122986137e2565b90506020028101906122aa9190613cc9565b6020013560078484848181106122c2576122c26137e2565b90506020028101906122d49190613cc9565b6122de90806139f7565b6040516122ec929190613cdf565b908152604051908190036020019020558061230681613894565b91505061227e565b6123166129d3565b6001600160a01b03811661237b5760405162461bcd60e51b815260206004820152602660248201527f4f776e61626c653a206e6577206f776e657220697320746865207a65726f206160448201526564647265737360d01b60648201526084016112f6565b61238481612a2d565b50565b6001600160a01b0383166123e95760405162461bcd60e51b8152602060048201526024808201527f45524332303a20617070726f76652066726f6d20746865207a65726f206164646044820152637265737360e01b60648201526084016112f6565b6001600160a01b03821661244a5760405162461bcd60e51b815260206004820152602260248201527f45524332303a20617070726f766520746f20746865207a65726f206164647265604482015261737360f01b60648201526084016112f6565b6001600160a01b0383811660008181526001602090815260408083209487168084529482529182902085905590518481527f8c5be1e5ebec7d5bd14f71427d1e84f3dd0314c0f7b2291e5b200ac8c7c3b925910161223b565b3315610c4c57805160208201516124b981612ec5565b600b856040516124c991906138e1565b90815260200160405180910390206000846001600160a01b03166001600160a01b03168152602001908152602001600020600082825461250991906139c7565b9091555061251990508483612ef1565b336000908152600960205260409081902090516125379087906138e1565b90815260200160405180910390206000846001600160a01b03166001600160a01b03168152602001908152602001600020600082825461257791906139c7565b9091555050604051600b9061258d9086906138e1565b90815260408051602092819003830181206001600160a01b038616600090815290845282812054338252600a90945291909120906125cc9087906138e1565b90815260200160405180910390206000846001600160a01b03166001600160a01b031681526020019081526020016000208190555050505050565b6040516001600160a01b0383166024820152604481018290526110da90849063a9059cbb60e01b906064015b60408051601f198184030181529190526020810180516001600160e01b03166001600160e01b031990931692909217909152612f84565b60006126768484612248565b905060001981146126de57818110156126d15760405162461bcd60e51b815260206004820152601d60248201527f45524332303a20696e73756666696369656e7420616c6c6f77616e636500000060448201526064016112f6565b6126de8484848403612387565b50505050565b6001600160a01b0383166127485760405162461bcd60e51b815260206004820152602560248201527f45524332303a207472616e736665722066726f6d20746865207a65726f206164604482015264647265737360d81b60648201526084016112f6565b6001600160a01b0382166127aa5760405162461bcd60e51b815260206004820152602360248201527f45524332303a207472616e7366657220746f20746865207a65726f206164647260448201526265737360e81b60648201526084016112f6565b6001600160a01b038316600090815260208190526040902054818110156128225760405162461bcd60e51b815260206004820152602660248201527f45524332303a207472616e7366657220616d6f756e7420657863656564732062604482015265616c616e636560d01b60648201526084016112f6565b6001600160a01b038085166000908152602081905260408082208585039055918516815290812080548492906128599084906139c7565b92505081905550826001600160a01b0316846001600160a01b0316600080516020613d6f8339815191528460405161289391815260200190565b60405180910390a36126de565b600080306001600160a01b038716036128ba5750836129ca565b6001600160a01b0386166000908152600960205260409081902090516128e19086906138e1565b90815260408051602092819003830181206001600160a01b03878116600090815291855283822054908b168252600a90945291909120906129239087906138e1565b90815260408051602092819003830190206001600160a01b0387166000908152925290205461295187612ec5565b600b8760405161296191906138e1565b90815260408051602092819003830190206001600160a01b0389166000908152925290205461299091906139c7565b61299a9190613cef565b6001600160a01b0388166000908152602081905260409020546129bd9190613d02565b6129c791906139c7565b90505b95945050505050565b6005546001600160a01b031633146112a25760405162461bcd60e51b815260206004820181905260248201527f4f776e61626c653a2063616c6c6572206973206e6f7420746865206f776e657260448201526064016112f6565b600580546001600160a01b038381166001600160a01b0319831681179093556040519116919082907f8be0079c531659141344cd1fd0a4f28419497f9722a3daafe3b4186f6b6457e090600090a35050565b6000808060001985870985870292508281108382030391505080600003612ab957838281612aaf57612aaf613d19565b0492505050610c6f565b808411612ac557600080fd5b60008486880960026001871981018816978890046003810283188082028403028082028403028082028403028082028403028082028403029081029092039091026000889003889004909101858311909403939093029303949094049190911702949350505050565b6001600160a01b038216612b8e5760405162461bcd60e51b815260206004820152602160248201527f45524332303a206275726e2066726f6d20746865207a65726f206164647265736044820152607360f81b60648201526084016112f6565b6001600160a01b03821660009081526020819052604090205481811015612c025760405162461bcd60e51b815260206004820152602260248201527f45524332303a206275726e20616d6f756e7420657863656564732062616c616e604482015261636560f01b60648201526084016112f6565b6001600160a01b0383166000908152602081905260408120838303905560028054849290612c31908490613cef565b90915550506040518281526000906001600160a01b03851690600080516020613d6f8339815191529060200160405180910390a3505050565b6040516001600160a01b03808516602483015283166044820152606481018290526126de9085906323b872dd60e01b90608401612633565b600080612cb38360036103e8612a7f565b90508060066000828254612cc791906139c7565b90915550610c6f90508184613cef565b801580612d515750604051636eb1769f60e11b81523060048201526001600160a01b03838116602483015284169063dd62ed3e90604401602060405180830381865afa158015612d2b573d6000803e3d6000fd5b505050506040513d601f19601f82011682018060405250810190612d4f9190613865565b155b612dbc5760405162461bcd60e51b815260206004820152603660248201527f5361666545524332303a20617070726f76652066726f6d206e6f6e2d7a65726f60448201527520746f206e6f6e2d7a65726f20616c6c6f77616e636560501b60648201526084016112f6565b6040516001600160a01b0383166024820152604481018290526110da90849063095ea7b360e01b90606401612633565b6000610c6f8284613d2f565b6001600160a01b038216612e4e5760405162461bcd60e51b815260206004820152601f60248201527f45524332303a206d696e7420746f20746865207a65726f20616464726573730060448201526064016112f6565b8060026000828254612e6091906139c7565b90915550506001600160a01b03821660009081526020819052604081208054839290612e8d9084906139c7565b90915550506040518181526001600160a01b03831690600090600080516020613d6f8339815191529060200160405180910390a35050565b6000612ed060025490565b600003612edf57506000919050565b61097882612eec60025490565b612dec565b3360009081526020818152604080832054600a9092528083209051612f179086906138e1565b9081526040805191829003602090810183206001600160a01b03871660009081529152205490600b90612f4b9087906138e1565b90815260408051602092819003830190206001600160a01b03871660009081529252902054612f7a9190613cef565b610c6f9190613d02565b6000612fd9826040518060400160405280602081526020017f5361666545524332303a206c6f772d6c6576656c2063616c6c206661696c6564815250856001600160a01b03166130569092919063ffffffff16565b8051909150156110da5780806020019051810190612ff79190613d51565b6110da5760405162461bcd60e51b815260206004820152602a60248201527f5361666545524332303a204552433230206f7065726174696f6e20646964206e6044820152691bdd081cdd58d8d9595960b21b60648201526084016112f6565b6060613065848460008561306d565b949350505050565b6060824710156130ce5760405162461bcd60e51b815260206004820152602660248201527f416464726573733a20696e73756666696369656e742062616c616e636520666f6044820152651c8818d85b1b60d21b60648201526084016112f6565b6001600160a01b0385163b6131255760405162461bcd60e51b815260206004820152601d60248201527f416464726573733a2063616c6c20746f206e6f6e2d636f6e747261637400000060448201526064016112f6565b600080866001600160a01b0316858760405161314191906138e1565b60006040518083038185875af1925050503d806000811461317e576040519150601f19603f3d011682016040523d82523d6000602084013e613183565b606091505b509150915061319382828661319e565b979650505050505050565b606083156131ad575081610c6f565b8251156131bd5782518084602001fd5b8160405162461bcd60e51b81526004016112f6919061329d565b60005b838110156131f25781810151838201526020016131da565b50506000910152565b600081518084526132138160208601602086016131d7565b601f01601f19169290920160200192915050565b60006020808301818452808551808352604092508286019150828160051b87010184880160005b8381101561328f57888303603f1901855281518051878552613272888601826131fb565b91890151948901949094529487019492509086019060010161324e565b509098975050505050505050565b602081526000610c6f60208301846131fb565b6001600160a01b038116811461238457600080fd5b600080604083850312156132d857600080fd5b82356132e3816132b0565b946020939093013593505050565b60006020828403121561330357600080fd5b8135610c6f816132b0565b60008060006060848603121561332357600080fd5b833561332e816132b0565b9250602084013561333e816132b0565b929592945050506040919091013590565b60006020808301818452808551808352604092508286019150828160051b8701018488016000805b848110156133fd57898403603f190186528251805188865261339b898701826131fb565b918a0151868303878c01528051808452908b01928592508b01905b808310156133e857835180516001600160a01b031683528c01518c830152928b019260019290920191908a01906133b6565b50978a01979550505091870191600101613377565b50919998505050505050505050565b634e487b7160e01b600052604160045260246000fd5b604080519081016001600160401b03811182821017156134445761344461340c565b60405290565b604051601f8201601f191681016001600160401b03811182821017156134725761347261340c565b604052919050565b60006001600160401b038211156134935761349361340c565b50601f01601f191660200190565b600082601f8301126134b257600080fd5b81356134c56134c08261347a565b61344a565b8181528460208386010111156134da57600080fd5b816020850160208301376000918101602001919091529392505050565b60008060006060848603121561350c57600080fd5b8335613517816132b0565b925060208401356001600160401b0381111561353257600080fd5b61353e868287016134a1565b925050604084013561354f816132b0565b809150509250925092565b6020808252825182820181905260009190848201906040850190845b8181101561359b5783516001600160a01b031683529284019291840191600101613576565b50909695505050505050565b600080604083850312156135ba57600080fd5b8235915060208301356135cc816132b0565b809150509250929050565b600080604083850312156135ea57600080fd5b82356001600160401b0381111561360057600080fd5b61360c858286016134a1565b92505060208301356135cc816132b0565b6000604082016040835280855180835260608501915060608160051b8601019250602080880160005b8381101561367457605f198887030185526136628683516131fb565b95509382019390820190600101613646565b50508584038187015286518085528782019482019350915060005b828110156136ab5784518452938101939281019260010161368f565b5091979650505050505050565b6000602082840312156136ca57600080fd5b5035919050565b6000602082840312156136e357600080fd5b81356001600160401b038111156136f957600080fd5b613065848285016134a1565b60006020828403121561371757600080fd5b81356001600160401b0381111561372d57600080fd5b82016103408185031215610c6f57600080fd5b6000806040838503121561375357600080fd5b823561375e816132b0565b915060208301356135cc816132b0565b6000806020838503121561378157600080fd5b82356001600160401b038082111561379857600080fd5b818501915085601f8301126137ac57600080fd5b8135818111156137bb57600080fd5b8660208260051b85010111156137d057600080fd5b60209290920196919550909350505050565b634e487b7160e01b600052603260045260246000fd5b60006020828403121561380a57600080fd5b81516001600160401b0381111561382057600080fd5b8201601f8101841361383157600080fd5b805161383f6134c08261347a565b81815285602083850101111561385457600080fd5b6129ca8260208301602086016131d7565b60006020828403121561387757600080fd5b5051919050565b634e487b7160e01b600052601160045260246000fd5b6000600182016138a6576138a661387e565b5060010190565b600181811c908216806138c157607f821691505b6020821081036108cc57634e487b7160e01b600052602260045260246000fd5b600082516138f38184602087016131d7565b9190910192915050565b6000602080838503121561391057600080fd5b82516001600160401b038082111561392757600080fd5b818501915085601f83011261393b57600080fd5b81518181111561394d5761394d61340c565b61395b848260051b0161344a565b818152848101925060069190911b83018401908782111561397b57600080fd5b928401925b8184101561319357604084890312156139995760008081fd5b6139a1613422565b84516139ac816132b0565b81528486015186820152835260409093019291840191613980565b808201808211156109785761097861387e565b6000602082840312156139ec57600080fd5b8151610c6f816132b0565b6000808335601e19843603018112613a0e57600080fd5b8301803591506001600160401b03821115613a2857600080fd5b602001915036819003821315613a3d57600080fd5b9250929050565b81835281816020850137506000828201602090810191909152601f909101601f19169091010190565b8381526040602082015260006129ca604083018486613a44565b6000823560be198336030181126138f357600080fd5b801515811461238457600080fd5b8035613ab681613a9d565b919050565b6000813560048110613acc57600080fd5b83526020820135613adc816132b0565b6001600160a01b03166020840152604082013536839003601e19018112613b0257600080fd5b82016020810190356001600160401b03811115613b1e57600080fd5b803603821315613b2d57600080fd5b60806040860152613b42608086018284613a44565b915050613b5160608401613aab565b8015156060860152509392505050565b60008135613b6e816132b0565b6001600160a01b03908116845260208381013590850152604083013590613b94826132b0565b9081166040850152606083013590613bab826132b0565b9081166060850152608083013590613bc2826132b0565b16608084015260a082013536839003607e19018112613be057600080fd5b60c060a085015261306560c08501848301613abb565b6000610100868352856020840152613c3c604084018680358252602081013560208301526040810135604083015260608101356060830152608081013560808301525050565b8060e084015261319381840185613b61565b6000610120888352806020840152613c69818401888a613a44565b9050856040840152613ca9606084018680358252602081013560208301526040810135604083015260608101356060830152608081013560808301525050565b828103610100840152613cbc8185613b61565b9998505050505050505050565b60008235603e198336030181126138f357600080fd5b8183823760009101908152919050565b818103818111156109785761097861387e565b80820281158282048414176109785761097861387e565b634e487b7160e01b600052601260045260246000fd5b600082613d4c57634e487b7160e01b600052601260045260246000fd5b500490565b600060208284031215613d6357600080fd5b8151610c6f81613a9d56feddf252ad1be2c89b69c2b068fc378daa952ba7f163c4a11628f55a4df523b3efa26469706673582212208d8eb67f9a8170b9fd2df293b0105ae9e805bb00c850cc0fc05380e38a6cf51e64736f6c63430008120033",
  "linkReferences": {},
  "deployedLinkReferences": {}
}